{
  "contractName": "SalonDesRefuse",
  "abi": [
    {
      "inputs": [],
      "stateMutability": "nonpayable",
      "type": "constructor"
    },
    {
      "anonymous": false,
      "inputs": [
        {
          "indexed": true,
          "internalType": "address",
          "name": "owner",
          "type": "address"
        },
        {
          "indexed": true,
          "internalType": "address",
          "name": "approved",
          "type": "address"
        },
        {
          "indexed": true,
          "internalType": "uint256",
          "name": "tokenId",
          "type": "uint256"
        }
      ],
      "name": "Approval",
      "type": "event"
    },
    {
      "anonymous": false,
      "inputs": [
        {
          "indexed": true,
          "internalType": "address",
          "name": "owner",
          "type": "address"
        },
        {
          "indexed": true,
          "internalType": "address",
          "name": "operator",
          "type": "address"
        },
        {
          "indexed": false,
          "internalType": "bool",
          "name": "approved",
          "type": "bool"
        }
      ],
      "name": "ApprovalForAll",
      "type": "event"
    },
    {
      "anonymous": false,
      "inputs": [
        {
          "indexed": true,
          "internalType": "address",
          "name": "previousOwner",
          "type": "address"
        },
        {
          "indexed": true,
          "internalType": "address",
          "name": "newOwner",
          "type": "address"
        }
      ],
      "name": "OwnershipTransferred",
      "type": "event"
    },
    {
      "anonymous": false,
      "inputs": [
        {
          "indexed": true,
          "internalType": "address",
          "name": "from",
          "type": "address"
        },
        {
          "indexed": true,
          "internalType": "address",
          "name": "to",
          "type": "address"
        },
        {
          "indexed": true,
          "internalType": "uint256",
          "name": "tokenId",
          "type": "uint256"
        }
      ],
      "name": "Transfer",
      "type": "event"
    },
    {
      "inputs": [
        {
          "internalType": "address",
          "name": "to",
          "type": "address"
        },
        {
          "internalType": "uint256",
          "name": "tokenId",
          "type": "uint256"
        }
      ],
      "name": "approve",
      "outputs": [],
      "stateMutability": "nonpayable",
      "type": "function"
    },
    {
      "inputs": [
        {
          "internalType": "address",
          "name": "owner",
          "type": "address"
        }
      ],
      "name": "balanceOf",
      "outputs": [
        {
          "internalType": "uint256",
          "name": "",
          "type": "uint256"
        }
      ],
      "stateMutability": "view",
      "type": "function",
      "constant": true
    },
    {
      "inputs": [],
      "name": "contarctOwner",
      "outputs": [
        {
          "internalType": "address",
          "name": "",
          "type": "address"
        }
      ],
      "stateMutability": "view",
      "type": "function",
      "constant": true
    },
    {
      "inputs": [
        {
          "internalType": "uint256",
          "name": "tokenId",
          "type": "uint256"
        }
      ],
      "name": "getApproved",
      "outputs": [
        {
          "internalType": "address",
          "name": "",
          "type": "address"
        }
      ],
      "stateMutability": "view",
      "type": "function",
      "constant": true
    },
    {
      "inputs": [
        {
          "internalType": "address",
          "name": "owner",
          "type": "address"
        },
        {
          "internalType": "address",
          "name": "operator",
          "type": "address"
        }
      ],
      "name": "isApprovedForAll",
      "outputs": [
        {
          "internalType": "bool",
          "name": "",
          "type": "bool"
        }
      ],
      "stateMutability": "view",
      "type": "function",
      "constant": true
    },
    {
      "inputs": [],
      "name": "name",
      "outputs": [
        {
          "internalType": "string",
          "name": "",
          "type": "string"
        }
      ],
      "stateMutability": "view",
      "type": "function",
      "constant": true
    },
    {
      "inputs": [],
      "name": "owner",
      "outputs": [
        {
          "internalType": "address",
          "name": "",
          "type": "address"
        }
      ],
      "stateMutability": "view",
      "type": "function",
      "constant": true
    },
    {
      "inputs": [
        {
          "internalType": "uint256",
          "name": "tokenId",
          "type": "uint256"
        }
      ],
      "name": "ownerOf",
      "outputs": [
        {
          "internalType": "address",
          "name": "",
          "type": "address"
        }
      ],
      "stateMutability": "view",
      "type": "function",
      "constant": true
    },
    {
      "inputs": [],
      "name": "renounceOwnership",
      "outputs": [],
      "stateMutability": "nonpayable",
      "type": "function"
    },
    {
      "inputs": [
        {
          "internalType": "address",
          "name": "from",
          "type": "address"
        },
        {
          "internalType": "address",
          "name": "to",
          "type": "address"
        },
        {
          "internalType": "uint256",
          "name": "tokenId",
          "type": "uint256"
        }
      ],
      "name": "safeTransferFrom",
      "outputs": [],
      "stateMutability": "nonpayable",
      "type": "function"
    },
    {
      "inputs": [
        {
          "internalType": "address",
          "name": "from",
          "type": "address"
        },
        {
          "internalType": "address",
          "name": "to",
          "type": "address"
        },
        {
          "internalType": "uint256",
          "name": "tokenId",
          "type": "uint256"
        },
        {
          "internalType": "bytes",
          "name": "_data",
          "type": "bytes"
        }
      ],
      "name": "safeTransferFrom",
      "outputs": [],
      "stateMutability": "nonpayable",
      "type": "function"
    },
    {
      "inputs": [
        {
          "internalType": "address",
          "name": "operator",
          "type": "address"
        },
        {
          "internalType": "bool",
          "name": "approved",
          "type": "bool"
        }
      ],
      "name": "setApprovalForAll",
      "outputs": [],
      "stateMutability": "nonpayable",
      "type": "function"
    },
    {
      "inputs": [
        {
          "internalType": "bytes4",
          "name": "interfaceId",
          "type": "bytes4"
        }
      ],
      "name": "supportsInterface",
      "outputs": [
        {
          "internalType": "bool",
          "name": "",
          "type": "bool"
        }
      ],
      "stateMutability": "view",
      "type": "function",
      "constant": true
    },
    {
      "inputs": [],
      "name": "symbol",
      "outputs": [
        {
          "internalType": "string",
          "name": "",
          "type": "string"
        }
      ],
      "stateMutability": "view",
      "type": "function",
      "constant": true
    },
    {
      "inputs": [
        {
          "internalType": "uint256",
          "name": "tokenId",
          "type": "uint256"
        }
      ],
      "name": "tokenURI",
      "outputs": [
        {
          "internalType": "string",
          "name": "",
          "type": "string"
        }
      ],
      "stateMutability": "view",
      "type": "function",
      "constant": true
    },
    {
      "inputs": [
        {
          "internalType": "address",
          "name": "from",
          "type": "address"
        },
        {
          "internalType": "address",
          "name": "to",
          "type": "address"
        },
        {
          "internalType": "uint256",
          "name": "tokenId",
          "type": "uint256"
        }
      ],
      "name": "transferFrom",
      "outputs": [],
      "stateMutability": "nonpayable",
      "type": "function"
    },
    {
      "inputs": [
        {
          "internalType": "address",
          "name": "newOwner",
          "type": "address"
        }
      ],
      "name": "transferOwnership",
      "outputs": [],
      "stateMutability": "nonpayable",
      "type": "function"
    },
    {
      "inputs": [
        {
          "internalType": "address",
          "name": "receiver",
          "type": "address"
        },
        {
          "internalType": "string",
          "name": "tokenURI",
          "type": "string"
        }
      ],
      "name": "createNFT",
      "outputs": [
        {
          "internalType": "uint256",
          "name": "",
          "type": "uint256"
        }
      ],
      "stateMutability": "nonpayable",
      "type": "function"
    },
    {
      "inputs": [
        {
          "internalType": "uint256",
          "name": "_tokenId",
          "type": "uint256"
        }
      ],
      "name": "bid",
      "outputs": [
        {
          "internalType": "bool",
          "name": "",
          "type": "bool"
        }
      ],
      "stateMutability": "payable",
      "type": "function",
      "payable": true
    },
    {
      "inputs": [
        {
          "internalType": "address",
          "name": "_to",
          "type": "address"
        },
        {
          "internalType": "uint256",
          "name": "_tokenId",
          "type": "uint256"
        }
      ],
      "name": "complete",
      "outputs": [],
      "stateMutability": "nonpayable",
      "type": "function"
    }
  ],
  "bytecode": "0x60806040523480156200001157600080fd5b506040518060400160405280600e81526020017f53616c6f6e4465735265667573650000000000000000000000000000000000008152506040518060400160405280600381526020017f5344520000000000000000000000000000000000000000000000000000000000815250816000908051906020019062000096929190620001e7565b508060019080519060200190620000af929190620001e7565b505050620000d2620000c66200011960201b60201c565b6200012160201b60201c565b33600960006101000a81548173ffffffffffffffffffffffffffffffffffffffff021916908373ffffffffffffffffffffffffffffffffffffffff160217905550620002fc565b600033905090565b6000600760009054906101000a900473ffffffffffffffffffffffffffffffffffffffff16905081600760006101000a81548173ffffffffffffffffffffffffffffffffffffffff021916908373ffffffffffffffffffffffffffffffffffffffff1602179055508173ffffffffffffffffffffffffffffffffffffffff168173ffffffffffffffffffffffffffffffffffffffff167f8be0079c531659141344cd1fd0a4f28419497f9722a3daafe3b4186f6b6457e060405160405180910390a35050565b828054620001f59062000297565b90600052602060002090601f01602090048101928262000219576000855562000265565b82601f106200023457805160ff191683800117855562000265565b8280016001018555821562000265579182015b828111156200026457825182559160200191906001019062000247565b5b50905062000274919062000278565b5090565b5b808211156200029357600081600090555060010162000279565b5090565b60006002820490506001821680620002b057607f821691505b60208210811415620002c757620002c6620002cd565b5b50919050565b7f4e487b7100000000000000000000000000000000000000000000000000000000600052602260045260246000fd5b613446806200030c6000396000f3fe60806040526004361061011f5760003560e01c8063715018a6116100a0578063b88d4fde11610064578063b88d4fde146103ec578063c87b56dd14610415578063e1e5a82e14610452578063e985e9c51461047b578063f2fde38b146104b85761011f565b8063715018a6146103195780638da5cb5b1461033057806395d89b411461035b578063a22cb46514610386578063a5614033146103af5761011f565b806342842e0e116100e757806342842e0e1461021b578063454a2ab3146102445780636352211e1461027457806369412595146102b157806370a08231146102dc5761011f565b806301ffc9a71461012457806306fdde0314610161578063081812fc1461018c578063095ea7b3146101c957806323b872dd146101f2575b600080fd5b34801561013057600080fd5b5061014b600480360381019061014691906123a6565b6104e1565b60405161015891906127fe565b60405180910390f35b34801561016d57600080fd5b506101766105c3565b6040516101839190612819565b60405180910390f35b34801561019857600080fd5b506101b360048036038101906101ae9190612400565b610655565b6040516101c09190612797565b60405180910390f35b3480156101d557600080fd5b506101f060048036038101906101eb9190612366565b6106da565b005b3480156101fe57600080fd5b50610219600480360381019061021491906121f4565b6107f2565b005b34801561022757600080fd5b50610242600480360381019061023d91906121f4565b610852565b005b61025e60048036038101906102599190612400565b610872565b60405161026b91906127fe565b60405180910390f35b34801561028057600080fd5b5061029b60048036038101906102969190612400565b610a0a565b6040516102a89190612797565b60405180910390f35b3480156102bd57600080fd5b506102c6610abc565b6040516102d39190612797565b60405180910390f35b3480156102e857600080fd5b5061030360048036038101906102fe9190612187565b610ae2565b6040516103109190612a7b565b60405180910390f35b34801561032557600080fd5b5061032e610b9a565b005b34801561033c57600080fd5b50610345610c22565b6040516103529190612797565b60405180910390f35b34801561036757600080fd5b50610370610c4c565b60405161037d9190612819565b60405180910390f35b34801561039257600080fd5b506103ad60048036038101906103a891906122ca565b610cde565b005b3480156103bb57600080fd5b506103d660048036038101906103d1919061230a565b610e5f565b6040516103e39190612a7b565b60405180910390f35b3480156103f857600080fd5b50610413600480360381019061040e9190612247565b610e97565b005b34801561042157600080fd5b5061043c60048036038101906104379190612400565b610ef9565b6040516104499190612819565b60405180910390f35b34801561045e57600080fd5b5061047960048036038101906104749190612366565b61104b565b005b34801561048757600080fd5b506104a2600480360381019061049d91906121b4565b6111e8565b6040516104af91906127fe565b60405180910390f35b3480156104c457600080fd5b506104df60048036038101906104da9190612187565b61127c565b005b60007f80ac58cd000000000000000000000000000000000000000000000000000000007bffffffffffffffffffffffffffffffffffffffffffffffffffffffff1916827bffffffffffffffffffffffffffffffffffffffffffffffffffffffff191614806105ac57507f5b5e139f000000000000000000000000000000000000000000000000000000007bffffffffffffffffffffffffffffffffffffffffffffffffffffffff1916827bffffffffffffffffffffffffffffffffffffffffffffffffffffffff1916145b806105bc57506105bb82611374565b5b9050919050565b6060600080546105d290612cd1565b80601f01602080910402602001604051908101604052809291908181526020018280546105fe90612cd1565b801561064b5780601f106106205761010080835404028352916020019161064b565b820191906000526020600020905b81548152906001019060200180831161062e57829003601f168201915b5050505050905090565b6000610660826113de565b61069f576040517f08c379a0000000000000000000000000000000000000000000000000000000008152600401610696906129bb565b60405180910390fd5b6004600083815260200190815260200160002060009054906101000a900473ffffffffffffffffffffffffffffffffffffffff169050919050565b60006106e582610a0a565b90508073ffffffffffffffffffffffffffffffffffffffff168373ffffffffffffffffffffffffffffffffffffffff161415610756576040517f08c379a000000000000000000000000000000000000000000000000000000000815260040161074d90612a3b565b60405180910390fd5b8073ffffffffffffffffffffffffffffffffffffffff1661077561144a565b73ffffffffffffffffffffffffffffffffffffffff1614806107a457506107a38161079e61144a565b6111e8565b5b6107e3576040517f08c379a00000000000000000000000000000000000000000000000000000000081526004016107da906128fb565b60405180910390fd5b6107ed8383611452565b505050565b6108036107fd61144a565b8261150b565b610842576040517f08c379a000000000000000000000000000000000000000000000000000000000815260040161083990612a5b565b60405180910390fd5b61084d8383836115e9565b505050565b61086d83838360405180602001604052806000815250610e97565b505050565b60003373ffffffffffffffffffffffffffffffffffffffff1661089483610a0a565b73ffffffffffffffffffffffffffffffffffffffff16146108b457600080fd5b34600b600084815260200190815260200160002060000154106108d657600080fd5b6000600b600084815260200190815260200160002060010160009054906101000a900473ffffffffffffffffffffffffffffffffffffffff1690508073ffffffffffffffffffffffffffffffffffffffff166108fc600b6000868152602001908152602001600020600001549081150290604051600060405180830381858888f1935050505015801561096d573d6000803e3d6000fd5b5060405180604001604052803481526020013373ffffffffffffffffffffffffffffffffffffffff16815250600b60008581526020019081526020016000206000820151816000015560208201518160010160006101000a81548173ffffffffffffffffffffffffffffffffffffffff021916908373ffffffffffffffffffffffffffffffffffffffff1602179055509050506001915050919050565b6000806002600084815260200190815260200160002060009054906101000a900473ffffffffffffffffffffffffffffffffffffffff169050600073ffffffffffffffffffffffffffffffffffffffff168173ffffffffffffffffffffffffffffffffffffffff161415610ab3576040517f08c379a0000000000000000000000000000000000000000000000000000000008152600401610aaa9061293b565b60405180910390fd5b80915050919050565b600960009054906101000a900473ffffffffffffffffffffffffffffffffffffffff1681565b60008073ffffffffffffffffffffffffffffffffffffffff168273ffffffffffffffffffffffffffffffffffffffff161415610b53576040517f08c379a0000000000000000000000000000000000000000000000000000000008152600401610b4a9061291b565b60405180910390fd5b600360008373ffffffffffffffffffffffffffffffffffffffff1673ffffffffffffffffffffffffffffffffffffffff168152602001908152602001600020549050919050565b610ba261144a565b73ffffffffffffffffffffffffffffffffffffffff16610bc0610c22565b73ffffffffffffffffffffffffffffffffffffffff1614610c16576040517f08c379a0000000000000000000000000000000000000000000000000000000008152600401610c0d906129db565b60405180910390fd5b610c206000611845565b565b6000600760009054906101000a900473ffffffffffffffffffffffffffffffffffffffff16905090565b606060018054610c5b90612cd1565b80601f0160208091040260200160405190810160405280929190818152602001828054610c8790612cd1565b8015610cd45780601f10610ca957610100808354040283529160200191610cd4565b820191906000526020600020905b815481529060010190602001808311610cb757829003601f168201915b5050505050905090565b610ce661144a565b73ffffffffffffffffffffffffffffffffffffffff168273ffffffffffffffffffffffffffffffffffffffff161415610d54576040517f08c379a0000000000000000000000000000000000000000000000000000000008152600401610d4b906128bb565b60405180910390fd5b8060056000610d6161144a565b73ffffffffffffffffffffffffffffffffffffffff1673ffffffffffffffffffffffffffffffffffffffff16815260200190815260200160002060008473ffffffffffffffffffffffffffffffffffffffff1673ffffffffffffffffffffffffffffffffffffffff16815260200190815260200160002060006101000a81548160ff0219169083151502179055508173ffffffffffffffffffffffffffffffffffffffff16610e0e61144a565b73ffffffffffffffffffffffffffffffffffffffff167f17307eab39ab6107e8899845ad3d59bd9653f200f220920489ca2b5937696c3183604051610e5391906127fe565b60405180910390a35050565b6000610e6b600861190b565b6000610e776008611921565b9050610e83848261192f565b610e8d8184611afd565b8091505092915050565b610ea8610ea261144a565b8361150b565b610ee7576040517f08c379a0000000000000000000000000000000000000000000000000000000008152600401610ede90612a5b565b60405180910390fd5b610ef384848484611b71565b50505050565b6060610f04826113de565b610f43576040517f08c379a0000000000000000000000000000000000000000000000000000000008152600401610f3a9061299b565b60405180910390fd5b6000600660008481526020019081526020016000208054610f6390612cd1565b80601f0160208091040260200160405190810160405280929190818152602001828054610f8f90612cd1565b8015610fdc5780601f10610fb157610100808354040283529160200191610fdc565b820191906000526020600020905b815481529060010190602001808311610fbf57829003601f168201915b505050505090506000610fed611bcd565b9050600081511415611003578192505050611046565b600082511115611038578082604051602001611020929190612773565b60405160208183030381529060405292505050611046565b61104184611be4565b925050505b919050565b61105361144a565b73ffffffffffffffffffffffffffffffffffffffff16611071610c22565b73ffffffffffffffffffffffffffffffffffffffff16146110c7576040517f08c379a00000000000000000000000000000000000000000000000000000000081526004016110be906129db565b60405180910390fd5b60006110d282610a0a565b9050600960009054906101000a900473ffffffffffffffffffffffffffffffffffffffff1673ffffffffffffffffffffffffffffffffffffffff1661111683610655565b73ffffffffffffffffffffffffffffffffffffffff161461113657600080fd5b8073ffffffffffffffffffffffffffffffffffffffff166108fc600b6000858152602001908152602001600020600001549081150290604051600060405180830381858888f19350505050158015611192573d6000803e3d6000fd5b5061119e818484610852565b600b60008381526020019081526020016000206000808201600090556001820160006101000a81549073ffffffffffffffffffffffffffffffffffffffff02191690555050505050565b6000600560008473ffffffffffffffffffffffffffffffffffffffff1673ffffffffffffffffffffffffffffffffffffffff16815260200190815260200160002060008373ffffffffffffffffffffffffffffffffffffffff1673ffffffffffffffffffffffffffffffffffffffff16815260200190815260200160002060009054906101000a900460ff16905092915050565b61128461144a565b73ffffffffffffffffffffffffffffffffffffffff166112a2610c22565b73ffffffffffffffffffffffffffffffffffffffff16146112f8576040517f08c379a00000000000000000000000000000000000000000000000000000000081526004016112ef906129db565b60405180910390fd5b600073ffffffffffffffffffffffffffffffffffffffff168173ffffffffffffffffffffffffffffffffffffffff161415611368576040517f08c379a000000000000000000000000000000000000000000000000000000000815260040161135f9061285b565b60405180910390fd5b61137181611845565b50565b60007f01ffc9a7000000000000000000000000000000000000000000000000000000007bffffffffffffffffffffffffffffffffffffffffffffffffffffffff1916827bffffffffffffffffffffffffffffffffffffffffffffffffffffffff1916149050919050565b60008073ffffffffffffffffffffffffffffffffffffffff166002600084815260200190815260200160002060009054906101000a900473ffffffffffffffffffffffffffffffffffffffff1673ffffffffffffffffffffffffffffffffffffffff1614159050919050565b600033905090565b816004600083815260200190815260200160002060006101000a81548173ffffffffffffffffffffffffffffffffffffffff021916908373ffffffffffffffffffffffffffffffffffffffff160217905550808273ffffffffffffffffffffffffffffffffffffffff166114c583610a0a565b73ffffffffffffffffffffffffffffffffffffffff167f8c5be1e5ebec7d5bd14f71427d1e84f3dd0314c0f7b2291e5b200ac8c7c3b92560405160405180910390a45050565b6000611516826113de565b611555576040517f08c379a000000000000000000000000000000000000000000000000000000000815260040161154c906128db565b60405180910390fd5b600061156083610a0a565b90508073ffffffffffffffffffffffffffffffffffffffff168473ffffffffffffffffffffffffffffffffffffffff1614806115cf57508373ffffffffffffffffffffffffffffffffffffffff166115b784610655565b73ffffffffffffffffffffffffffffffffffffffff16145b806115e057506115df81856111e8565b5b91505092915050565b8273ffffffffffffffffffffffffffffffffffffffff1661160982610a0a565b73ffffffffffffffffffffffffffffffffffffffff161461165f576040517f08c379a0000000000000000000000000000000000000000000000000000000008152600401611656906129fb565b60405180910390fd5b600073ffffffffffffffffffffffffffffffffffffffff168273ffffffffffffffffffffffffffffffffffffffff1614156116cf576040517f08c379a00000000000000000000000000000000000000000000000000000000081526004016116c69061289b565b60405180910390fd5b6116da838383611c8b565b6116e5600082611452565b6001600360008573ffffffffffffffffffffffffffffffffffffffff1673ffffffffffffffffffffffffffffffffffffffff16815260200190815260200160002060008282546117359190612be7565b925050819055506001600360008473ffffffffffffffffffffffffffffffffffffffff1673ffffffffffffffffffffffffffffffffffffffff168152602001908152602001600020600082825461178c9190612b60565b92505081905550816002600083815260200190815260200160002060006101000a81548173ffffffffffffffffffffffffffffffffffffffff021916908373ffffffffffffffffffffffffffffffffffffffff160217905550808273ffffffffffffffffffffffffffffffffffffffff168473ffffffffffffffffffffffffffffffffffffffff167fddf252ad1be2c89b69c2b068fc378daa952ba7f163c4a11628f55a4df523b3ef60405160405180910390a4505050565b6000600760009054906101000a900473ffffffffffffffffffffffffffffffffffffffff16905081600760006101000a81548173ffffffffffffffffffffffffffffffffffffffff021916908373ffffffffffffffffffffffffffffffffffffffff1602179055508173ffffffffffffffffffffffffffffffffffffffff168173ffffffffffffffffffffffffffffffffffffffff167f8be0079c531659141344cd1fd0a4f28419497f9722a3daafe3b4186f6b6457e060405160405180910390a35050565b6001816000016000828254019250508190555050565b600081600001549050919050565b600073ffffffffffffffffffffffffffffffffffffffff168273ffffffffffffffffffffffffffffffffffffffff16141561199f576040517f08c379a00000000000000000000000000000000000000000000000000000000081526004016119969061297b565b60405180910390fd5b6119a8816113de565b156119e8576040517f08c379a00000000000000000000000000000000000000000000000000000000081526004016119df9061287b565b60405180910390fd5b6119f460008383611c8b565b6001600360008473ffffffffffffffffffffffffffffffffffffffff1673ffffffffffffffffffffffffffffffffffffffff1681526020019081526020016000206000828254611a449190612b60565b92505081905550816002600083815260200190815260200160002060006101000a81548173ffffffffffffffffffffffffffffffffffffffff021916908373ffffffffffffffffffffffffffffffffffffffff160217905550808273ffffffffffffffffffffffffffffffffffffffff16600073ffffffffffffffffffffffffffffffffffffffff167fddf252ad1be2c89b69c2b068fc378daa952ba7f163c4a11628f55a4df523b3ef60405160405180910390a45050565b611b06826113de565b611b45576040517f08c379a0000000000000000000000000000000000000000000000000000000008152600401611b3c9061295b565b60405180910390fd5b80600660008481526020019081526020016000209080519060200190611b6c929190611f9b565b505050565b611b7c8484846115e9565b611b8884848484611c90565b611bc7576040517f08c379a0000000000000000000000000000000000000000000000000000000008152600401611bbe9061283b565b60405180910390fd5b50505050565b606060405180602001604052806000815250905090565b6060611bef826113de565b611c2e576040517f08c379a0000000000000000000000000000000000000000000000000000000008152600401611c2590612a1b565b60405180910390fd5b6000611c38611bcd565b90506000815111611c585760405180602001604052806000815250611c83565b80611c6284611e27565b604051602001611c73929190612773565b6040516020818303038152906040525b915050919050565b505050565b6000611cb18473ffffffffffffffffffffffffffffffffffffffff16611f88565b15611e1a578373ffffffffffffffffffffffffffffffffffffffff1663150b7a02611cda61144a565b8786866040518563ffffffff1660e01b8152600401611cfc94939291906127b2565b602060405180830381600087803b158015611d1657600080fd5b505af1925050508015611d4757506040513d601f19601f82011682018060405250810190611d4491906123d3565b60015b611dca573d8060008114611d77576040519150601f19603f3d011682016040523d82523d6000602084013e611d7c565b606091505b50600081511415611dc2576040517f08c379a0000000000000000000000000000000000000000000000000000000008152600401611db99061283b565b60405180910390fd5b805181602001fd5b63150b7a0260e01b7bffffffffffffffffffffffffffffffffffffffffffffffffffffffff1916817bffffffffffffffffffffffffffffffffffffffffffffffffffffffff191614915050611e1f565b600190505b949350505050565b60606000821415611e6f576040518060400160405280600181526020017f30000000000000000000000000000000000000000000000000000000000000008152509050611f83565b600082905060005b60008214611ea1578080611e8a90612d34565b915050600a82611e9a9190612bb6565b9150611e77565b60008167ffffffffffffffff811115611ebd57611ebc612e6a565b5b6040519080825280601f01601f191660200182016040528015611eef5781602001600182028036833780820191505090505b5090505b60008514611f7c57600182611f089190612be7565b9150600a85611f179190612d7d565b6030611f239190612b60565b60f81b818381518110611f3957611f38612e3b565b5b60200101907effffffffffffffffffffffffffffffffffffffffffffffffffffffffffffff1916908160001a905350600a85611f759190612bb6565b9450611ef3565b8093505050505b919050565b600080823b905060008111915050919050565b828054611fa790612cd1565b90600052602060002090601f016020900481019282611fc95760008555612010565b82601f10611fe257805160ff1916838001178555612010565b82800160010185558215612010579182015b8281111561200f578251825591602001919060010190611ff4565b5b50905061201d9190612021565b5090565b5b8082111561203a576000816000905550600101612022565b5090565b600061205161204c84612abb565b612a96565b90508281526020810184848401111561206d5761206c612e9e565b5b612078848285612c8f565b509392505050565b600061209361208e84612aec565b612a96565b9050828152602081018484840111156120af576120ae612e9e565b5b6120ba848285612c8f565b509392505050565b6000813590506120d1816133b4565b92915050565b6000813590506120e6816133cb565b92915050565b6000813590506120fb816133e2565b92915050565b600081519050612110816133e2565b92915050565b600082601f83011261212b5761212a612e99565b5b813561213b84826020860161203e565b91505092915050565b600082601f83011261215957612158612e99565b5b8135612169848260208601612080565b91505092915050565b600081359050612181816133f9565b92915050565b60006020828403121561219d5761219c612ea8565b5b60006121ab848285016120c2565b91505092915050565b600080604083850312156121cb576121ca612ea8565b5b60006121d9858286016120c2565b92505060206121ea858286016120c2565b9150509250929050565b60008060006060848603121561220d5761220c612ea8565b5b600061221b868287016120c2565b935050602061222c868287016120c2565b925050604061223d86828701612172565b9150509250925092565b6000806000806080858703121561226157612260612ea8565b5b600061226f878288016120c2565b9450506020612280878288016120c2565b935050604061229187828801612172565b925050606085013567ffffffffffffffff8111156122b2576122b1612ea3565b5b6122be87828801612116565b91505092959194509250565b600080604083850312156122e1576122e0612ea8565b5b60006122ef858286016120c2565b9250506020612300858286016120d7565b9150509250929050565b6000806040838503121561232157612320612ea8565b5b600061232f858286016120c2565b925050602083013567ffffffffffffffff8111156123505761234f612ea3565b5b61235c85828601612144565b9150509250929050565b6000806040838503121561237d5761237c612ea8565b5b600061238b858286016120c2565b925050602061239c85828601612172565b9150509250929050565b6000602082840312156123bc576123bb612ea8565b5b60006123ca848285016120ec565b91505092915050565b6000602082840312156123e9576123e8612ea8565b5b60006123f784828501612101565b91505092915050565b60006020828403121561241657612415612ea8565b5b600061242484828501612172565b91505092915050565b61243681612c1b565b82525050565b61244581612c2d565b82525050565b600061245682612b1d565b6124608185612b33565b9350612470818560208601612c9e565b61247981612ead565b840191505092915050565b600061248f82612b28565b6124998185612b44565b93506124a9818560208601612c9e565b6124b281612ead565b840191505092915050565b60006124c882612b28565b6124d28185612b55565b93506124e2818560208601612c9e565b80840191505092915050565b60006124fb603283612b44565b915061250682612ebe565b604082019050919050565b600061251e602683612b44565b915061252982612f0d565b604082019050919050565b6000612541601c83612b44565b915061254c82612f5c565b602082019050919050565b6000612564602483612b44565b915061256f82612f85565b604082019050919050565b6000612587601983612b44565b915061259282612fd4565b602082019050919050565b60006125aa602c83612b44565b91506125b582612ffd565b604082019050919050565b60006125cd603883612b44565b91506125d88261304c565b604082019050919050565b60006125f0602a83612b44565b91506125fb8261309b565b604082019050919050565b6000612613602983612b44565b915061261e826130ea565b604082019050919050565b6000612636602e83612b44565b915061264182613139565b604082019050919050565b6000612659602083612b44565b915061266482613188565b602082019050919050565b600061267c603183612b44565b9150612687826131b1565b604082019050919050565b600061269f602c83612b44565b91506126aa82613200565b604082019050919050565b60006126c2602083612b44565b91506126cd8261324f565b602082019050919050565b60006126e5602983612b44565b91506126f082613278565b604082019050919050565b6000612708602f83612b44565b9150612713826132c7565b604082019050919050565b600061272b602183612b44565b915061273682613316565b604082019050919050565b600061274e603183612b44565b915061275982613365565b604082019050919050565b61276d81612c85565b82525050565b600061277f82856124bd565b915061278b82846124bd565b91508190509392505050565b60006020820190506127ac600083018461242d565b92915050565b60006080820190506127c7600083018761242d565b6127d4602083018661242d565b6127e16040830185612764565b81810360608301526127f3818461244b565b905095945050505050565b6000602082019050612813600083018461243c565b92915050565b600060208201905081810360008301526128338184612484565b905092915050565b60006020820190508181036000830152612854816124ee565b9050919050565b6000602082019050818103600083015261287481612511565b9050919050565b6000602082019050818103600083015261289481612534565b9050919050565b600060208201905081810360008301526128b481612557565b9050919050565b600060208201905081810360008301526128d48161257a565b9050919050565b600060208201905081810360008301526128f48161259d565b9050919050565b60006020820190508181036000830152612914816125c0565b9050919050565b60006020820190508181036000830152612934816125e3565b9050919050565b6000602082019050818103600083015261295481612606565b9050919050565b6000602082019050818103600083015261297481612629565b9050919050565b600060208201905081810360008301526129948161264c565b9050919050565b600060208201905081810360008301526129b48161266f565b9050919050565b600060208201905081810360008301526129d481612692565b9050919050565b600060208201905081810360008301526129f4816126b5565b9050919050565b60006020820190508181036000830152612a14816126d8565b9050919050565b60006020820190508181036000830152612a34816126fb565b9050919050565b60006020820190508181036000830152612a548161271e565b9050919050565b60006020820190508181036000830152612a7481612741565b9050919050565b6000602082019050612a906000830184612764565b92915050565b6000612aa0612ab1565b9050612aac8282612d03565b919050565b6000604051905090565b600067ffffffffffffffff821115612ad657612ad5612e6a565b5b612adf82612ead565b9050602081019050919050565b600067ffffffffffffffff821115612b0757612b06612e6a565b5b612b1082612ead565b9050602081019050919050565b600081519050919050565b600081519050919050565b600082825260208201905092915050565b600082825260208201905092915050565b600081905092915050565b6000612b6b82612c85565b9150612b7683612c85565b9250827fffffffffffffffffffffffffffffffffffffffffffffffffffffffffffffffff03821115612bab57612baa612dae565b5b828201905092915050565b6000612bc182612c85565b9150612bcc83612c85565b925082612bdc57612bdb612ddd565b5b828204905092915050565b6000612bf282612c85565b9150612bfd83612c85565b925082821015612c1057612c0f612dae565b5b828203905092915050565b6000612c2682612c65565b9050919050565b60008115159050919050565b60007fffffffff0000000000000000000000000000000000000000000000000000000082169050919050565b600073ffffffffffffffffffffffffffffffffffffffff82169050919050565b6000819050919050565b82818337600083830152505050565b60005b83811015612cbc578082015181840152602081019050612ca1565b83811115612ccb576000848401525b50505050565b60006002820490506001821680612ce957607f821691505b60208210811415612cfd57612cfc612e0c565b5b50919050565b612d0c82612ead565b810181811067ffffffffffffffff82111715612d2b57612d2a612e6a565b5b80604052505050565b6000612d3f82612c85565b91507fffffffffffffffffffffffffffffffffffffffffffffffffffffffffffffffff821415612d7257612d71612dae565b5b600182019050919050565b6000612d8882612c85565b9150612d9383612c85565b925082612da357612da2612ddd565b5b828206905092915050565b7f4e487b7100000000000000000000000000000000000000000000000000000000600052601160045260246000fd5b7f4e487b7100000000000000000000000000000000000000000000000000000000600052601260045260246000fd5b7f4e487b7100000000000000000000000000000000000000000000000000000000600052602260045260246000fd5b7f4e487b7100000000000000000000000000000000000000000000000000000000600052603260045260246000fd5b7f4e487b7100000000000000000000000000000000000000000000000000000000600052604160045260246000fd5b600080fd5b600080fd5b600080fd5b600080fd5b6000601f19601f8301169050919050565b7f4552433732313a207472616e7366657220746f206e6f6e20455243373231526560008201527f63656976657220696d706c656d656e7465720000000000000000000000000000602082015250565b7f4f776e61626c653a206e6577206f776e657220697320746865207a65726f206160008201527f6464726573730000000000000000000000000000000000000000000000000000602082015250565b7f4552433732313a20746f6b656e20616c7265616479206d696e74656400000000600082015250565b7f4552433732313a207472616e7366657220746f20746865207a65726f2061646460008201527f7265737300000000000000000000000000000000000000000000000000000000602082015250565b7f4552433732313a20617070726f766520746f2063616c6c657200000000000000600082015250565b7f4552433732313a206f70657261746f7220717565727920666f72206e6f6e657860008201527f697374656e7420746f6b656e0000000000000000000000000000000000000000602082015250565b7f4552433732313a20617070726f76652063616c6c6572206973206e6f74206f7760008201527f6e6572206e6f7220617070726f76656420666f7220616c6c0000000000000000602082015250565b7f4552433732313a2062616c616e636520717565727920666f7220746865207a6560008201527f726f206164647265737300000000000000000000000000000000000000000000602082015250565b7f4552433732313a206f776e657220717565727920666f72206e6f6e657869737460008201527f656e7420746f6b656e0000000000000000000000000000000000000000000000602082015250565b7f45524337323155524953746f726167653a2055524920736574206f66206e6f6e60008201527f6578697374656e7420746f6b656e000000000000000000000000000000000000602082015250565b7f4552433732313a206d696e7420746f20746865207a65726f2061646472657373600082015250565b7f45524337323155524953746f726167653a2055524920717565727920666f722060008201527f6e6f6e6578697374656e7420746f6b656e000000000000000000000000000000602082015250565b7f4552433732313a20617070726f76656420717565727920666f72206e6f6e657860008201527f697374656e7420746f6b656e0000000000000000000000000000000000000000602082015250565b7f4f776e61626c653a2063616c6c6572206973206e6f7420746865206f776e6572600082015250565b7f4552433732313a207472616e73666572206f6620746f6b656e2074686174206960008201527f73206e6f74206f776e0000000000000000000000000000000000000000000000602082015250565b7f4552433732314d657461646174613a2055524920717565727920666f72206e6f60008201527f6e6578697374656e7420746f6b656e0000000000000000000000000000000000602082015250565b7f4552433732313a20617070726f76616c20746f2063757272656e74206f776e6560008201527f7200000000000000000000000000000000000000000000000000000000000000602082015250565b7f4552433732313a207472616e736665722063616c6c6572206973206e6f74206f60008201527f776e6572206e6f7220617070726f766564000000000000000000000000000000602082015250565b6133bd81612c1b565b81146133c857600080fd5b50565b6133d481612c2d565b81146133df57600080fd5b50565b6133eb81612c39565b81146133f657600080fd5b50565b61340281612c85565b811461340d57600080fd5b5056fea2646970667358221220402c26264598649e5070673cbbd439f0d1833617ea65acaa47ce11233979a39664736f6c63430008060033",
  "immutableReferences": {},
  "source": "// SPDX-License-Identifier: MIT\npragma solidity ^0.8.0;\n\nimport \"@openzeppelin/contracts/token/ERC721/extensions/ERC721URIStorage.sol\";\nimport \"@openzeppelin/contracts/utils/Counters.sol\";\nimport \"@openzeppelin/contracts/access/Ownable.sol\";\n\ncontract SalonDesRefuse is ERC721URIStorage, Ownable {\n    using Counters for Counters.Counter;\n    Counters.Counter private _tokenIds;\n    address public contarctOwner;\n\n    mapping(uint => uint) tokenPrice;\n    mapping(uint => Bid) lastBid;\n\n    struct Bid {\n        uint price;\n        address bidder;\n    }\n\n    constructor() ERC721(\"SalonDesRefuse\", \"SDR\") public {\n        contarctOwner = msg.sender;\n    }\n\n    function createNFT(address receiver, string memory tokenURI) public returns (uint256){\n        _tokenIds.increment();\n\n        uint256 newItemId = _tokenIds.current();\n        _mint(receiver, newItemId);\n        _setTokenURI(newItemId, tokenURI);\n\n        return newItemId;\n    }\n\n    function bid(uint _tokenId) public payable returns (bool) {\n        require(ownerOf(_tokenId) == msg.sender);\n        require(lastBid[_tokenId].price < msg.value);\n\n        address prevBidder = lastBid[_tokenId].bidder;\n        payable(prevBidder).transfer(lastBid[_tokenId].price);\n        lastBid[_tokenId] = Bid(msg.value, msg.sender);\n\n        return true;\n    }\n\n    function complete(address _to, uint _tokenId) public onlyOwner {\n        address tokenOwner = ownerOf(_tokenId);\n\n        require(getApproved(_tokenId) == contarctOwner);\n\n        payable(tokenOwner).transfer(lastBid[_tokenId].price);\n        safeTransferFrom(tokenOwner, _to, _tokenId);\n        delete lastBid[_tokenId];\n    }\n}\n",
  "sourcePath": "/Users/jeongjunlee/Projects/web14-salondesrefuses/nft/contracts/SalonDesRefuse.sol",
  "compiler": {
    "name": "solc",
    "version": "0.8.6+commit.11564f7e.Emscripten.clang"
  },
  "schemaVersion": "3.4.3",
  "updatedAt": "2021-11-18T02:22:55.226Z",
  "networkType": "ethereum",
  "devdoc": {
    "kind": "dev",
    "methods": {
      "approve(address,uint256)": {
        "details": "See {IERC721-approve}."
      },
      "balanceOf(address)": {
        "details": "See {IERC721-balanceOf}."
      },
      "getApproved(uint256)": {
        "details": "See {IERC721-getApproved}."
      },
      "isApprovedForAll(address,address)": {
        "details": "See {IERC721-isApprovedForAll}."
      },
      "name()": {
        "details": "See {IERC721Metadata-name}."
      },
      "owner()": {
        "details": "Returns the address of the current owner."
      },
      "ownerOf(uint256)": {
        "details": "See {IERC721-ownerOf}."
      },
      "renounceOwnership()": {
        "details": "Leaves the contract without owner. It will not be possible to call `onlyOwner` functions anymore. Can only be called by the current owner. NOTE: Renouncing ownership will leave the contract without an owner, thereby removing any functionality that is only available to the owner."
      },
      "safeTransferFrom(address,address,uint256)": {
        "details": "See {IERC721-safeTransferFrom}."
      },
      "safeTransferFrom(address,address,uint256,bytes)": {
        "details": "See {IERC721-safeTransferFrom}."
      },
      "setApprovalForAll(address,bool)": {
        "details": "See {IERC721-setApprovalForAll}."
      },
      "supportsInterface(bytes4)": {
        "details": "See {IERC165-supportsInterface}."
      },
      "symbol()": {
        "details": "See {IERC721Metadata-symbol}."
      },
      "tokenURI(uint256)": {
        "details": "See {IERC721Metadata-tokenURI}."
      },
      "transferFrom(address,address,uint256)": {
        "details": "See {IERC721-transferFrom}."
      },
      "transferOwnership(address)": {
        "details": "Transfers ownership of the contract to a new account (`newOwner`). Can only be called by the current owner."
      }
    },
    "version": 1
  },
  "userdoc": {
    "kind": "user",
    "methods": {},
    "version": 1
  }
}