{
  "contractName": "SalonDesRefuse",
  "abi": [
    {
      "inputs": [],
      "stateMutability": "nonpayable",
      "type": "constructor"
    },
    {
      "anonymous": false,
      "inputs": [
        {
          "indexed": true,
          "internalType": "address",
          "name": "owner",
          "type": "address"
        },
        {
          "indexed": true,
          "internalType": "address",
          "name": "approved",
          "type": "address"
        },
        {
          "indexed": true,
          "internalType": "uint256",
          "name": "tokenId",
          "type": "uint256"
        }
      ],
      "name": "Approval",
      "type": "event"
    },
    {
      "anonymous": false,
      "inputs": [
        {
          "indexed": true,
          "internalType": "address",
          "name": "owner",
          "type": "address"
        },
        {
          "indexed": true,
          "internalType": "address",
          "name": "operator",
          "type": "address"
        },
        {
          "indexed": false,
          "internalType": "bool",
          "name": "approved",
          "type": "bool"
        }
      ],
      "name": "ApprovalForAll",
      "type": "event"
    },
    {
      "anonymous": false,
      "inputs": [
        {
          "indexed": true,
          "internalType": "address",
          "name": "previousOwner",
          "type": "address"
        },
        {
          "indexed": true,
          "internalType": "address",
          "name": "newOwner",
          "type": "address"
        }
      ],
      "name": "OwnershipTransferred",
      "type": "event"
    },
    {
      "anonymous": false,
      "inputs": [
        {
          "indexed": true,
          "internalType": "address",
          "name": "from",
          "type": "address"
        },
        {
          "indexed": true,
          "internalType": "address",
          "name": "to",
          "type": "address"
        },
        {
          "indexed": true,
          "internalType": "uint256",
          "name": "tokenId",
          "type": "uint256"
        }
      ],
      "name": "Transfer",
      "type": "event"
    },
    {
      "inputs": [
        {
          "internalType": "address",
          "name": "to",
          "type": "address"
        },
        {
          "internalType": "uint256",
          "name": "tokenId",
          "type": "uint256"
        }
      ],
      "name": "approve",
      "outputs": [],
      "stateMutability": "nonpayable",
      "type": "function"
    },
    {
      "inputs": [
        {
          "internalType": "address",
          "name": "owner",
          "type": "address"
        }
      ],
      "name": "balanceOf",
      "outputs": [
        {
          "internalType": "uint256",
          "name": "",
          "type": "uint256"
        }
      ],
      "stateMutability": "view",
      "type": "function",
      "constant": true
    },
    {
      "inputs": [],
      "name": "contractOwner",
      "outputs": [
        {
          "internalType": "address",
          "name": "",
          "type": "address"
        }
      ],
      "stateMutability": "view",
      "type": "function",
      "constant": true
    },
    {
      "inputs": [
        {
          "internalType": "uint256",
          "name": "tokenId",
          "type": "uint256"
        }
      ],
      "name": "getApproved",
      "outputs": [
        {
          "internalType": "address",
          "name": "",
          "type": "address"
        }
      ],
      "stateMutability": "view",
      "type": "function",
      "constant": true
    },
    {
      "inputs": [
        {
          "internalType": "address",
          "name": "owner",
          "type": "address"
        },
        {
          "internalType": "address",
          "name": "operator",
          "type": "address"
        }
      ],
      "name": "isApprovedForAll",
      "outputs": [
        {
          "internalType": "bool",
          "name": "",
          "type": "bool"
        }
      ],
      "stateMutability": "view",
      "type": "function",
      "constant": true
    },
    {
      "inputs": [],
      "name": "name",
      "outputs": [
        {
          "internalType": "string",
          "name": "",
          "type": "string"
        }
      ],
      "stateMutability": "view",
      "type": "function",
      "constant": true
    },
    {
      "inputs": [],
      "name": "owner",
      "outputs": [
        {
          "internalType": "address",
          "name": "",
          "type": "address"
        }
      ],
      "stateMutability": "view",
      "type": "function",
      "constant": true
    },
    {
      "inputs": [
        {
          "internalType": "uint256",
          "name": "tokenId",
          "type": "uint256"
        }
      ],
      "name": "ownerOf",
      "outputs": [
        {
          "internalType": "address",
          "name": "",
          "type": "address"
        }
      ],
      "stateMutability": "view",
      "type": "function",
      "constant": true
    },
    {
      "inputs": [],
      "name": "renounceOwnership",
      "outputs": [],
      "stateMutability": "nonpayable",
      "type": "function"
    },
    {
      "inputs": [
        {
          "internalType": "address",
          "name": "from",
          "type": "address"
        },
        {
          "internalType": "address",
          "name": "to",
          "type": "address"
        },
        {
          "internalType": "uint256",
          "name": "tokenId",
          "type": "uint256"
        }
      ],
      "name": "safeTransferFrom",
      "outputs": [],
      "stateMutability": "nonpayable",
      "type": "function"
    },
    {
      "inputs": [
        {
          "internalType": "address",
          "name": "from",
          "type": "address"
        },
        {
          "internalType": "address",
          "name": "to",
          "type": "address"
        },
        {
          "internalType": "uint256",
          "name": "tokenId",
          "type": "uint256"
        },
        {
          "internalType": "bytes",
          "name": "_data",
          "type": "bytes"
        }
      ],
      "name": "safeTransferFrom",
      "outputs": [],
      "stateMutability": "nonpayable",
      "type": "function"
    },
    {
      "inputs": [
        {
          "internalType": "address",
          "name": "operator",
          "type": "address"
        },
        {
          "internalType": "bool",
          "name": "approved",
          "type": "bool"
        }
      ],
      "name": "setApprovalForAll",
      "outputs": [],
      "stateMutability": "nonpayable",
      "type": "function"
    },
    {
      "inputs": [],
      "name": "symbol",
      "outputs": [
        {
          "internalType": "string",
          "name": "",
          "type": "string"
        }
      ],
      "stateMutability": "view",
      "type": "function",
      "constant": true
    },
    {
      "inputs": [
        {
          "internalType": "uint256",
          "name": "tokenId",
          "type": "uint256"
        }
      ],
      "name": "tokenURI",
      "outputs": [
        {
          "internalType": "string",
          "name": "",
          "type": "string"
        }
      ],
      "stateMutability": "view",
      "type": "function",
      "constant": true
    },
    {
      "inputs": [
        {
          "internalType": "address",
          "name": "from",
          "type": "address"
        },
        {
          "internalType": "address",
          "name": "to",
          "type": "address"
        },
        {
          "internalType": "uint256",
          "name": "tokenId",
          "type": "uint256"
        }
      ],
      "name": "transferFrom",
      "outputs": [],
      "stateMutability": "nonpayable",
      "type": "function"
    },
    {
      "inputs": [
        {
          "internalType": "address",
          "name": "newOwner",
          "type": "address"
        }
      ],
      "name": "transferOwnership",
      "outputs": [],
      "stateMutability": "nonpayable",
      "type": "function"
    },
    {
      "inputs": [
        {
          "internalType": "address",
          "name": "receiver",
          "type": "address"
        },
        {
          "internalType": "string",
          "name": "tokenURI",
          "type": "string"
        }
      ],
      "name": "createNFT",
      "outputs": [
        {
          "internalType": "uint256",
          "name": "",
          "type": "uint256"
        }
      ],
      "stateMutability": "nonpayable",
      "type": "function"
    },
    {
      "inputs": [
        {
          "internalType": "uint256",
          "name": "_tokenId",
          "type": "uint256"
        }
      ],
      "name": "registerAuction",
      "outputs": [],
      "stateMutability": "nonpayable",
      "type": "function"
    },
    {
      "inputs": [
        {
          "internalType": "uint256",
          "name": "_tokenId",
          "type": "uint256"
        }
      ],
      "name": "bid",
      "outputs": [
        {
          "internalType": "bool",
          "name": "",
          "type": "bool"
        }
      ],
      "stateMutability": "payable",
      "type": "function",
      "payable": true
    },
    {
      "inputs": [
        {
          "internalType": "uint256",
          "name": "_tokenId",
          "type": "uint256"
        }
      ],
      "name": "complete",
      "outputs": [],
      "stateMutability": "nonpayable",
      "type": "function"
    },
    {
      "inputs": [
        {
          "internalType": "bytes4",
          "name": "interfaceId",
          "type": "bytes4"
        }
      ],
      "name": "supportsInterface",
      "outputs": [
        {
          "internalType": "bool",
          "name": "",
          "type": "bool"
        }
      ],
      "stateMutability": "view",
      "type": "function",
      "constant": true
    },
    {
      "inputs": [
        {
          "internalType": "address",
          "name": "owner",
          "type": "address"
        },
        {
          "internalType": "uint256",
          "name": "index",
          "type": "uint256"
        }
      ],
      "name": "tokenOfOwnerByIndex",
      "outputs": [
        {
          "internalType": "uint256",
          "name": "",
          "type": "uint256"
        }
      ],
      "stateMutability": "view",
      "type": "function",
      "constant": true
    },
    {
      "inputs": [],
      "name": "totalSupply",
      "outputs": [
        {
          "internalType": "uint256",
          "name": "",
          "type": "uint256"
        }
      ],
      "stateMutability": "view",
      "type": "function",
      "constant": true
    },
    {
      "inputs": [
        {
          "internalType": "uint256",
          "name": "index",
          "type": "uint256"
        }
      ],
      "name": "tokenByIndex",
      "outputs": [
        {
          "internalType": "uint256",
          "name": "",
          "type": "uint256"
        }
      ],
      "stateMutability": "view",
      "type": "function",
      "constant": true
    }
  ],
  "bytecode": "0x60806040523480156200001157600080fd5b506040518060400160405280600e81526020017f53616c6f6e4465735265667573650000000000000000000000000000000000008152506040518060400160405280600381526020017f5344520000000000000000000000000000000000000000000000000000000000815250816000908051906020019062000096929190620001e7565b508060019080519060200190620000af929190620001e7565b505050620000d2620000c66200011960201b60201c565b6200012160201b60201c565b33600960006101000a81548173ffffffffffffffffffffffffffffffffffffffff021916908373ffffffffffffffffffffffffffffffffffffffff160217905550620002fc565b600033905090565b6000600760009054906101000a900473ffffffffffffffffffffffffffffffffffffffff16905081600760006101000a81548173ffffffffffffffffffffffffffffffffffffffff021916908373ffffffffffffffffffffffffffffffffffffffff1602179055508173ffffffffffffffffffffffffffffffffffffffff168173ffffffffffffffffffffffffffffffffffffffff167f8be0079c531659141344cd1fd0a4f28419497f9722a3daafe3b4186f6b6457e060405160405180910390a35050565b828054620001f59062000297565b90600052602060002090601f01602090048101928262000219576000855562000265565b82601f106200023457805160ff191683800117855562000265565b8280016001018555821562000265579182015b828111156200026457825182559160200191906001019062000247565b5b50905062000274919062000278565b5090565b5b808211156200029357600081600090555060010162000279565b5090565b60006002820490506001821680620002b057607f821691505b60208210811415620002c757620002c6620002cd565b5b50919050565b7f4e487b7100000000000000000000000000000000000000000000000000000000600052602260045260246000fd5b613f2d806200030c6000396000f3fe60806040526004361061014b5760003560e01c8063715018a6116100b6578063afe0026a1161006f578063afe0026a146104bb578063b88d4fde146104e4578063c87b56dd1461050d578063ce606ee01461054a578063e985e9c514610575578063f2fde38b146105b25761014b565b8063715018a6146103bf5780638da5cb5b146103d657806395d89b4114610401578063971d852f1461042c578063a22cb46514610455578063a56140331461047e5761014b565b80632f745c59116101085780632f745c591461027257806342842e0e146102af578063454a2ab3146102d85780634f6ccce7146103085780636352211e1461034557806370a08231146103825761014b565b806301ffc9a71461015057806306fdde031461018d578063081812fc146101b8578063095ea7b3146101f557806318160ddd1461021e57806323b872dd14610249575b600080fd5b34801561015c57600080fd5b5061017760048036038101906101729190612b5e565b6105db565b6040516101849190613065565b60405180910390f35b34801561019957600080fd5b506101a2610655565b6040516101af9190613080565b60405180910390f35b3480156101c457600080fd5b506101df60048036038101906101da9190612bb8565b6106e7565b6040516101ec9190612ffe565b60405180910390f35b34801561020157600080fd5b5061021c60048036038101906102179190612b1e565b61076c565b005b34801561022a57600080fd5b50610233610884565b6040516102409190613382565b60405180910390f35b34801561025557600080fd5b50610270600480360381019061026b91906129ac565b610891565b005b34801561027e57600080fd5b5061029960048036038101906102949190612b1e565b6108f1565b6040516102a69190613382565b60405180910390f35b3480156102bb57600080fd5b506102d660048036038101906102d191906129ac565b610996565b005b6102f260048036038101906102ed9190612bb8565b6109b6565b6040516102ff9190613065565b60405180910390f35b34801561031457600080fd5b5061032f600480360381019061032a9190612bb8565b610bbb565b60405161033c9190613382565b60405180910390f35b34801561035157600080fd5b5061036c60048036038101906103679190612bb8565b610c2c565b6040516103799190612ffe565b60405180910390f35b34801561038e57600080fd5b506103a960048036038101906103a4919061293f565b610cde565b6040516103b69190613382565b60405180910390f35b3480156103cb57600080fd5b506103d4610d96565b005b3480156103e257600080fd5b506103eb610e1e565b6040516103f89190612ffe565b60405180910390f35b34801561040d57600080fd5b50610416610e48565b6040516104239190613080565b60405180910390f35b34801561043857600080fd5b50610453600480360381019061044e9190612bb8565b610eda565b005b34801561046157600080fd5b5061047c60048036038101906104779190612a82565b6110e2565b005b34801561048a57600080fd5b506104a560048036038101906104a09190612ac2565b611263565b6040516104b29190613382565b60405180910390f35b3480156104c757600080fd5b506104e260048036038101906104dd9190612bb8565b61129b565b005b3480156104f057600080fd5b5061050b600480360381019061050691906129ff565b6112ca565b005b34801561051957600080fd5b50610534600480360381019061052f9190612bb8565b61132c565b6040516105419190613080565b60405180910390f35b34801561055657600080fd5b5061055f61147e565b60405161056c9190612ffe565b60405180910390f35b34801561058157600080fd5b5061059c6004803603810190610597919061296c565b6114a4565b6040516105a99190613065565b60405180910390f35b3480156105be57600080fd5b506105d960048036038101906105d4919061293f565b611538565b005b60007f780e9d63000000000000000000000000000000000000000000000000000000007bffffffffffffffffffffffffffffffffffffffffffffffffffffffff1916827bffffffffffffffffffffffffffffffffffffffffffffffffffffffff1916148061064e575061064d82611630565b5b9050919050565b606060008054610664906135d8565b80601f0160208091040260200160405190810160405280929190818152602001828054610690906135d8565b80156106dd5780601f106106b2576101008083540402835291602001916106dd565b820191906000526020600020905b8154815290600101906020018083116106c057829003601f168201915b5050505050905090565b60006106f282611712565b610731576040517f08c379a000000000000000000000000000000000000000000000000000000000815260040161072890613282565b60405180910390fd5b6004600083815260200190815260200160002060009054906101000a900473ffffffffffffffffffffffffffffffffffffffff169050919050565b600061077782610c2c565b90508073ffffffffffffffffffffffffffffffffffffffff168373ffffffffffffffffffffffffffffffffffffffff1614156107e8576040517f08c379a00000000000000000000000000000000000000000000000000000000081526004016107df90613302565b60405180910390fd5b8073ffffffffffffffffffffffffffffffffffffffff1661080761177e565b73ffffffffffffffffffffffffffffffffffffffff16148061083657506108358161083061177e565b6114a4565b5b610875576040517f08c379a000000000000000000000000000000000000000000000000000000000815260040161086c906131a2565b60405180910390fd5b61087f8383611786565b505050565b6000600d80549050905090565b6108a261089c61177e565b8261183f565b6108e1576040517f08c379a00000000000000000000000000000000000000000000000000000000081526004016108d890613322565b60405180910390fd5b6108ec83838361191d565b505050565b60006108fc83610cde565b821061093d576040517f08c379a0000000000000000000000000000000000000000000000000000000008152600401610934906130a2565b60405180910390fd5b600b60008473ffffffffffffffffffffffffffffffffffffffff1673ffffffffffffffffffffffffffffffffffffffff168152602001908152602001600020600083815260200190815260200160002054905092915050565b6109b1838383604051806020016040528060008152506112ca565b505050565b60003373ffffffffffffffffffffffffffffffffffffffff166109d883610c2c565b73ffffffffffffffffffffffffffffffffffffffff161415610a2f576040517f08c379a0000000000000000000000000000000000000000000000000000000008152600401610a2690613362565b60405180910390fd5b34600a60008481526020019081526020016000206000015410610a87576040517f08c379a0000000000000000000000000000000000000000000000000000000008152600401610a7e90613262565b60405180910390fd5b6000600a600084815260200190815260200160002060010160009054906101000a900473ffffffffffffffffffffffffffffffffffffffff1690508073ffffffffffffffffffffffffffffffffffffffff166108fc600a6000868152602001908152602001600020600001549081150290604051600060405180830381858888f19350505050158015610b1e573d6000803e3d6000fd5b5060405180604001604052803481526020013373ffffffffffffffffffffffffffffffffffffffff16815250600a60008581526020019081526020016000206000820151816000015560208201518160010160006101000a81548173ffffffffffffffffffffffffffffffffffffffff021916908373ffffffffffffffffffffffffffffffffffffffff1602179055509050506001915050919050565b6000610bc5610884565b8210610c06576040517f08c379a0000000000000000000000000000000000000000000000000000000008152600401610bfd90613342565b60405180910390fd5b600d8281548110610c1a57610c19613771565b5b90600052602060002001549050919050565b6000806002600084815260200190815260200160002060009054906101000a900473ffffffffffffffffffffffffffffffffffffffff169050600073ffffffffffffffffffffffffffffffffffffffff168173ffffffffffffffffffffffffffffffffffffffff161415610cd5576040517f08c379a0000000000000000000000000000000000000000000000000000000008152600401610ccc906131e2565b60405180910390fd5b80915050919050565b60008073ffffffffffffffffffffffffffffffffffffffff168273ffffffffffffffffffffffffffffffffffffffff161415610d4f576040517f08c379a0000000000000000000000000000000000000000000000000000000008152600401610d46906131c2565b60405180910390fd5b600360008373ffffffffffffffffffffffffffffffffffffffff1673ffffffffffffffffffffffffffffffffffffffff168152602001908152602001600020549050919050565b610d9e61177e565b73ffffffffffffffffffffffffffffffffffffffff16610dbc610e1e565b73ffffffffffffffffffffffffffffffffffffffff1614610e12576040517f08c379a0000000000000000000000000000000000000000000000000000000008152600401610e09906132a2565b60405180910390fd5b610e1c6000611b79565b565b6000600760009054906101000a900473ffffffffffffffffffffffffffffffffffffffff16905090565b606060018054610e57906135d8565b80601f0160208091040260200160405190810160405280929190818152602001828054610e83906135d8565b8015610ed05780601f10610ea557610100808354040283529160200191610ed0565b820191906000526020600020905b815481529060010190602001808311610eb357829003601f168201915b5050505050905090565b610ee261177e565b73ffffffffffffffffffffffffffffffffffffffff16610f00610e1e565b73ffffffffffffffffffffffffffffffffffffffff1614610f56576040517f08c379a0000000000000000000000000000000000000000000000000000000008152600401610f4d906132a2565b60405180910390fd5b6000610f6182610c2c565b9050600960009054906101000a900473ffffffffffffffffffffffffffffffffffffffff1673ffffffffffffffffffffffffffffffffffffffff16610fa5836106e7565b73ffffffffffffffffffffffffffffffffffffffff1614610ffb576040517f08c379a0000000000000000000000000000000000000000000000000000000008152600401610ff290613122565b60405180910390fd5b8073ffffffffffffffffffffffffffffffffffffffff166108fc600a6000858152602001908152602001600020600001549081150290604051600060405180830381858888f19350505050158015611057573d6000803e3d6000fd5b5061109981600a600085815260200190815260200160002060010160009054906101000a900473ffffffffffffffffffffffffffffffffffffffff1684610996565b600a60008381526020019081526020016000206000808201600090556001820160006101000a81549073ffffffffffffffffffffffffffffffffffffffff021916905550505050565b6110ea61177e565b73ffffffffffffffffffffffffffffffffffffffff168273ffffffffffffffffffffffffffffffffffffffff161415611158576040517f08c379a000000000000000000000000000000000000000000000000000000000815260040161114f90613162565b60405180910390fd5b806005600061116561177e565b73ffffffffffffffffffffffffffffffffffffffff1673ffffffffffffffffffffffffffffffffffffffff16815260200190815260200160002060008473ffffffffffffffffffffffffffffffffffffffff1673ffffffffffffffffffffffffffffffffffffffff16815260200190815260200160002060006101000a81548160ff0219169083151502179055508173ffffffffffffffffffffffffffffffffffffffff1661121261177e565b73ffffffffffffffffffffffffffffffffffffffff167f17307eab39ab6107e8899845ad3d59bd9653f200f220920489ca2b5937696c31836040516112579190613065565b60405180910390a35050565b600061126f6008611c3f565b600061127b6008611c55565b90506112878482611c63565b6112918184611e31565b8091505092915050565b6112c7600960009054906101000a900473ffffffffffffffffffffffffffffffffffffffff168261076c565b50565b6112db6112d561177e565b8361183f565b61131a576040517f08c379a000000000000000000000000000000000000000000000000000000000815260040161131190613322565b60405180910390fd5b61132684848484611ea5565b50505050565b606061133782611712565b611376576040517f08c379a000000000000000000000000000000000000000000000000000000000815260040161136d90613242565b60405180910390fd5b6000600660008481526020019081526020016000208054611396906135d8565b80601f01602080910402602001604051908101604052809291908181526020018280546113c2906135d8565b801561140f5780601f106113e45761010080835404028352916020019161140f565b820191906000526020600020905b8154815290600101906020018083116113f257829003601f168201915b505050505090506000611420611f01565b9050600081511415611436578192505050611479565b60008251111561146b578082604051602001611453929190612fda565b60405160208183030381529060405292505050611479565b61147484611f18565b925050505b919050565b600960009054906101000a900473ffffffffffffffffffffffffffffffffffffffff1681565b6000600560008473ffffffffffffffffffffffffffffffffffffffff1673ffffffffffffffffffffffffffffffffffffffff16815260200190815260200160002060008373ffffffffffffffffffffffffffffffffffffffff1673ffffffffffffffffffffffffffffffffffffffff16815260200190815260200160002060009054906101000a900460ff16905092915050565b61154061177e565b73ffffffffffffffffffffffffffffffffffffffff1661155e610e1e565b73ffffffffffffffffffffffffffffffffffffffff16146115b4576040517f08c379a00000000000000000000000000000000000000000000000000000000081526004016115ab906132a2565b60405180910390fd5b600073ffffffffffffffffffffffffffffffffffffffff168173ffffffffffffffffffffffffffffffffffffffff161415611624576040517f08c379a000000000000000000000000000000000000000000000000000000000815260040161161b906130e2565b60405180910390fd5b61162d81611b79565b50565b60007f80ac58cd000000000000000000000000000000000000000000000000000000007bffffffffffffffffffffffffffffffffffffffffffffffffffffffff1916827bffffffffffffffffffffffffffffffffffffffffffffffffffffffff191614806116fb57507f5b5e139f000000000000000000000000000000000000000000000000000000007bffffffffffffffffffffffffffffffffffffffffffffffffffffffff1916827bffffffffffffffffffffffffffffffffffffffffffffffffffffffff1916145b8061170b575061170a82611fbf565b5b9050919050565b60008073ffffffffffffffffffffffffffffffffffffffff166002600084815260200190815260200160002060009054906101000a900473ffffffffffffffffffffffffffffffffffffffff1673ffffffffffffffffffffffffffffffffffffffff1614159050919050565b600033905090565b816004600083815260200190815260200160002060006101000a81548173ffffffffffffffffffffffffffffffffffffffff021916908373ffffffffffffffffffffffffffffffffffffffff160217905550808273ffffffffffffffffffffffffffffffffffffffff166117f983610c2c565b73ffffffffffffffffffffffffffffffffffffffff167f8c5be1e5ebec7d5bd14f71427d1e84f3dd0314c0f7b2291e5b200ac8c7c3b92560405160405180910390a45050565b600061184a82611712565b611889576040517f08c379a000000000000000000000000000000000000000000000000000000000815260040161188090613182565b60405180910390fd5b600061189483610c2c565b90508073ffffffffffffffffffffffffffffffffffffffff168473ffffffffffffffffffffffffffffffffffffffff16148061190357508373ffffffffffffffffffffffffffffffffffffffff166118eb846106e7565b73ffffffffffffffffffffffffffffffffffffffff16145b80611914575061191381856114a4565b5b91505092915050565b8273ffffffffffffffffffffffffffffffffffffffff1661193d82610c2c565b73ffffffffffffffffffffffffffffffffffffffff1614611993576040517f08c379a000000000000000000000000000000000000000000000000000000000815260040161198a906132c2565b60405180910390fd5b600073ffffffffffffffffffffffffffffffffffffffff168273ffffffffffffffffffffffffffffffffffffffff161415611a03576040517f08c379a00000000000000000000000000000000000000000000000000000000081526004016119fa90613142565b60405180910390fd5b611a0e838383612029565b611a19600082611786565b6001600360008573ffffffffffffffffffffffffffffffffffffffff1673ffffffffffffffffffffffffffffffffffffffff1681526020019081526020016000206000828254611a6991906134ee565b925050819055506001600360008473ffffffffffffffffffffffffffffffffffffffff1673ffffffffffffffffffffffffffffffffffffffff1681526020019081526020016000206000828254611ac09190613467565b92505081905550816002600083815260200190815260200160002060006101000a81548173ffffffffffffffffffffffffffffffffffffffff021916908373ffffffffffffffffffffffffffffffffffffffff160217905550808273ffffffffffffffffffffffffffffffffffffffff168473ffffffffffffffffffffffffffffffffffffffff167fddf252ad1be2c89b69c2b068fc378daa952ba7f163c4a11628f55a4df523b3ef60405160405180910390a4505050565b6000600760009054906101000a900473ffffffffffffffffffffffffffffffffffffffff16905081600760006101000a81548173ffffffffffffffffffffffffffffffffffffffff021916908373ffffffffffffffffffffffffffffffffffffffff1602179055508173ffffffffffffffffffffffffffffffffffffffff168173ffffffffffffffffffffffffffffffffffffffff167f8be0079c531659141344cd1fd0a4f28419497f9722a3daafe3b4186f6b6457e060405160405180910390a35050565b6001816000016000828254019250508190555050565b600081600001549050919050565b600073ffffffffffffffffffffffffffffffffffffffff168273ffffffffffffffffffffffffffffffffffffffff161415611cd3576040517f08c379a0000000000000000000000000000000000000000000000000000000008152600401611cca90613222565b60405180910390fd5b611cdc81611712565b15611d1c576040517f08c379a0000000000000000000000000000000000000000000000000000000008152600401611d1390613102565b60405180910390fd5b611d2860008383612029565b6001600360008473ffffffffffffffffffffffffffffffffffffffff1673ffffffffffffffffffffffffffffffffffffffff1681526020019081526020016000206000828254611d789190613467565b92505081905550816002600083815260200190815260200160002060006101000a81548173ffffffffffffffffffffffffffffffffffffffff021916908373ffffffffffffffffffffffffffffffffffffffff160217905550808273ffffffffffffffffffffffffffffffffffffffff16600073ffffffffffffffffffffffffffffffffffffffff167fddf252ad1be2c89b69c2b068fc378daa952ba7f163c4a11628f55a4df523b3ef60405160405180910390a45050565b611e3a82611712565b611e79576040517f08c379a0000000000000000000000000000000000000000000000000000000008152600401611e7090613202565b60405180910390fd5b80600660008481526020019081526020016000209080519060200190611ea0929190612753565b505050565b611eb084848461191d565b611ebc8484848461213d565b611efb576040517f08c379a0000000000000000000000000000000000000000000000000000000008152600401611ef2906130c2565b60405180910390fd5b50505050565b606060405180602001604052806000815250905090565b6060611f2382611712565b611f62576040517f08c379a0000000000000000000000000000000000000000000000000000000008152600401611f59906132e2565b60405180910390fd5b6000611f6c611f01565b90506000815111611f8c5760405180602001604052806000815250611fb7565b80611f96846122d4565b604051602001611fa7929190612fda565b6040516020818303038152906040525b915050919050565b60007f01ffc9a7000000000000000000000000000000000000000000000000000000007bffffffffffffffffffffffffffffffffffffffffffffffffffffffff1916827bffffffffffffffffffffffffffffffffffffffffffffffffffffffff1916149050919050565b612034838383612435565b600073ffffffffffffffffffffffffffffffffffffffff168373ffffffffffffffffffffffffffffffffffffffff161415612077576120728161243a565b6120b6565b8173ffffffffffffffffffffffffffffffffffffffff168373ffffffffffffffffffffffffffffffffffffffff16146120b5576120b48382612483565b5b5b600073ffffffffffffffffffffffffffffffffffffffff168273ffffffffffffffffffffffffffffffffffffffff1614156120f9576120f4816125f0565b612138565b8273ffffffffffffffffffffffffffffffffffffffff168273ffffffffffffffffffffffffffffffffffffffff16146121375761213682826126c1565b5b5b505050565b600061215e8473ffffffffffffffffffffffffffffffffffffffff16612740565b156122c7578373ffffffffffffffffffffffffffffffffffffffff1663150b7a0261218761177e565b8786866040518563ffffffff1660e01b81526004016121a99493929190613019565b602060405180830381600087803b1580156121c357600080fd5b505af19250505080156121f457506040513d601f19601f820116820180604052508101906121f19190612b8b565b60015b612277573d8060008114612224576040519150601f19603f3d011682016040523d82523d6000602084013e612229565b606091505b5060008151141561226f576040517f08c379a0000000000000000000000000000000000000000000000000000000008152600401612266906130c2565b60405180910390fd5b805181602001fd5b63150b7a0260e01b7bffffffffffffffffffffffffffffffffffffffffffffffffffffffff1916817bffffffffffffffffffffffffffffffffffffffffffffffffffffffff1916149150506122cc565b600190505b949350505050565b6060600082141561231c576040518060400160405280600181526020017f30000000000000000000000000000000000000000000000000000000000000008152509050612430565b600082905060005b6000821461234e5780806123379061363b565b915050600a8261234791906134bd565b9150612324565b60008167ffffffffffffffff81111561236a576123696137a0565b5b6040519080825280601f01601f19166020018201604052801561239c5781602001600182028036833780820191505090505b5090505b60008514612429576001826123b591906134ee565b9150600a856123c49190613684565b60306123d09190613467565b60f81b8183815181106123e6576123e5613771565b5b60200101907effffffffffffffffffffffffffffffffffffffffffffffffffffffffffffff1916908160001a905350600a8561242291906134bd565b94506123a0565b8093505050505b919050565b505050565b600d80549050600e600083815260200190815260200160002081905550600d81908060018154018082558091505060019003906000526020600020016000909190919091505550565b6000600161249084610cde565b61249a91906134ee565b90506000600c600084815260200190815260200160002054905081811461257f576000600b60008673ffffffffffffffffffffffffffffffffffffffff1673ffffffffffffffffffffffffffffffffffffffff168152602001908152602001600020600084815260200190815260200160002054905080600b60008773ffffffffffffffffffffffffffffffffffffffff1673ffffffffffffffffffffffffffffffffffffffff16815260200190815260200160002060008481526020019081526020016000208190555081600c600083815260200190815260200160002081905550505b600c600084815260200190815260200160002060009055600b60008573ffffffffffffffffffffffffffffffffffffffff1673ffffffffffffffffffffffffffffffffffffffff16815260200190815260200160002060008381526020019081526020016000206000905550505050565b60006001600d8054905061260491906134ee565b90506000600e60008481526020019081526020016000205490506000600d838154811061263457612633613771565b5b9060005260206000200154905080600d838154811061265657612655613771565b5b906000526020600020018190555081600e600083815260200190815260200160002081905550600e600085815260200190815260200160002060009055600d8054806126a5576126a4613742565b5b6001900381819060005260206000200160009055905550505050565b60006126cc83610cde565b905081600b60008573ffffffffffffffffffffffffffffffffffffffff1673ffffffffffffffffffffffffffffffffffffffff16815260200190815260200160002060008381526020019081526020016000208190555080600c600084815260200190815260200160002081905550505050565b600080823b905060008111915050919050565b82805461275f906135d8565b90600052602060002090601f01602090048101928261278157600085556127c8565b82601f1061279a57805160ff19168380011785556127c8565b828001600101855582156127c8579182015b828111156127c75782518255916020019190600101906127ac565b5b5090506127d591906127d9565b5090565b5b808211156127f25760008160009055506001016127da565b5090565b6000612809612804846133c2565b61339d565b905082815260208101848484011115612825576128246137d4565b5b612830848285613596565b509392505050565b600061284b612846846133f3565b61339d565b905082815260208101848484011115612867576128666137d4565b5b612872848285613596565b509392505050565b60008135905061288981613e9b565b92915050565b60008135905061289e81613eb2565b92915050565b6000813590506128b381613ec9565b92915050565b6000815190506128c881613ec9565b92915050565b600082601f8301126128e3576128e26137cf565b5b81356128f38482602086016127f6565b91505092915050565b600082601f830112612911576129106137cf565b5b8135612921848260208601612838565b91505092915050565b60008135905061293981613ee0565b92915050565b600060208284031215612955576129546137de565b5b60006129638482850161287a565b91505092915050565b60008060408385031215612983576129826137de565b5b60006129918582860161287a565b92505060206129a28582860161287a565b9150509250929050565b6000806000606084860312156129c5576129c46137de565b5b60006129d38682870161287a565b93505060206129e48682870161287a565b92505060406129f58682870161292a565b9150509250925092565b60008060008060808587031215612a1957612a186137de565b5b6000612a278782880161287a565b9450506020612a388782880161287a565b9350506040612a498782880161292a565b925050606085013567ffffffffffffffff811115612a6a57612a696137d9565b5b612a76878288016128ce565b91505092959194509250565b60008060408385031215612a9957612a986137de565b5b6000612aa78582860161287a565b9250506020612ab88582860161288f565b9150509250929050565b60008060408385031215612ad957612ad86137de565b5b6000612ae78582860161287a565b925050602083013567ffffffffffffffff811115612b0857612b076137d9565b5b612b14858286016128fc565b9150509250929050565b60008060408385031215612b3557612b346137de565b5b6000612b438582860161287a565b9250506020612b548582860161292a565b9150509250929050565b600060208284031215612b7457612b736137de565b5b6000612b82848285016128a4565b91505092915050565b600060208284031215612ba157612ba06137de565b5b6000612baf848285016128b9565b91505092915050565b600060208284031215612bce57612bcd6137de565b5b6000612bdc8482850161292a565b91505092915050565b612bee81613522565b82525050565b612bfd81613534565b82525050565b6000612c0e82613424565b612c18818561343a565b9350612c288185602086016135a5565b612c31816137e3565b840191505092915050565b6000612c478261342f565b612c51818561344b565b9350612c618185602086016135a5565b612c6a816137e3565b840191505092915050565b6000612c808261342f565b612c8a818561345c565b9350612c9a8185602086016135a5565b80840191505092915050565b6000612cb3602b8361344b565b9150612cbe826137f4565b604082019050919050565b6000612cd660328361344b565b9150612ce182613843565b604082019050919050565b6000612cf960268361344b565b9150612d0482613892565b604082019050919050565b6000612d1c601c8361344b565b9150612d27826138e1565b602082019050919050565b6000612d3f60368361344b565b9150612d4a8261390a565b604082019050919050565b6000612d6260248361344b565b9150612d6d82613959565b604082019050919050565b6000612d8560198361344b565b9150612d90826139a8565b602082019050919050565b6000612da8602c8361344b565b9150612db3826139d1565b604082019050919050565b6000612dcb60388361344b565b9150612dd682613a20565b604082019050919050565b6000612dee602a8361344b565b9150612df982613a6f565b604082019050919050565b6000612e1160298361344b565b9150612e1c82613abe565b604082019050919050565b6000612e34602e8361344b565b9150612e3f82613b0d565b604082019050919050565b6000612e5760208361344b565b9150612e6282613b5c565b602082019050919050565b6000612e7a60318361344b565b9150612e8582613b85565b604082019050919050565b6000612e9d603a8361344b565b9150612ea882613bd4565b604082019050919050565b6000612ec0602c8361344b565b9150612ecb82613c23565b604082019050919050565b6000612ee360208361344b565b9150612eee82613c72565b602082019050919050565b6000612f0660298361344b565b9150612f1182613c9b565b604082019050919050565b6000612f29602f8361344b565b9150612f3482613cea565b604082019050919050565b6000612f4c60218361344b565b9150612f5782613d39565b604082019050919050565b6000612f6f60318361344b565b9150612f7a82613d88565b604082019050919050565b6000612f92602c8361344b565b9150612f9d82613dd7565b604082019050919050565b6000612fb5604a8361344b565b9150612fc082613e26565b606082019050919050565b612fd48161358c565b82525050565b6000612fe68285612c75565b9150612ff28284612c75565b91508190509392505050565b60006020820190506130136000830184612be5565b92915050565b600060808201905061302e6000830187612be5565b61303b6020830186612be5565b6130486040830185612fcb565b818103606083015261305a8184612c03565b905095945050505050565b600060208201905061307a6000830184612bf4565b92915050565b6000602082019050818103600083015261309a8184612c3c565b905092915050565b600060208201905081810360008301526130bb81612ca6565b9050919050565b600060208201905081810360008301526130db81612cc9565b9050919050565b600060208201905081810360008301526130fb81612cec565b9050919050565b6000602082019050818103600083015261311b81612d0f565b9050919050565b6000602082019050818103600083015261313b81612d32565b9050919050565b6000602082019050818103600083015261315b81612d55565b9050919050565b6000602082019050818103600083015261317b81612d78565b9050919050565b6000602082019050818103600083015261319b81612d9b565b9050919050565b600060208201905081810360008301526131bb81612dbe565b9050919050565b600060208201905081810360008301526131db81612de1565b9050919050565b600060208201905081810360008301526131fb81612e04565b9050919050565b6000602082019050818103600083015261321b81612e27565b9050919050565b6000602082019050818103600083015261323b81612e4a565b9050919050565b6000602082019050818103600083015261325b81612e6d565b9050919050565b6000602082019050818103600083015261327b81612e90565b9050919050565b6000602082019050818103600083015261329b81612eb3565b9050919050565b600060208201905081810360008301526132bb81612ed6565b9050919050565b600060208201905081810360008301526132db81612ef9565b9050919050565b600060208201905081810360008301526132fb81612f1c565b9050919050565b6000602082019050818103600083015261331b81612f3f565b9050919050565b6000602082019050818103600083015261333b81612f62565b9050919050565b6000602082019050818103600083015261335b81612f85565b9050919050565b6000602082019050818103600083015261337b81612fa8565b9050919050565b60006020820190506133976000830184612fcb565b92915050565b60006133a76133b8565b90506133b3828261360a565b919050565b6000604051905090565b600067ffffffffffffffff8211156133dd576133dc6137a0565b5b6133e6826137e3565b9050602081019050919050565b600067ffffffffffffffff82111561340e5761340d6137a0565b5b613417826137e3565b9050602081019050919050565b600081519050919050565b600081519050919050565b600082825260208201905092915050565b600082825260208201905092915050565b600081905092915050565b60006134728261358c565b915061347d8361358c565b9250827fffffffffffffffffffffffffffffffffffffffffffffffffffffffffffffffff038211156134b2576134b16136b5565b5b828201905092915050565b60006134c88261358c565b91506134d38361358c565b9250826134e3576134e26136e4565b5b828204905092915050565b60006134f98261358c565b91506135048361358c565b925082821015613517576135166136b5565b5b828203905092915050565b600061352d8261356c565b9050919050565b60008115159050919050565b60007fffffffff0000000000000000000000000000000000000000000000000000000082169050919050565b600073ffffffffffffffffffffffffffffffffffffffff82169050919050565b6000819050919050565b82818337600083830152505050565b60005b838110156135c35780820151818401526020810190506135a8565b838111156135d2576000848401525b50505050565b600060028204905060018216806135f057607f821691505b6020821081141561360457613603613713565b5b50919050565b613613826137e3565b810181811067ffffffffffffffff82111715613632576136316137a0565b5b80604052505050565b60006136468261358c565b91507fffffffffffffffffffffffffffffffffffffffffffffffffffffffffffffffff821415613679576136786136b5565b5b600182019050919050565b600061368f8261358c565b915061369a8361358c565b9250826136aa576136a96136e4565b5b828206905092915050565b7f4e487b7100000000000000000000000000000000000000000000000000000000600052601160045260246000fd5b7f4e487b7100000000000000000000000000000000000000000000000000000000600052601260045260246000fd5b7f4e487b7100000000000000000000000000000000000000000000000000000000600052602260045260246000fd5b7f4e487b7100000000000000000000000000000000000000000000000000000000600052603160045260246000fd5b7f4e487b7100000000000000000000000000000000000000000000000000000000600052603260045260246000fd5b7f4e487b7100000000000000000000000000000000000000000000000000000000600052604160045260246000fd5b600080fd5b600080fd5b600080fd5b600080fd5b6000601f19601f8301169050919050565b7f455243373231456e756d657261626c653a206f776e657220696e646578206f7560008201527f74206f6620626f756e6473000000000000000000000000000000000000000000602082015250565b7f4552433732313a207472616e7366657220746f206e6f6e20455243373231526560008201527f63656976657220696d706c656d656e7465720000000000000000000000000000602082015250565b7f4f776e61626c653a206e6577206f776e657220697320746865207a65726f206160008201527f6464726573730000000000000000000000000000000000000000000000000000602082015250565b7f4552433732313a20746f6b656e20616c7265616479206d696e74656400000000600082015250565b7f7b27636f6465273a27333030272c276d657373616765273a2743616e6e6f742060008201527f6265207472616e7366657272656420546f6b656e277d00000000000000000000602082015250565b7f4552433732313a207472616e7366657220746f20746865207a65726f2061646460008201527f7265737300000000000000000000000000000000000000000000000000000000602082015250565b7f4552433732313a20617070726f766520746f2063616c6c657200000000000000600082015250565b7f4552433732313a206f70657261746f7220717565727920666f72206e6f6e657860008201527f697374656e7420746f6b656e0000000000000000000000000000000000000000602082015250565b7f4552433732313a20617070726f76652063616c6c6572206973206e6f74206f7760008201527f6e6572206e6f7220617070726f76656420666f7220616c6c0000000000000000602082015250565b7f4552433732313a2062616c616e636520717565727920666f7220746865207a6560008201527f726f206164647265737300000000000000000000000000000000000000000000602082015250565b7f4552433732313a206f776e657220717565727920666f72206e6f6e657869737460008201527f656e7420746f6b656e0000000000000000000000000000000000000000000000602082015250565b7f45524337323155524953746f726167653a2055524920736574206f66206e6f6e60008201527f6578697374656e7420746f6b656e000000000000000000000000000000000000602082015250565b7f4552433732313a206d696e7420746f20746865207a65726f2061646472657373600082015250565b7f45524337323155524953746f726167653a2055524920717565727920666f722060008201527f6e6f6e6578697374656e7420746f6b656e000000000000000000000000000000602082015250565b7f7b27636f6465273a27323030272c276d657373616765273a2743616e6e6f742060008201527f6265206269642061742061206c6f7765722070726963652e277d000000000000602082015250565b7f4552433732313a20617070726f76656420717565727920666f72206e6f6e657860008201527f697374656e7420746f6b656e0000000000000000000000000000000000000000602082015250565b7f4f776e61626c653a2063616c6c6572206973206e6f7420746865206f776e6572600082015250565b7f4552433732313a207472616e73666572206f6620746f6b656e2074686174206960008201527f73206e6f74206f776e0000000000000000000000000000000000000000000000602082015250565b7f4552433732314d657461646174613a2055524920717565727920666f72206e6f60008201527f6e6578697374656e7420746f6b656e0000000000000000000000000000000000602082015250565b7f4552433732313a20617070726f76616c20746f2063757272656e74206f776e6560008201527f7200000000000000000000000000000000000000000000000000000000000000602082015250565b7f4552433732313a207472616e736665722063616c6c6572206973206e6f74206f60008201527f776e6572206e6f7220617070726f766564000000000000000000000000000000602082015250565b7f455243373231456e756d657261626c653a20676c6f62616c20696e646578206f60008201527f7574206f6620626f756e64730000000000000000000000000000000000000000602082015250565b7f7b27636f6465273a27313030272c276d657373616765273a27546f6b656e206f60008201527f776e6572732063616e6e6f7420706172746963697061746520696e207468652060208201527f61756374696f6e2e277d00000000000000000000000000000000000000000000604082015250565b613ea481613522565b8114613eaf57600080fd5b50565b613ebb81613534565b8114613ec657600080fd5b50565b613ed281613540565b8114613edd57600080fd5b50565b613ee98161358c565b8114613ef457600080fd5b5056fea2646970667358221220c3c69a79e6f9b181cda348161a9cded5534015c1bcb953f3a1f58365c77961bc64736f6c63430008060033",
  "immutableReferences": {},
  "source": "// SPDX-License-Identifier: MIT\npragma solidity ^0.8.0;\n\nimport \"@openzeppelin/contracts/token/ERC721/extensions/ERC721URIStorage.sol\";\nimport \"@openzeppelin/contracts/token/ERC721/extensions/IERC721Enumerable.sol\";\nimport \"@openzeppelin/contracts/utils/Counters.sol\";\nimport \"@openzeppelin/contracts/access/Ownable.sol\";\n\ncontract SalonDesRefuse is ERC721URIStorage, IERC721Enumerable, Ownable {\n    using Counters for Counters.Counter;\n    Counters.Counter private _tokenIds;\n    address public contractOwner;\n\n    mapping(uint => Bid) lastBid;\n\n    struct Bid {\n        uint price;\n        address bidder;\n    }\n\n    // Mapping from owner to list of owned token IDs\n    mapping(address => mapping(uint256 => uint256)) private _ownedTokens;\n\n    // Mapping from token ID to index of the owner tokens list\n    mapping(uint256 => uint256) private _ownedTokensIndex;\n\n    // Array with all token ids, used for enumeration\n    uint256[] private _allTokens;\n\n    // Mapping from token id to position in the allTokens array\n    mapping(uint256 => uint256) private _allTokensIndex;\n\n\n    constructor() ERC721(\"SalonDesRefuse\", \"SDR\") public {\n        contractOwner = msg.sender;\n    }\n\n    function createNFT(address receiver, string memory tokenURI) public returns (uint256){\n        _tokenIds.increment();\n\n        uint256 newItemId = _tokenIds.current();\n        _mint(receiver, newItemId);\n        _setTokenURI(newItemId, tokenURI);\n\n        return newItemId;\n    }\n\n    function registerAuction(uint _tokenId) public {\n        approve(contractOwner, _tokenId);\n    }\n\n    function bid(uint _tokenId) public payable returns (bool) {\n        require(ownerOf(_tokenId) != msg.sender, \"{'code':'100','message':'Token owners cannot participate in the auction.'}\");\n        require(lastBid[_tokenId].price < msg.value, \"{'code':'200','message':'Cannot be bid at a lower price.'}\");\n\n        address prevBidder = lastBid[_tokenId].bidder;\n        payable(prevBidder).transfer(lastBid[_tokenId].price);\n        lastBid[_tokenId] = Bid(msg.value, msg.sender);\n\n        return true;\n    }\n\n    function complete(uint _tokenId) public onlyOwner {\n        address tokenOwner = ownerOf(_tokenId);\n\n        require(getApproved(_tokenId) == contractOwner, \"{'code':'300','message':'Cannot be transferred Token'}\");\n\n        payable(tokenOwner).transfer(lastBid[_tokenId].price);\n        safeTransferFrom(tokenOwner, lastBid[_tokenId].bidder, _tokenId);\n        delete lastBid[_tokenId];\n    }\n\n\n    /**\n     * @dev See {IERC165-supportsInterface}.\n     */\n    function supportsInterface(bytes4 interfaceId) public view virtual override(IERC165, ERC721) returns (bool) {\n        return interfaceId == type(IERC721Enumerable).interfaceId || super.supportsInterface(interfaceId);\n    }\n\n    /**\n     * @dev See {IERC721Enumerable-tokenOfOwnerByIndex}.\n     */\n    function tokenOfOwnerByIndex(address owner, uint256 index) public view virtual override returns (uint256) {\n        require(index < ERC721.balanceOf(owner), \"ERC721Enumerable: owner index out of bounds\");\n        return _ownedTokens[owner][index];\n    }\n\n    /**\n     * @dev See {IERC721Enumerable-totalSupply}.\n     */\n    function totalSupply() public view virtual override returns (uint256) {\n        return _allTokens.length;\n    }\n\n    /**\n     * @dev See {IERC721Enumerable-tokenByIndex}.\n     */\n    function tokenByIndex(uint256 index) public view virtual override returns (uint256) {\n        require(index < SalonDesRefuse.totalSupply(), \"ERC721Enumerable: global index out of bounds\");\n        return _allTokens[index];\n    }\n\n    /**\n     * @dev Hook that is called before any token transfer. This includes minting\n     * and burning.\n     *\n     * Calling conditions:\n     *\n     * - When `from` and `to` are both non-zero, ``from``'s `tokenId` will be\n     * transferred to `to`.\n     * - When `from` is zero, `tokenId` will be minted for `to`.\n     * - When `to` is zero, ``from``'s `tokenId` will be burned.\n     * - `from` cannot be the zero address.\n     * - `to` cannot be the zero address.\n     *\n     * To learn more about hooks, head to xref:ROOT:extending-contracts.adoc#using-hooks[Using Hooks].\n     */\n    function _beforeTokenTransfer(\n        address from,\n        address to,\n        uint256 tokenId\n    ) internal virtual override {\n        super._beforeTokenTransfer(from, to, tokenId);\n\n        if (from == address(0)) {\n            _addTokenToAllTokensEnumeration(tokenId);\n        } else if (from != to) {\n            _removeTokenFromOwnerEnumeration(from, tokenId);\n        }\n        if (to == address(0)) {\n            _removeTokenFromAllTokensEnumeration(tokenId);\n        } else if (to != from) {\n            _addTokenToOwnerEnumeration(to, tokenId);\n        }\n    }\n\n    /**\n     * @dev Private function to add a token to this extension's ownership-tracking data structures.\n     * @param to address representing the new owner of the given token ID\n     * @param tokenId uint256 ID of the token to be added to the tokens list of the given address\n     */\n    function _addTokenToOwnerEnumeration(address to, uint256 tokenId) private {\n        uint256 length = ERC721.balanceOf(to);\n        _ownedTokens[to][length] = tokenId;\n        _ownedTokensIndex[tokenId] = length;\n    }\n\n    /**\n     * @dev Private function to add a token to this extension's token tracking data structures.\n     * @param tokenId uint256 ID of the token to be added to the tokens list\n     */\n    function _addTokenToAllTokensEnumeration(uint256 tokenId) private {\n        _allTokensIndex[tokenId] = _allTokens.length;\n        _allTokens.push(tokenId);\n    }\n\n    /**\n     * @dev Private function to remove a token from this extension's ownership-tracking data structures. Note that\n     * while the token is not assigned a new owner, the `_ownedTokensIndex` mapping is _not_ updated: this allows for\n     * gas optimizations e.g. when performing a transfer operation (avoiding double writes).\n     * This has O(1) time complexity, but alters the order of the _ownedTokens array.\n     * @param from address representing the previous owner of the given token ID\n     * @param tokenId uint256 ID of the token to be removed from the tokens list of the given address\n     */\n    function _removeTokenFromOwnerEnumeration(address from, uint256 tokenId) private {\n        // To prevent a gap in from's tokens array, we store the last token in the index of the token to delete, and\n        // then delete the last slot (swap and pop).\n\n        uint256 lastTokenIndex = ERC721.balanceOf(from) - 1;\n        uint256 tokenIndex = _ownedTokensIndex[tokenId];\n\n        // When the token to delete is the last token, the swap operation is unnecessary\n        if (tokenIndex != lastTokenIndex) {\n            uint256 lastTokenId = _ownedTokens[from][lastTokenIndex];\n\n            _ownedTokens[from][tokenIndex] = lastTokenId; // Move the last token to the slot of the to-delete token\n            _ownedTokensIndex[lastTokenId] = tokenIndex; // Update the moved token's index\n        }\n\n        // This also deletes the contents at the last position of the array\n        delete _ownedTokensIndex[tokenId];\n        delete _ownedTokens[from][lastTokenIndex];\n    }\n\n    /**\n     * @dev Private function to remove a token from this extension's token tracking data structures.\n     * This has O(1) time complexity, but alters the order of the _allTokens array.\n     * @param tokenId uint256 ID of the token to be removed from the tokens list\n     */\n    function _removeTokenFromAllTokensEnumeration(uint256 tokenId) private {\n        // To prevent a gap in the tokens array, we store the last token in the index of the token to delete, and\n        // then delete the last slot (swap and pop).\n\n        uint256 lastTokenIndex = _allTokens.length - 1;\n        uint256 tokenIndex = _allTokensIndex[tokenId];\n\n        // When the token to delete is the last token, the swap operation is unnecessary. However, since this occurs so\n        // rarely (when the last minted token is burnt) that we still do the swap here to avoid the gas cost of adding\n        // an 'if' statement (like in _removeTokenFromOwnerEnumeration)\n        uint256 lastTokenId = _allTokens[lastTokenIndex];\n\n        _allTokens[tokenIndex] = lastTokenId; // Move the last token to the slot of the to-delete token\n        _allTokensIndex[lastTokenId] = tokenIndex; // Update the moved token's index\n\n        // This also deletes the contents at the last position of the array\n        delete _allTokensIndex[tokenId];\n        _allTokens.pop();\n    }\n}",
  "sourcePath": "/Users/jeongjunlee/Projects/web14-salondesrefuses/nft/contracts/SalonDesRefuse.sol",
  "compiler": {
    "name": "solc",
    "version": "0.8.6+commit.11564f7e.Emscripten.clang"
  },
  "schemaVersion": "3.4.3",
  "updatedAt": "2021-11-29T14:33:29.256Z",
  "networkType": "ethereum",
  "devdoc": {
    "kind": "dev",
    "methods": {
      "approve(address,uint256)": {
        "details": "See {IERC721-approve}."
      },
      "balanceOf(address)": {
        "details": "See {IERC721-balanceOf}."
      },
      "getApproved(uint256)": {
        "details": "See {IERC721-getApproved}."
      },
      "isApprovedForAll(address,address)": {
        "details": "See {IERC721-isApprovedForAll}."
      },
      "name()": {
        "details": "See {IERC721Metadata-name}."
      },
      "owner()": {
        "details": "Returns the address of the current owner."
      },
      "ownerOf(uint256)": {
        "details": "See {IERC721-ownerOf}."
      },
      "renounceOwnership()": {
        "details": "Leaves the contract without owner. It will not be possible to call `onlyOwner` functions anymore. Can only be called by the current owner. NOTE: Renouncing ownership will leave the contract without an owner, thereby removing any functionality that is only available to the owner."
      },
      "safeTransferFrom(address,address,uint256)": {
        "details": "See {IERC721-safeTransferFrom}."
      },
      "safeTransferFrom(address,address,uint256,bytes)": {
        "details": "See {IERC721-safeTransferFrom}."
      },
      "setApprovalForAll(address,bool)": {
        "details": "See {IERC721-setApprovalForAll}."
      },
      "supportsInterface(bytes4)": {
        "details": "See {IERC165-supportsInterface}."
      },
      "symbol()": {
        "details": "See {IERC721Metadata-symbol}."
      },
      "tokenByIndex(uint256)": {
        "details": "See {IERC721Enumerable-tokenByIndex}."
      },
      "tokenOfOwnerByIndex(address,uint256)": {
        "details": "See {IERC721Enumerable-tokenOfOwnerByIndex}."
      },
      "tokenURI(uint256)": {
        "details": "See {IERC721Metadata-tokenURI}."
      },
      "totalSupply()": {
        "details": "See {IERC721Enumerable-totalSupply}."
      },
      "transferFrom(address,address,uint256)": {
        "details": "See {IERC721-transferFrom}."
      },
      "transferOwnership(address)": {
        "details": "Transfers ownership of the contract to a new account (`newOwner`). Can only be called by the current owner."
      }
    },
    "version": 1
  },
  "userdoc": {
    "kind": "user",
    "methods": {},
    "version": 1
  }
}