{
  "contractName": "SalonDesRefuse",
  "abi": [
    {
      "inputs": [],
      "stateMutability": "nonpayable",
      "type": "constructor"
    },
    {
      "anonymous": false,
      "inputs": [
        {
          "indexed": true,
          "internalType": "address",
          "name": "owner",
          "type": "address"
        },
        {
          "indexed": true,
          "internalType": "address",
          "name": "approved",
          "type": "address"
        },
        {
          "indexed": true,
          "internalType": "uint256",
          "name": "tokenId",
          "type": "uint256"
        }
      ],
      "name": "Approval",
      "type": "event"
    },
    {
      "anonymous": false,
      "inputs": [
        {
          "indexed": true,
          "internalType": "address",
          "name": "owner",
          "type": "address"
        },
        {
          "indexed": true,
          "internalType": "address",
          "name": "operator",
          "type": "address"
        },
        {
          "indexed": false,
          "internalType": "bool",
          "name": "approved",
          "type": "bool"
        }
      ],
      "name": "ApprovalForAll",
      "type": "event"
    },
    {
      "anonymous": false,
      "inputs": [
        {
          "indexed": true,
          "internalType": "address",
          "name": "previousOwner",
          "type": "address"
        },
        {
          "indexed": true,
          "internalType": "address",
          "name": "newOwner",
          "type": "address"
        }
      ],
      "name": "OwnershipTransferred",
      "type": "event"
    },
    {
      "anonymous": false,
      "inputs": [
        {
          "indexed": true,
          "internalType": "address",
          "name": "from",
          "type": "address"
        },
        {
          "indexed": true,
          "internalType": "address",
          "name": "to",
          "type": "address"
        },
        {
          "indexed": true,
          "internalType": "uint256",
          "name": "tokenId",
          "type": "uint256"
        }
      ],
      "name": "Transfer",
      "type": "event"
    },
    {
      "inputs": [
        {
          "internalType": "address",
          "name": "to",
          "type": "address"
        },
        {
          "internalType": "uint256",
          "name": "tokenId",
          "type": "uint256"
        }
      ],
      "name": "approve",
      "outputs": [],
      "stateMutability": "nonpayable",
      "type": "function"
    },
    {
      "inputs": [
        {
          "internalType": "address",
          "name": "owner",
          "type": "address"
        }
      ],
      "name": "balanceOf",
      "outputs": [
        {
          "internalType": "uint256",
          "name": "",
          "type": "uint256"
        }
      ],
      "stateMutability": "view",
      "type": "function",
      "constant": true
    },
    {
      "inputs": [],
      "name": "contractOwner",
      "outputs": [
        {
          "internalType": "address",
          "name": "",
          "type": "address"
        }
      ],
      "stateMutability": "view",
      "type": "function",
      "constant": true
    },
    {
      "inputs": [
        {
          "internalType": "uint256",
          "name": "tokenId",
          "type": "uint256"
        }
      ],
      "name": "getApproved",
      "outputs": [
        {
          "internalType": "address",
          "name": "",
          "type": "address"
        }
      ],
      "stateMutability": "view",
      "type": "function",
      "constant": true
    },
    {
      "inputs": [
        {
          "internalType": "address",
          "name": "owner",
          "type": "address"
        },
        {
          "internalType": "address",
          "name": "operator",
          "type": "address"
        }
      ],
      "name": "isApprovedForAll",
      "outputs": [
        {
          "internalType": "bool",
          "name": "",
          "type": "bool"
        }
      ],
      "stateMutability": "view",
      "type": "function",
      "constant": true
    },
    {
      "inputs": [],
      "name": "name",
      "outputs": [
        {
          "internalType": "string",
          "name": "",
          "type": "string"
        }
      ],
      "stateMutability": "view",
      "type": "function",
      "constant": true
    },
    {
      "inputs": [],
      "name": "owner",
      "outputs": [
        {
          "internalType": "address",
          "name": "",
          "type": "address"
        }
      ],
      "stateMutability": "view",
      "type": "function",
      "constant": true
    },
    {
      "inputs": [
        {
          "internalType": "uint256",
          "name": "tokenId",
          "type": "uint256"
        }
      ],
      "name": "ownerOf",
      "outputs": [
        {
          "internalType": "address",
          "name": "",
          "type": "address"
        }
      ],
      "stateMutability": "view",
      "type": "function",
      "constant": true
    },
    {
      "inputs": [],
      "name": "renounceOwnership",
      "outputs": [],
      "stateMutability": "nonpayable",
      "type": "function"
    },
    {
      "inputs": [
        {
          "internalType": "address",
          "name": "from",
          "type": "address"
        },
        {
          "internalType": "address",
          "name": "to",
          "type": "address"
        },
        {
          "internalType": "uint256",
          "name": "tokenId",
          "type": "uint256"
        }
      ],
      "name": "safeTransferFrom",
      "outputs": [],
      "stateMutability": "nonpayable",
      "type": "function"
    },
    {
      "inputs": [
        {
          "internalType": "address",
          "name": "from",
          "type": "address"
        },
        {
          "internalType": "address",
          "name": "to",
          "type": "address"
        },
        {
          "internalType": "uint256",
          "name": "tokenId",
          "type": "uint256"
        },
        {
          "internalType": "bytes",
          "name": "_data",
          "type": "bytes"
        }
      ],
      "name": "safeTransferFrom",
      "outputs": [],
      "stateMutability": "nonpayable",
      "type": "function"
    },
    {
      "inputs": [
        {
          "internalType": "address",
          "name": "operator",
          "type": "address"
        },
        {
          "internalType": "bool",
          "name": "approved",
          "type": "bool"
        }
      ],
      "name": "setApprovalForAll",
      "outputs": [],
      "stateMutability": "nonpayable",
      "type": "function"
    },
    {
      "inputs": [],
      "name": "symbol",
      "outputs": [
        {
          "internalType": "string",
          "name": "",
          "type": "string"
        }
      ],
      "stateMutability": "view",
      "type": "function",
      "constant": true
    },
    {
      "inputs": [
        {
          "internalType": "uint256",
          "name": "tokenId",
          "type": "uint256"
        }
      ],
      "name": "tokenURI",
      "outputs": [
        {
          "internalType": "string",
          "name": "",
          "type": "string"
        }
      ],
      "stateMutability": "view",
      "type": "function",
      "constant": true
    },
    {
      "inputs": [
        {
          "internalType": "address",
          "name": "from",
          "type": "address"
        },
        {
          "internalType": "address",
          "name": "to",
          "type": "address"
        },
        {
          "internalType": "uint256",
          "name": "tokenId",
          "type": "uint256"
        }
      ],
      "name": "transferFrom",
      "outputs": [],
      "stateMutability": "nonpayable",
      "type": "function"
    },
    {
      "inputs": [
        {
          "internalType": "address",
          "name": "newOwner",
          "type": "address"
        }
      ],
      "name": "transferOwnership",
      "outputs": [],
      "stateMutability": "nonpayable",
      "type": "function"
    },
    {
      "inputs": [
        {
          "internalType": "address",
          "name": "receiver",
          "type": "address"
        },
        {
          "internalType": "string",
          "name": "tokenURI",
          "type": "string"
        }
      ],
      "name": "createNFT",
      "outputs": [
        {
          "internalType": "uint256",
          "name": "",
          "type": "uint256"
        }
      ],
      "stateMutability": "nonpayable",
      "type": "function"
    },
    {
      "inputs": [
        {
          "internalType": "uint256",
          "name": "_tokenId",
          "type": "uint256"
        }
      ],
      "name": "registerAuction",
      "outputs": [],
      "stateMutability": "nonpayable",
      "type": "function"
    },
    {
      "inputs": [
        {
          "internalType": "uint256",
          "name": "_tokenId",
          "type": "uint256"
        }
      ],
      "name": "bid",
      "outputs": [
        {
          "internalType": "bool",
          "name": "",
          "type": "bool"
        }
      ],
      "stateMutability": "payable",
      "type": "function",
      "payable": true
    },
    {
      "inputs": [
        {
          "internalType": "uint256",
          "name": "_tokenId",
          "type": "uint256"
        }
      ],
      "name": "complete",
      "outputs": [],
      "stateMutability": "nonpayable",
      "type": "function"
    },
    {
      "inputs": [
        {
          "internalType": "bytes4",
          "name": "interfaceId",
          "type": "bytes4"
        }
      ],
      "name": "supportsInterface",
      "outputs": [
        {
          "internalType": "bool",
          "name": "",
          "type": "bool"
        }
      ],
      "stateMutability": "view",
      "type": "function",
      "constant": true
    },
    {
      "inputs": [
        {
          "internalType": "address",
          "name": "owner",
          "type": "address"
        },
        {
          "internalType": "uint256",
          "name": "index",
          "type": "uint256"
        }
      ],
      "name": "tokenOfOwnerByIndex",
      "outputs": [
        {
          "internalType": "uint256",
          "name": "",
          "type": "uint256"
        }
      ],
      "stateMutability": "view",
      "type": "function",
      "constant": true
    },
    {
      "inputs": [],
      "name": "totalSupply",
      "outputs": [
        {
          "internalType": "uint256",
          "name": "",
          "type": "uint256"
        }
      ],
      "stateMutability": "view",
      "type": "function",
      "constant": true
    },
    {
      "inputs": [
        {
          "internalType": "uint256",
          "name": "index",
          "type": "uint256"
        }
      ],
      "name": "tokenByIndex",
      "outputs": [
        {
          "internalType": "uint256",
          "name": "",
          "type": "uint256"
        }
      ],
      "stateMutability": "view",
      "type": "function",
      "constant": true
    }
  ],
  "bytecode": "0x60806040523480156200001157600080fd5b506040518060400160405280600e81526020017f53616c6f6e4465735265667573650000000000000000000000000000000000008152506040518060400160405280600381526020017f5344520000000000000000000000000000000000000000000000000000000000815250816000908051906020019062000096929190620001e7565b508060019080519060200190620000af929190620001e7565b505050620000d2620000c66200011960201b60201c565b6200012160201b60201c565b33600960006101000a81548173ffffffffffffffffffffffffffffffffffffffff021916908373ffffffffffffffffffffffffffffffffffffffff160217905550620002fc565b600033905090565b6000600760009054906101000a900473ffffffffffffffffffffffffffffffffffffffff16905081600760006101000a81548173ffffffffffffffffffffffffffffffffffffffff021916908373ffffffffffffffffffffffffffffffffffffffff1602179055508173ffffffffffffffffffffffffffffffffffffffff168173ffffffffffffffffffffffffffffffffffffffff167f8be0079c531659141344cd1fd0a4f28419497f9722a3daafe3b4186f6b6457e060405160405180910390a35050565b828054620001f59062000297565b90600052602060002090601f01602090048101928262000219576000855562000265565b82601f106200023457805160ff191683800117855562000265565b8280016001018555821562000265579182015b828111156200026457825182559160200191906001019062000247565b5b50905062000274919062000278565b5090565b5b808211156200029357600081600090555060010162000279565b5090565b60006002820490506001821680620002b057607f821691505b60208210811415620002c757620002c6620002cd565b5b50919050565b7f4e487b7100000000000000000000000000000000000000000000000000000000600052602260045260246000fd5b613caf806200030c6000396000f3fe60806040526004361061014b5760003560e01c8063715018a6116100b6578063afe0026a1161006f578063afe0026a146104bb578063b88d4fde146104e4578063c87b56dd1461050d578063ce606ee01461054a578063e985e9c514610575578063f2fde38b146105b25761014b565b8063715018a6146103bf5780638da5cb5b146103d657806395d89b4114610401578063971d852f1461042c578063a22cb46514610455578063a56140331461047e5761014b565b80632f745c59116101085780632f745c591461027257806342842e0e146102af578063454a2ab3146102d85780634f6ccce7146103085780636352211e1461034557806370a08231146103825761014b565b806301ffc9a71461015057806306fdde031461018d578063081812fc146101b8578063095ea7b3146101f557806318160ddd1461021e57806323b872dd14610249575b600080fd5b34801561015c57600080fd5b5061017760048036038101906101729190612abc565b6105db565b6040516101849190612f5a565b60405180910390f35b34801561019957600080fd5b506101a2610655565b6040516101af9190612f75565b60405180910390f35b3480156101c457600080fd5b506101df60048036038101906101da9190612b16565b6106e7565b6040516101ec9190612ef3565b60405180910390f35b34801561020157600080fd5b5061021c60048036038101906102179190612a7c565b61076c565b005b34801561022a57600080fd5b50610233610884565b6040516102409190613217565b60405180910390f35b34801561025557600080fd5b50610270600480360381019061026b919061290a565b610891565b005b34801561027e57600080fd5b5061029960048036038101906102949190612a7c565b6108f1565b6040516102a69190613217565b60405180910390f35b3480156102bb57600080fd5b506102d660048036038101906102d1919061290a565b610996565b005b6102f260048036038101906102ed9190612b16565b6109b6565b6040516102ff9190612f5a565b60405180910390f35b34801561031457600080fd5b5061032f600480360381019061032a9190612b16565b610b4f565b60405161033c9190613217565b60405180910390f35b34801561035157600080fd5b5061036c60048036038101906103679190612b16565b610bc0565b6040516103799190612ef3565b60405180910390f35b34801561038e57600080fd5b506103a960048036038101906103a4919061289d565b610c72565b6040516103b69190613217565b60405180910390f35b3480156103cb57600080fd5b506103d4610d2a565b005b3480156103e257600080fd5b506103eb610db2565b6040516103f89190612ef3565b60405180910390f35b34801561040d57600080fd5b50610416610ddc565b6040516104239190612f75565b60405180910390f35b34801561043857600080fd5b50610453600480360381019061044e9190612b16565b610e6e565b005b34801561046157600080fd5b5061047c600480360381019061047791906129e0565b611040565b005b34801561048a57600080fd5b506104a560048036038101906104a09190612a20565b6111c1565b6040516104b29190613217565b60405180910390f35b3480156104c757600080fd5b506104e260048036038101906104dd9190612b16565b6111f9565b005b3480156104f057600080fd5b5061050b6004803603810190610506919061295d565b611228565b005b34801561051957600080fd5b50610534600480360381019061052f9190612b16565b61128a565b6040516105419190612f75565b60405180910390f35b34801561055657600080fd5b5061055f6113dc565b60405161056c9190612ef3565b60405180910390f35b34801561058157600080fd5b5061059c600480360381019061059791906128ca565b611402565b6040516105a99190612f5a565b60405180910390f35b3480156105be57600080fd5b506105d960048036038101906105d4919061289d565b611496565b005b60007f780e9d63000000000000000000000000000000000000000000000000000000007bffffffffffffffffffffffffffffffffffffffffffffffffffffffff1916827bffffffffffffffffffffffffffffffffffffffffffffffffffffffff1916148061064e575061064d8261158e565b5b9050919050565b6060600080546106649061346d565b80601f01602080910402602001604051908101604052809291908181526020018280546106909061346d565b80156106dd5780601f106106b2576101008083540402835291602001916106dd565b820191906000526020600020905b8154815290600101906020018083116106c057829003601f168201915b5050505050905090565b60006106f282611670565b610731576040517f08c379a000000000000000000000000000000000000000000000000000000000815260040161072890613137565b60405180910390fd5b6004600083815260200190815260200160002060009054906101000a900473ffffffffffffffffffffffffffffffffffffffff169050919050565b600061077782610bc0565b90508073ffffffffffffffffffffffffffffffffffffffff168373ffffffffffffffffffffffffffffffffffffffff1614156107e8576040517f08c379a00000000000000000000000000000000000000000000000000000000081526004016107df906131b7565b60405180910390fd5b8073ffffffffffffffffffffffffffffffffffffffff166108076116dc565b73ffffffffffffffffffffffffffffffffffffffff1614806108365750610835816108306116dc565b611402565b5b610875576040517f08c379a000000000000000000000000000000000000000000000000000000000815260040161086c90613077565b60405180910390fd5b61087f83836116e4565b505050565b6000600d80549050905090565b6108a261089c6116dc565b8261179d565b6108e1576040517f08c379a00000000000000000000000000000000000000000000000000000000081526004016108d8906131d7565b60405180910390fd5b6108ec83838361187b565b505050565b60006108fc83610c72565b821061093d576040517f08c379a000000000000000000000000000000000000000000000000000000000815260040161093490612f97565b60405180910390fd5b600b60008473ffffffffffffffffffffffffffffffffffffffff1673ffffffffffffffffffffffffffffffffffffffff168152602001908152602001600020600083815260200190815260200160002054905092915050565b6109b183838360405180602001604052806000815250611228565b505050565b60003373ffffffffffffffffffffffffffffffffffffffff166109d883610bc0565b73ffffffffffffffffffffffffffffffffffffffff1614156109f957600080fd5b34600a60008481526020019081526020016000206000015410610a1b57600080fd5b6000600a600084815260200190815260200160002060010160009054906101000a900473ffffffffffffffffffffffffffffffffffffffff1690508073ffffffffffffffffffffffffffffffffffffffff166108fc600a6000868152602001908152602001600020600001549081150290604051600060405180830381858888f19350505050158015610ab2573d6000803e3d6000fd5b5060405180604001604052803481526020013373ffffffffffffffffffffffffffffffffffffffff16815250600a60008581526020019081526020016000206000820151816000015560208201518160010160006101000a81548173ffffffffffffffffffffffffffffffffffffffff021916908373ffffffffffffffffffffffffffffffffffffffff1602179055509050506001915050919050565b6000610b59610884565b8210610b9a576040517f08c379a0000000000000000000000000000000000000000000000000000000008152600401610b91906131f7565b60405180910390fd5b600d8281548110610bae57610bad613606565b5b90600052602060002001549050919050565b6000806002600084815260200190815260200160002060009054906101000a900473ffffffffffffffffffffffffffffffffffffffff169050600073ffffffffffffffffffffffffffffffffffffffff168173ffffffffffffffffffffffffffffffffffffffff161415610c69576040517f08c379a0000000000000000000000000000000000000000000000000000000008152600401610c60906130b7565b60405180910390fd5b80915050919050565b60008073ffffffffffffffffffffffffffffffffffffffff168273ffffffffffffffffffffffffffffffffffffffff161415610ce3576040517f08c379a0000000000000000000000000000000000000000000000000000000008152600401610cda90613097565b60405180910390fd5b600360008373ffffffffffffffffffffffffffffffffffffffff1673ffffffffffffffffffffffffffffffffffffffff168152602001908152602001600020549050919050565b610d326116dc565b73ffffffffffffffffffffffffffffffffffffffff16610d50610db2565b73ffffffffffffffffffffffffffffffffffffffff1614610da6576040517f08c379a0000000000000000000000000000000000000000000000000000000008152600401610d9d90613157565b60405180910390fd5b610db06000611ad7565b565b6000600760009054906101000a900473ffffffffffffffffffffffffffffffffffffffff16905090565b606060018054610deb9061346d565b80601f0160208091040260200160405190810160405280929190818152602001828054610e179061346d565b8015610e645780601f10610e3957610100808354040283529160200191610e64565b820191906000526020600020905b815481529060010190602001808311610e4757829003601f168201915b5050505050905090565b610e766116dc565b73ffffffffffffffffffffffffffffffffffffffff16610e94610db2565b73ffffffffffffffffffffffffffffffffffffffff1614610eea576040517f08c379a0000000000000000000000000000000000000000000000000000000008152600401610ee190613157565b60405180910390fd5b6000610ef582610bc0565b9050600960009054906101000a900473ffffffffffffffffffffffffffffffffffffffff1673ffffffffffffffffffffffffffffffffffffffff16610f39836106e7565b73ffffffffffffffffffffffffffffffffffffffff1614610f5957600080fd5b8073ffffffffffffffffffffffffffffffffffffffff166108fc600a6000858152602001908152602001600020600001549081150290604051600060405180830381858888f19350505050158015610fb5573d6000803e3d6000fd5b50610ff781600a600085815260200190815260200160002060010160009054906101000a900473ffffffffffffffffffffffffffffffffffffffff1684610996565b600a60008381526020019081526020016000206000808201600090556001820160006101000a81549073ffffffffffffffffffffffffffffffffffffffff021916905550505050565b6110486116dc565b73ffffffffffffffffffffffffffffffffffffffff168273ffffffffffffffffffffffffffffffffffffffff1614156110b6576040517f08c379a00000000000000000000000000000000000000000000000000000000081526004016110ad90613037565b60405180910390fd5b80600560006110c36116dc565b73ffffffffffffffffffffffffffffffffffffffff1673ffffffffffffffffffffffffffffffffffffffff16815260200190815260200160002060008473ffffffffffffffffffffffffffffffffffffffff1673ffffffffffffffffffffffffffffffffffffffff16815260200190815260200160002060006101000a81548160ff0219169083151502179055508173ffffffffffffffffffffffffffffffffffffffff166111706116dc565b73ffffffffffffffffffffffffffffffffffffffff167f17307eab39ab6107e8899845ad3d59bd9653f200f220920489ca2b5937696c31836040516111b59190612f5a565b60405180910390a35050565b60006111cd6008611b9d565b60006111d96008611bb3565b90506111e58482611bc1565b6111ef8184611d8f565b8091505092915050565b611225600960009054906101000a900473ffffffffffffffffffffffffffffffffffffffff168261076c565b50565b6112396112336116dc565b8361179d565b611278576040517f08c379a000000000000000000000000000000000000000000000000000000000815260040161126f906131d7565b60405180910390fd5b61128484848484611e03565b50505050565b606061129582611670565b6112d4576040517f08c379a00000000000000000000000000000000000000000000000000000000081526004016112cb90613117565b60405180910390fd5b60006006600084815260200190815260200160002080546112f49061346d565b80601f01602080910402602001604051908101604052809291908181526020018280546113209061346d565b801561136d5780601f106113425761010080835404028352916020019161136d565b820191906000526020600020905b81548152906001019060200180831161135057829003601f168201915b50505050509050600061137e611e5f565b90506000815114156113945781925050506113d7565b6000825111156113c95780826040516020016113b1929190612ecf565b604051602081830303815290604052925050506113d7565b6113d284611e76565b925050505b919050565b600960009054906101000a900473ffffffffffffffffffffffffffffffffffffffff1681565b6000600560008473ffffffffffffffffffffffffffffffffffffffff1673ffffffffffffffffffffffffffffffffffffffff16815260200190815260200160002060008373ffffffffffffffffffffffffffffffffffffffff1673ffffffffffffffffffffffffffffffffffffffff16815260200190815260200160002060009054906101000a900460ff16905092915050565b61149e6116dc565b73ffffffffffffffffffffffffffffffffffffffff166114bc610db2565b73ffffffffffffffffffffffffffffffffffffffff1614611512576040517f08c379a000000000000000000000000000000000000000000000000000000000815260040161150990613157565b60405180910390fd5b600073ffffffffffffffffffffffffffffffffffffffff168173ffffffffffffffffffffffffffffffffffffffff161415611582576040517f08c379a000000000000000000000000000000000000000000000000000000000815260040161157990612fd7565b60405180910390fd5b61158b81611ad7565b50565b60007f80ac58cd000000000000000000000000000000000000000000000000000000007bffffffffffffffffffffffffffffffffffffffffffffffffffffffff1916827bffffffffffffffffffffffffffffffffffffffffffffffffffffffff1916148061165957507f5b5e139f000000000000000000000000000000000000000000000000000000007bffffffffffffffffffffffffffffffffffffffffffffffffffffffff1916827bffffffffffffffffffffffffffffffffffffffffffffffffffffffff1916145b80611669575061166882611f1d565b5b9050919050565b60008073ffffffffffffffffffffffffffffffffffffffff166002600084815260200190815260200160002060009054906101000a900473ffffffffffffffffffffffffffffffffffffffff1673ffffffffffffffffffffffffffffffffffffffff1614159050919050565b600033905090565b816004600083815260200190815260200160002060006101000a81548173ffffffffffffffffffffffffffffffffffffffff021916908373ffffffffffffffffffffffffffffffffffffffff160217905550808273ffffffffffffffffffffffffffffffffffffffff1661175783610bc0565b73ffffffffffffffffffffffffffffffffffffffff167f8c5be1e5ebec7d5bd14f71427d1e84f3dd0314c0f7b2291e5b200ac8c7c3b92560405160405180910390a45050565b60006117a882611670565b6117e7576040517f08c379a00000000000000000000000000000000000000000000000000000000081526004016117de90613057565b60405180910390fd5b60006117f283610bc0565b90508073ffffffffffffffffffffffffffffffffffffffff168473ffffffffffffffffffffffffffffffffffffffff16148061186157508373ffffffffffffffffffffffffffffffffffffffff16611849846106e7565b73ffffffffffffffffffffffffffffffffffffffff16145b8061187257506118718185611402565b5b91505092915050565b8273ffffffffffffffffffffffffffffffffffffffff1661189b82610bc0565b73ffffffffffffffffffffffffffffffffffffffff16146118f1576040517f08c379a00000000000000000000000000000000000000000000000000000000081526004016118e890613177565b60405180910390fd5b600073ffffffffffffffffffffffffffffffffffffffff168273ffffffffffffffffffffffffffffffffffffffff161415611961576040517f08c379a000000000000000000000000000000000000000000000000000000000815260040161195890613017565b60405180910390fd5b61196c838383611f87565b6119776000826116e4565b6001600360008573ffffffffffffffffffffffffffffffffffffffff1673ffffffffffffffffffffffffffffffffffffffff16815260200190815260200160002060008282546119c79190613383565b925050819055506001600360008473ffffffffffffffffffffffffffffffffffffffff1673ffffffffffffffffffffffffffffffffffffffff1681526020019081526020016000206000828254611a1e91906132fc565b92505081905550816002600083815260200190815260200160002060006101000a81548173ffffffffffffffffffffffffffffffffffffffff021916908373ffffffffffffffffffffffffffffffffffffffff160217905550808273ffffffffffffffffffffffffffffffffffffffff168473ffffffffffffffffffffffffffffffffffffffff167fddf252ad1be2c89b69c2b068fc378daa952ba7f163c4a11628f55a4df523b3ef60405160405180910390a4505050565b6000600760009054906101000a900473ffffffffffffffffffffffffffffffffffffffff16905081600760006101000a81548173ffffffffffffffffffffffffffffffffffffffff021916908373ffffffffffffffffffffffffffffffffffffffff1602179055508173ffffffffffffffffffffffffffffffffffffffff168173ffffffffffffffffffffffffffffffffffffffff167f8be0079c531659141344cd1fd0a4f28419497f9722a3daafe3b4186f6b6457e060405160405180910390a35050565b6001816000016000828254019250508190555050565b600081600001549050919050565b600073ffffffffffffffffffffffffffffffffffffffff168273ffffffffffffffffffffffffffffffffffffffff161415611c31576040517f08c379a0000000000000000000000000000000000000000000000000000000008152600401611c28906130f7565b60405180910390fd5b611c3a81611670565b15611c7a576040517f08c379a0000000000000000000000000000000000000000000000000000000008152600401611c7190612ff7565b60405180910390fd5b611c8660008383611f87565b6001600360008473ffffffffffffffffffffffffffffffffffffffff1673ffffffffffffffffffffffffffffffffffffffff1681526020019081526020016000206000828254611cd691906132fc565b92505081905550816002600083815260200190815260200160002060006101000a81548173ffffffffffffffffffffffffffffffffffffffff021916908373ffffffffffffffffffffffffffffffffffffffff160217905550808273ffffffffffffffffffffffffffffffffffffffff16600073ffffffffffffffffffffffffffffffffffffffff167fddf252ad1be2c89b69c2b068fc378daa952ba7f163c4a11628f55a4df523b3ef60405160405180910390a45050565b611d9882611670565b611dd7576040517f08c379a0000000000000000000000000000000000000000000000000000000008152600401611dce906130d7565b60405180910390fd5b80600660008481526020019081526020016000209080519060200190611dfe9291906126b1565b505050565b611e0e84848461187b565b611e1a8484848461209b565b611e59576040517f08c379a0000000000000000000000000000000000000000000000000000000008152600401611e5090612fb7565b60405180910390fd5b50505050565b606060405180602001604052806000815250905090565b6060611e8182611670565b611ec0576040517f08c379a0000000000000000000000000000000000000000000000000000000008152600401611eb790613197565b60405180910390fd5b6000611eca611e5f565b90506000815111611eea5760405180602001604052806000815250611f15565b80611ef484612232565b604051602001611f05929190612ecf565b6040516020818303038152906040525b915050919050565b60007f01ffc9a7000000000000000000000000000000000000000000000000000000007bffffffffffffffffffffffffffffffffffffffffffffffffffffffff1916827bffffffffffffffffffffffffffffffffffffffffffffffffffffffff1916149050919050565b611f92838383612393565b600073ffffffffffffffffffffffffffffffffffffffff168373ffffffffffffffffffffffffffffffffffffffff161415611fd557611fd081612398565b612014565b8173ffffffffffffffffffffffffffffffffffffffff168373ffffffffffffffffffffffffffffffffffffffff16146120135761201283826123e1565b5b5b600073ffffffffffffffffffffffffffffffffffffffff168273ffffffffffffffffffffffffffffffffffffffff161415612057576120528161254e565b612096565b8273ffffffffffffffffffffffffffffffffffffffff168273ffffffffffffffffffffffffffffffffffffffff161461209557612094828261261f565b5b5b505050565b60006120bc8473ffffffffffffffffffffffffffffffffffffffff1661269e565b15612225578373ffffffffffffffffffffffffffffffffffffffff1663150b7a026120e56116dc565b8786866040518563ffffffff1660e01b81526004016121079493929190612f0e565b602060405180830381600087803b15801561212157600080fd5b505af192505050801561215257506040513d601f19601f8201168201806040525081019061214f9190612ae9565b60015b6121d5573d8060008114612182576040519150601f19603f3d011682016040523d82523d6000602084013e612187565b606091505b506000815114156121cd576040517f08c379a00000000000000000000000000000000000000000000000000000000081526004016121c490612fb7565b60405180910390fd5b805181602001fd5b63150b7a0260e01b7bffffffffffffffffffffffffffffffffffffffffffffffffffffffff1916817bffffffffffffffffffffffffffffffffffffffffffffffffffffffff19161491505061222a565b600190505b949350505050565b6060600082141561227a576040518060400160405280600181526020017f3000000000000000000000000000000000000000000000000000000000000000815250905061238e565b600082905060005b600082146122ac578080612295906134d0565b915050600a826122a59190613352565b9150612282565b60008167ffffffffffffffff8111156122c8576122c7613635565b5b6040519080825280601f01601f1916602001820160405280156122fa5781602001600182028036833780820191505090505b5090505b60008514612387576001826123139190613383565b9150600a856123229190613519565b603061232e91906132fc565b60f81b81838151811061234457612343613606565b5b60200101907effffffffffffffffffffffffffffffffffffffffffffffffffffffffffffff1916908160001a905350600a856123809190613352565b94506122fe565b8093505050505b919050565b505050565b600d80549050600e600083815260200190815260200160002081905550600d81908060018154018082558091505060019003906000526020600020016000909190919091505550565b600060016123ee84610c72565b6123f89190613383565b90506000600c60008481526020019081526020016000205490508181146124dd576000600b60008673ffffffffffffffffffffffffffffffffffffffff1673ffffffffffffffffffffffffffffffffffffffff168152602001908152602001600020600084815260200190815260200160002054905080600b60008773ffffffffffffffffffffffffffffffffffffffff1673ffffffffffffffffffffffffffffffffffffffff16815260200190815260200160002060008481526020019081526020016000208190555081600c600083815260200190815260200160002081905550505b600c600084815260200190815260200160002060009055600b60008573ffffffffffffffffffffffffffffffffffffffff1673ffffffffffffffffffffffffffffffffffffffff16815260200190815260200160002060008381526020019081526020016000206000905550505050565b60006001600d805490506125629190613383565b90506000600e60008481526020019081526020016000205490506000600d838154811061259257612591613606565b5b9060005260206000200154905080600d83815481106125b4576125b3613606565b5b906000526020600020018190555081600e600083815260200190815260200160002081905550600e600085815260200190815260200160002060009055600d805480612603576126026135d7565b5b6001900381819060005260206000200160009055905550505050565b600061262a83610c72565b905081600b60008573ffffffffffffffffffffffffffffffffffffffff1673ffffffffffffffffffffffffffffffffffffffff16815260200190815260200160002060008381526020019081526020016000208190555080600c600084815260200190815260200160002081905550505050565b600080823b905060008111915050919050565b8280546126bd9061346d565b90600052602060002090601f0160209004810192826126df5760008555612726565b82601f106126f857805160ff1916838001178555612726565b82800160010185558215612726579182015b8281111561272557825182559160200191906001019061270a565b5b5090506127339190612737565b5090565b5b80821115612750576000816000905550600101612738565b5090565b600061276761276284613257565b613232565b90508281526020810184848401111561278357612782613669565b5b61278e84828561342b565b509392505050565b60006127a96127a484613288565b613232565b9050828152602081018484840111156127c5576127c4613669565b5b6127d084828561342b565b509392505050565b6000813590506127e781613c1d565b92915050565b6000813590506127fc81613c34565b92915050565b60008135905061281181613c4b565b92915050565b60008151905061282681613c4b565b92915050565b600082601f83011261284157612840613664565b5b8135612851848260208601612754565b91505092915050565b600082601f83011261286f5761286e613664565b5b813561287f848260208601612796565b91505092915050565b60008135905061289781613c62565b92915050565b6000602082840312156128b3576128b2613673565b5b60006128c1848285016127d8565b91505092915050565b600080604083850312156128e1576128e0613673565b5b60006128ef858286016127d8565b9250506020612900858286016127d8565b9150509250929050565b60008060006060848603121561292357612922613673565b5b6000612931868287016127d8565b9350506020612942868287016127d8565b925050604061295386828701612888565b9150509250925092565b6000806000806080858703121561297757612976613673565b5b6000612985878288016127d8565b9450506020612996878288016127d8565b93505060406129a787828801612888565b925050606085013567ffffffffffffffff8111156129c8576129c761366e565b5b6129d48782880161282c565b91505092959194509250565b600080604083850312156129f7576129f6613673565b5b6000612a05858286016127d8565b9250506020612a16858286016127ed565b9150509250929050565b60008060408385031215612a3757612a36613673565b5b6000612a45858286016127d8565b925050602083013567ffffffffffffffff811115612a6657612a6561366e565b5b612a728582860161285a565b9150509250929050565b60008060408385031215612a9357612a92613673565b5b6000612aa1858286016127d8565b9250506020612ab285828601612888565b9150509250929050565b600060208284031215612ad257612ad1613673565b5b6000612ae084828501612802565b91505092915050565b600060208284031215612aff57612afe613673565b5b6000612b0d84828501612817565b91505092915050565b600060208284031215612b2c57612b2b613673565b5b6000612b3a84828501612888565b91505092915050565b612b4c816133b7565b82525050565b612b5b816133c9565b82525050565b6000612b6c826132b9565b612b7681856132cf565b9350612b8681856020860161343a565b612b8f81613678565b840191505092915050565b6000612ba5826132c4565b612baf81856132e0565b9350612bbf81856020860161343a565b612bc881613678565b840191505092915050565b6000612bde826132c4565b612be881856132f1565b9350612bf881856020860161343a565b80840191505092915050565b6000612c11602b836132e0565b9150612c1c82613689565b604082019050919050565b6000612c346032836132e0565b9150612c3f826136d8565b604082019050919050565b6000612c576026836132e0565b9150612c6282613727565b604082019050919050565b6000612c7a601c836132e0565b9150612c8582613776565b602082019050919050565b6000612c9d6024836132e0565b9150612ca88261379f565b604082019050919050565b6000612cc06019836132e0565b9150612ccb826137ee565b602082019050919050565b6000612ce3602c836132e0565b9150612cee82613817565b604082019050919050565b6000612d066038836132e0565b9150612d1182613866565b604082019050919050565b6000612d29602a836132e0565b9150612d34826138b5565b604082019050919050565b6000612d4c6029836132e0565b9150612d5782613904565b604082019050919050565b6000612d6f602e836132e0565b9150612d7a82613953565b604082019050919050565b6000612d926020836132e0565b9150612d9d826139a2565b602082019050919050565b6000612db56031836132e0565b9150612dc0826139cb565b604082019050919050565b6000612dd8602c836132e0565b9150612de382613a1a565b604082019050919050565b6000612dfb6020836132e0565b9150612e0682613a69565b602082019050919050565b6000612e1e6029836132e0565b9150612e2982613a92565b604082019050919050565b6000612e41602f836132e0565b9150612e4c82613ae1565b604082019050919050565b6000612e646021836132e0565b9150612e6f82613b30565b604082019050919050565b6000612e876031836132e0565b9150612e9282613b7f565b604082019050919050565b6000612eaa602c836132e0565b9150612eb582613bce565b604082019050919050565b612ec981613421565b82525050565b6000612edb8285612bd3565b9150612ee78284612bd3565b91508190509392505050565b6000602082019050612f086000830184612b43565b92915050565b6000608082019050612f236000830187612b43565b612f306020830186612b43565b612f3d6040830185612ec0565b8181036060830152612f4f8184612b61565b905095945050505050565b6000602082019050612f6f6000830184612b52565b92915050565b60006020820190508181036000830152612f8f8184612b9a565b905092915050565b60006020820190508181036000830152612fb081612c04565b9050919050565b60006020820190508181036000830152612fd081612c27565b9050919050565b60006020820190508181036000830152612ff081612c4a565b9050919050565b6000602082019050818103600083015261301081612c6d565b9050919050565b6000602082019050818103600083015261303081612c90565b9050919050565b6000602082019050818103600083015261305081612cb3565b9050919050565b6000602082019050818103600083015261307081612cd6565b9050919050565b6000602082019050818103600083015261309081612cf9565b9050919050565b600060208201905081810360008301526130b081612d1c565b9050919050565b600060208201905081810360008301526130d081612d3f565b9050919050565b600060208201905081810360008301526130f081612d62565b9050919050565b6000602082019050818103600083015261311081612d85565b9050919050565b6000602082019050818103600083015261313081612da8565b9050919050565b6000602082019050818103600083015261315081612dcb565b9050919050565b6000602082019050818103600083015261317081612dee565b9050919050565b6000602082019050818103600083015261319081612e11565b9050919050565b600060208201905081810360008301526131b081612e34565b9050919050565b600060208201905081810360008301526131d081612e57565b9050919050565b600060208201905081810360008301526131f081612e7a565b9050919050565b6000602082019050818103600083015261321081612e9d565b9050919050565b600060208201905061322c6000830184612ec0565b92915050565b600061323c61324d565b9050613248828261349f565b919050565b6000604051905090565b600067ffffffffffffffff82111561327257613271613635565b5b61327b82613678565b9050602081019050919050565b600067ffffffffffffffff8211156132a3576132a2613635565b5b6132ac82613678565b9050602081019050919050565b600081519050919050565b600081519050919050565b600082825260208201905092915050565b600082825260208201905092915050565b600081905092915050565b600061330782613421565b915061331283613421565b9250827fffffffffffffffffffffffffffffffffffffffffffffffffffffffffffffffff038211156133475761334661354a565b5b828201905092915050565b600061335d82613421565b915061336883613421565b92508261337857613377613579565b5b828204905092915050565b600061338e82613421565b915061339983613421565b9250828210156133ac576133ab61354a565b5b828203905092915050565b60006133c282613401565b9050919050565b60008115159050919050565b60007fffffffff0000000000000000000000000000000000000000000000000000000082169050919050565b600073ffffffffffffffffffffffffffffffffffffffff82169050919050565b6000819050919050565b82818337600083830152505050565b60005b8381101561345857808201518184015260208101905061343d565b83811115613467576000848401525b50505050565b6000600282049050600182168061348557607f821691505b60208210811415613499576134986135a8565b5b50919050565b6134a882613678565b810181811067ffffffffffffffff821117156134c7576134c6613635565b5b80604052505050565b60006134db82613421565b91507fffffffffffffffffffffffffffffffffffffffffffffffffffffffffffffffff82141561350e5761350d61354a565b5b600182019050919050565b600061352482613421565b915061352f83613421565b92508261353f5761353e613579565b5b828206905092915050565b7f4e487b7100000000000000000000000000000000000000000000000000000000600052601160045260246000fd5b7f4e487b7100000000000000000000000000000000000000000000000000000000600052601260045260246000fd5b7f4e487b7100000000000000000000000000000000000000000000000000000000600052602260045260246000fd5b7f4e487b7100000000000000000000000000000000000000000000000000000000600052603160045260246000fd5b7f4e487b7100000000000000000000000000000000000000000000000000000000600052603260045260246000fd5b7f4e487b7100000000000000000000000000000000000000000000000000000000600052604160045260246000fd5b600080fd5b600080fd5b600080fd5b600080fd5b6000601f19601f8301169050919050565b7f455243373231456e756d657261626c653a206f776e657220696e646578206f7560008201527f74206f6620626f756e6473000000000000000000000000000000000000000000602082015250565b7f4552433732313a207472616e7366657220746f206e6f6e20455243373231526560008201527f63656976657220696d706c656d656e7465720000000000000000000000000000602082015250565b7f4f776e61626c653a206e6577206f776e657220697320746865207a65726f206160008201527f6464726573730000000000000000000000000000000000000000000000000000602082015250565b7f4552433732313a20746f6b656e20616c7265616479206d696e74656400000000600082015250565b7f4552433732313a207472616e7366657220746f20746865207a65726f2061646460008201527f7265737300000000000000000000000000000000000000000000000000000000602082015250565b7f4552433732313a20617070726f766520746f2063616c6c657200000000000000600082015250565b7f4552433732313a206f70657261746f7220717565727920666f72206e6f6e657860008201527f697374656e7420746f6b656e0000000000000000000000000000000000000000602082015250565b7f4552433732313a20617070726f76652063616c6c6572206973206e6f74206f7760008201527f6e6572206e6f7220617070726f76656420666f7220616c6c0000000000000000602082015250565b7f4552433732313a2062616c616e636520717565727920666f7220746865207a6560008201527f726f206164647265737300000000000000000000000000000000000000000000602082015250565b7f4552433732313a206f776e657220717565727920666f72206e6f6e657869737460008201527f656e7420746f6b656e0000000000000000000000000000000000000000000000602082015250565b7f45524337323155524953746f726167653a2055524920736574206f66206e6f6e60008201527f6578697374656e7420746f6b656e000000000000000000000000000000000000602082015250565b7f4552433732313a206d696e7420746f20746865207a65726f2061646472657373600082015250565b7f45524337323155524953746f726167653a2055524920717565727920666f722060008201527f6e6f6e6578697374656e7420746f6b656e000000000000000000000000000000602082015250565b7f4552433732313a20617070726f76656420717565727920666f72206e6f6e657860008201527f697374656e7420746f6b656e0000000000000000000000000000000000000000602082015250565b7f4f776e61626c653a2063616c6c6572206973206e6f7420746865206f776e6572600082015250565b7f4552433732313a207472616e73666572206f6620746f6b656e2074686174206960008201527f73206e6f74206f776e0000000000000000000000000000000000000000000000602082015250565b7f4552433732314d657461646174613a2055524920717565727920666f72206e6f60008201527f6e6578697374656e7420746f6b656e0000000000000000000000000000000000602082015250565b7f4552433732313a20617070726f76616c20746f2063757272656e74206f776e6560008201527f7200000000000000000000000000000000000000000000000000000000000000602082015250565b7f4552433732313a207472616e736665722063616c6c6572206973206e6f74206f60008201527f776e6572206e6f7220617070726f766564000000000000000000000000000000602082015250565b7f455243373231456e756d657261626c653a20676c6f62616c20696e646578206f60008201527f7574206f6620626f756e64730000000000000000000000000000000000000000602082015250565b613c26816133b7565b8114613c3157600080fd5b50565b613c3d816133c9565b8114613c4857600080fd5b50565b613c54816133d5565b8114613c5f57600080fd5b50565b613c6b81613421565b8114613c7657600080fd5b5056fea2646970667358221220e894bef110faf95f88fb0c7e5715fad2b4f364c0ad5a5829055de327b0e3529764736f6c63430008060033",
  "immutableReferences": {},
  "source": "// SPDX-License-Identifier: MIT\npragma solidity ^0.8.0;\n\nimport \"@openzeppelin/contracts/token/ERC721/extensions/ERC721URIStorage.sol\";\nimport \"@openzeppelin/contracts/token/ERC721/extensions/IERC721Enumerable.sol\";\nimport \"@openzeppelin/contracts/utils/Counters.sol\";\nimport \"@openzeppelin/contracts/access/Ownable.sol\";\n\ncontract SalonDesRefuse is ERC721URIStorage, IERC721Enumerable, Ownable {\n    using Counters for Counters.Counter;\n    Counters.Counter private _tokenIds;\n    address public contractOwner;\n\n    mapping(uint => Bid) lastBid;\n\n    struct Bid {\n        uint price;\n        address bidder;\n    }\n\n    // Mapping from owner to list of owned token IDs\n    mapping(address => mapping(uint256 => uint256)) private _ownedTokens;\n\n    // Mapping from token ID to index of the owner tokens list\n    mapping(uint256 => uint256) private _ownedTokensIndex;\n\n    // Array with all token ids, used for enumeration\n    uint256[] private _allTokens;\n\n    // Mapping from token id to position in the allTokens array\n    mapping(uint256 => uint256) private _allTokensIndex;\n\n\n    constructor() ERC721(\"SalonDesRefuse\", \"SDR\") public {\n        contractOwner = msg.sender;\n    }\n\n    function createNFT(address receiver, string memory tokenURI) public returns (uint256){\n        _tokenIds.increment();\n\n        uint256 newItemId = _tokenIds.current();\n        _mint(receiver, newItemId);\n        _setTokenURI(newItemId, tokenURI);\n\n        return newItemId;\n    }\n\n    function registerAuction(uint _tokenId) public {\n        approve(contractOwner, _tokenId);\n    }\n\n    function bid(uint _tokenId) public payable returns (bool) {\n        require(ownerOf(_tokenId) != msg.sender);\n        require(lastBid[_tokenId].price < msg.value);\n\n        address prevBidder = lastBid[_tokenId].bidder;\n        payable(prevBidder).transfer(lastBid[_tokenId].price);\n        lastBid[_tokenId] = Bid(msg.value, msg.sender);\n\n        return true;\n    }\n\n    function complete(uint _tokenId) public onlyOwner {\n        address tokenOwner = ownerOf(_tokenId);\n\n        require(getApproved(_tokenId) == contractOwner);\n\n        payable(tokenOwner).transfer(lastBid[_tokenId].price);\n        safeTransferFrom(tokenOwner, lastBid[_tokenId].bidder, _tokenId);\n        delete lastBid[_tokenId];\n    }\n\n\n    /**\n     * @dev See {IERC165-supportsInterface}.\n     */\n    function supportsInterface(bytes4 interfaceId) public view virtual override(IERC165, ERC721) returns (bool) {\n        return interfaceId == type(IERC721Enumerable).interfaceId || super.supportsInterface(interfaceId);\n    }\n\n    /**\n     * @dev See {IERC721Enumerable-tokenOfOwnerByIndex}.\n     */\n    function tokenOfOwnerByIndex(address owner, uint256 index) public view virtual override returns (uint256) {\n        require(index < ERC721.balanceOf(owner), \"ERC721Enumerable: owner index out of bounds\");\n        return _ownedTokens[owner][index];\n    }\n\n    /**\n     * @dev See {IERC721Enumerable-totalSupply}.\n     */\n    function totalSupply() public view virtual override returns (uint256) {\n        return _allTokens.length;\n    }\n\n    /**\n     * @dev See {IERC721Enumerable-tokenByIndex}.\n     */\n    function tokenByIndex(uint256 index) public view virtual override returns (uint256) {\n        require(index < SalonDesRefuse.totalSupply(), \"ERC721Enumerable: global index out of bounds\");\n        return _allTokens[index];\n    }\n\n    /**\n     * @dev Hook that is called before any token transfer. This includes minting\n     * and burning.\n     *\n     * Calling conditions:\n     *\n     * - When `from` and `to` are both non-zero, ``from``'s `tokenId` will be\n     * transferred to `to`.\n     * - When `from` is zero, `tokenId` will be minted for `to`.\n     * - When `to` is zero, ``from``'s `tokenId` will be burned.\n     * - `from` cannot be the zero address.\n     * - `to` cannot be the zero address.\n     *\n     * To learn more about hooks, head to xref:ROOT:extending-contracts.adoc#using-hooks[Using Hooks].\n     */\n    function _beforeTokenTransfer(\n        address from,\n        address to,\n        uint256 tokenId\n    ) internal virtual override {\n        super._beforeTokenTransfer(from, to, tokenId);\n\n        if (from == address(0)) {\n            _addTokenToAllTokensEnumeration(tokenId);\n        } else if (from != to) {\n            _removeTokenFromOwnerEnumeration(from, tokenId);\n        }\n        if (to == address(0)) {\n            _removeTokenFromAllTokensEnumeration(tokenId);\n        } else if (to != from) {\n            _addTokenToOwnerEnumeration(to, tokenId);\n        }\n    }\n\n    /**\n     * @dev Private function to add a token to this extension's ownership-tracking data structures.\n     * @param to address representing the new owner of the given token ID\n     * @param tokenId uint256 ID of the token to be added to the tokens list of the given address\n     */\n    function _addTokenToOwnerEnumeration(address to, uint256 tokenId) private {\n        uint256 length = ERC721.balanceOf(to);\n        _ownedTokens[to][length] = tokenId;\n        _ownedTokensIndex[tokenId] = length;\n    }\n\n    /**\n     * @dev Private function to add a token to this extension's token tracking data structures.\n     * @param tokenId uint256 ID of the token to be added to the tokens list\n     */\n    function _addTokenToAllTokensEnumeration(uint256 tokenId) private {\n        _allTokensIndex[tokenId] = _allTokens.length;\n        _allTokens.push(tokenId);\n    }\n\n    /**\n     * @dev Private function to remove a token from this extension's ownership-tracking data structures. Note that\n     * while the token is not assigned a new owner, the `_ownedTokensIndex` mapping is _not_ updated: this allows for\n     * gas optimizations e.g. when performing a transfer operation (avoiding double writes).\n     * This has O(1) time complexity, but alters the order of the _ownedTokens array.\n     * @param from address representing the previous owner of the given token ID\n     * @param tokenId uint256 ID of the token to be removed from the tokens list of the given address\n     */\n    function _removeTokenFromOwnerEnumeration(address from, uint256 tokenId) private {\n        // To prevent a gap in from's tokens array, we store the last token in the index of the token to delete, and\n        // then delete the last slot (swap and pop).\n\n        uint256 lastTokenIndex = ERC721.balanceOf(from) - 1;\n        uint256 tokenIndex = _ownedTokensIndex[tokenId];\n\n        // When the token to delete is the last token, the swap operation is unnecessary\n        if (tokenIndex != lastTokenIndex) {\n            uint256 lastTokenId = _ownedTokens[from][lastTokenIndex];\n\n            _ownedTokens[from][tokenIndex] = lastTokenId; // Move the last token to the slot of the to-delete token\n            _ownedTokensIndex[lastTokenId] = tokenIndex; // Update the moved token's index\n        }\n\n        // This also deletes the contents at the last position of the array\n        delete _ownedTokensIndex[tokenId];\n        delete _ownedTokens[from][lastTokenIndex];\n    }\n\n    /**\n     * @dev Private function to remove a token from this extension's token tracking data structures.\n     * This has O(1) time complexity, but alters the order of the _allTokens array.\n     * @param tokenId uint256 ID of the token to be removed from the tokens list\n     */\n    function _removeTokenFromAllTokensEnumeration(uint256 tokenId) private {\n        // To prevent a gap in the tokens array, we store the last token in the index of the token to delete, and\n        // then delete the last slot (swap and pop).\n\n        uint256 lastTokenIndex = _allTokens.length - 1;\n        uint256 tokenIndex = _allTokensIndex[tokenId];\n\n        // When the token to delete is the last token, the swap operation is unnecessary. However, since this occurs so\n        // rarely (when the last minted token is burnt) that we still do the swap here to avoid the gas cost of adding\n        // an 'if' statement (like in _removeTokenFromOwnerEnumeration)\n        uint256 lastTokenId = _allTokens[lastTokenIndex];\n\n        _allTokens[tokenIndex] = lastTokenId; // Move the last token to the slot of the to-delete token\n        _allTokensIndex[lastTokenId] = tokenIndex; // Update the moved token's index\n\n        // This also deletes the contents at the last position of the array\n        delete _allTokensIndex[tokenId];\n        _allTokens.pop();\n    }\n}",
  "sourcePath": "/Users/jeongjunlee/Projects/web14-salondesrefuses/nft/contracts/SalonDesRefuse.sol",
  "compiler": {
    "name": "solc",
    "version": "0.8.6+commit.11564f7e.Emscripten.clang"
  },
  "schemaVersion": "3.4.3",
  "updatedAt": "2021-11-29T07:36:00.065Z",
  "networkType": "ethereum",
  "devdoc": {
    "kind": "dev",
    "methods": {
      "approve(address,uint256)": {
        "details": "See {IERC721-approve}."
      },
      "balanceOf(address)": {
        "details": "See {IERC721-balanceOf}."
      },
      "getApproved(uint256)": {
        "details": "See {IERC721-getApproved}."
      },
      "isApprovedForAll(address,address)": {
        "details": "See {IERC721-isApprovedForAll}."
      },
      "name()": {
        "details": "See {IERC721Metadata-name}."
      },
      "owner()": {
        "details": "Returns the address of the current owner."
      },
      "ownerOf(uint256)": {
        "details": "See {IERC721-ownerOf}."
      },
      "renounceOwnership()": {
        "details": "Leaves the contract without owner. It will not be possible to call `onlyOwner` functions anymore. Can only be called by the current owner. NOTE: Renouncing ownership will leave the contract without an owner, thereby removing any functionality that is only available to the owner."
      },
      "safeTransferFrom(address,address,uint256)": {
        "details": "See {IERC721-safeTransferFrom}."
      },
      "safeTransferFrom(address,address,uint256,bytes)": {
        "details": "See {IERC721-safeTransferFrom}."
      },
      "setApprovalForAll(address,bool)": {
        "details": "See {IERC721-setApprovalForAll}."
      },
      "supportsInterface(bytes4)": {
        "details": "See {IERC165-supportsInterface}."
      },
      "symbol()": {
        "details": "See {IERC721Metadata-symbol}."
      },
      "tokenByIndex(uint256)": {
        "details": "See {IERC721Enumerable-tokenByIndex}."
      },
      "tokenOfOwnerByIndex(address,uint256)": {
        "details": "See {IERC721Enumerable-tokenOfOwnerByIndex}."
      },
      "tokenURI(uint256)": {
        "details": "See {IERC721Metadata-tokenURI}."
      },
      "totalSupply()": {
        "details": "See {IERC721Enumerable-totalSupply}."
      },
      "transferFrom(address,address,uint256)": {
        "details": "See {IERC721-transferFrom}."
      },
      "transferOwnership(address)": {
        "details": "Transfers ownership of the contract to a new account (`newOwner`). Can only be called by the current owner."
      }
    },
    "version": 1
  },
  "userdoc": {
    "kind": "user",
    "methods": {},
    "version": 1
  }
}