{
    "contractName": "SalonDesRefuse",
    "abi": [
        {
            "inputs": [],
            "stateMutability": "nonpayable",
            "type": "constructor"
        },
        {
            "anonymous": false,
            "inputs": [
                {
                    "indexed": true,
                    "internalType": "address",
                    "name": "owner",
                    "type": "address"
                },
                {
                    "indexed": true,
                    "internalType": "address",
                    "name": "approved",
                    "type": "address"
                },
                {
                    "indexed": true,
                    "internalType": "uint256",
                    "name": "tokenId",
                    "type": "uint256"
                }
            ],
            "name": "Approval",
            "type": "event"
        },
        {
            "anonymous": false,
            "inputs": [
                {
                    "indexed": true,
                    "internalType": "address",
                    "name": "owner",
                    "type": "address"
                },
                {
                    "indexed": true,
                    "internalType": "address",
                    "name": "operator",
                    "type": "address"
                },
                {
                    "indexed": false,
                    "internalType": "bool",
                    "name": "approved",
                    "type": "bool"
                }
            ],
            "name": "ApprovalForAll",
            "type": "event"
        },
        {
            "anonymous": false,
            "inputs": [
                {
                    "indexed": true,
                    "internalType": "address",
                    "name": "previousOwner",
                    "type": "address"
                },
                {
                    "indexed": true,
                    "internalType": "address",
                    "name": "newOwner",
                    "type": "address"
                }
            ],
            "name": "OwnershipTransferred",
            "type": "event"
        },
        {
            "anonymous": false,
            "inputs": [
                {
                    "indexed": true,
                    "internalType": "address",
                    "name": "from",
                    "type": "address"
                },
                {
                    "indexed": true,
                    "internalType": "address",
                    "name": "to",
                    "type": "address"
                },
                {
                    "indexed": true,
                    "internalType": "uint256",
                    "name": "tokenId",
                    "type": "uint256"
                }
            ],
            "name": "Transfer",
            "type": "event"
        },
        {
            "inputs": [
                {
                    "internalType": "address",
                    "name": "to",
                    "type": "address"
                },
                {
                    "internalType": "uint256",
                    "name": "tokenId",
                    "type": "uint256"
                }
            ],
            "name": "approve",
            "outputs": [],
            "stateMutability": "nonpayable",
            "type": "function"
        },
        {
            "inputs": [
                {
                    "internalType": "address",
                    "name": "owner",
                    "type": "address"
                }
            ],
            "name": "balanceOf",
            "outputs": [
                {
                    "internalType": "uint256",
                    "name": "",
                    "type": "uint256"
                }
            ],
            "stateMutability": "view",
            "type": "function",
            "constant": true
        },
        {
            "inputs": [
                {
                    "internalType": "uint256",
                    "name": "tokenId",
                    "type": "uint256"
                }
            ],
            "name": "getApproved",
            "outputs": [
                {
                    "internalType": "address",
                    "name": "",
                    "type": "address"
                }
            ],
            "stateMutability": "view",
            "type": "function",
            "constant": true
        },
        {
            "inputs": [
                {
                    "internalType": "address",
                    "name": "owner",
                    "type": "address"
                },
                {
                    "internalType": "address",
                    "name": "operator",
                    "type": "address"
                }
            ],
            "name": "isApprovedForAll",
            "outputs": [
                {
                    "internalType": "bool",
                    "name": "",
                    "type": "bool"
                }
            ],
            "stateMutability": "view",
            "type": "function",
            "constant": true
        },
        {
            "inputs": [],
            "name": "name",
            "outputs": [
                {
                    "internalType": "string",
                    "name": "",
                    "type": "string"
                }
            ],
            "stateMutability": "view",
            "type": "function",
            "constant": true
        },
        {
            "inputs": [],
            "name": "owner",
            "outputs": [
                {
                    "internalType": "address",
                    "name": "",
                    "type": "address"
                }
            ],
            "stateMutability": "view",
            "type": "function",
            "constant": true
        },
        {
            "inputs": [
                {
                    "internalType": "uint256",
                    "name": "tokenId",
                    "type": "uint256"
                }
            ],
            "name": "ownerOf",
            "outputs": [
                {
                    "internalType": "address",
                    "name": "",
                    "type": "address"
                }
            ],
            "stateMutability": "view",
            "type": "function",
            "constant": true
        },
        {
            "inputs": [],
            "name": "renounceOwnership",
            "outputs": [],
            "stateMutability": "nonpayable",
            "type": "function"
        },
        {
            "inputs": [
                {
                    "internalType": "address",
                    "name": "from",
                    "type": "address"
                },
                {
                    "internalType": "address",
                    "name": "to",
                    "type": "address"
                },
                {
                    "internalType": "uint256",
                    "name": "tokenId",
                    "type": "uint256"
                }
            ],
            "name": "safeTransferFrom",
            "outputs": [],
            "stateMutability": "nonpayable",
            "type": "function"
        },
        {
            "inputs": [
                {
                    "internalType": "address",
                    "name": "from",
                    "type": "address"
                },
                {
                    "internalType": "address",
                    "name": "to",
                    "type": "address"
                },
                {
                    "internalType": "uint256",
                    "name": "tokenId",
                    "type": "uint256"
                },
                {
                    "internalType": "bytes",
                    "name": "_data",
                    "type": "bytes"
                }
            ],
            "name": "safeTransferFrom",
            "outputs": [],
            "stateMutability": "nonpayable",
            "type": "function"
        },
        {
            "inputs": [
                {
                    "internalType": "address",
                    "name": "operator",
                    "type": "address"
                },
                {
                    "internalType": "bool",
                    "name": "approved",
                    "type": "bool"
                }
            ],
            "name": "setApprovalForAll",
            "outputs": [],
            "stateMutability": "nonpayable",
            "type": "function"
        },
        {
            "inputs": [
                {
                    "internalType": "bytes4",
                    "name": "interfaceId",
                    "type": "bytes4"
                }
            ],
            "name": "supportsInterface",
            "outputs": [
                {
                    "internalType": "bool",
                    "name": "",
                    "type": "bool"
                }
            ],
            "stateMutability": "view",
            "type": "function",
            "constant": true
        },
        {
            "inputs": [],
            "name": "symbol",
            "outputs": [
                {
                    "internalType": "string",
                    "name": "",
                    "type": "string"
                }
            ],
            "stateMutability": "view",
            "type": "function",
            "constant": true
        },
        {
            "inputs": [
                {
                    "internalType": "uint256",
                    "name": "tokenId",
                    "type": "uint256"
                }
            ],
            "name": "tokenURI",
            "outputs": [
                {
                    "internalType": "string",
                    "name": "",
                    "type": "string"
                }
            ],
            "stateMutability": "view",
            "type": "function",
            "constant": true
        },
        {
            "inputs": [
                {
                    "internalType": "address",
                    "name": "from",
                    "type": "address"
                },
                {
                    "internalType": "address",
                    "name": "to",
                    "type": "address"
                },
                {
                    "internalType": "uint256",
                    "name": "tokenId",
                    "type": "uint256"
                }
            ],
            "name": "transferFrom",
            "outputs": [],
            "stateMutability": "nonpayable",
            "type": "function"
        },
        {
            "inputs": [
                {
                    "internalType": "address",
                    "name": "newOwner",
                    "type": "address"
                }
            ],
            "name": "transferOwnership",
            "outputs": [],
            "stateMutability": "nonpayable",
            "type": "function"
        },
        {
            "inputs": [
                {
                    "internalType": "address",
                    "name": "receiver",
                    "type": "address"
                },
                {
                    "internalType": "string",
                    "name": "tokenURI",
                    "type": "string"
                }
            ],
            "name": "createNFT",
            "outputs": [
                {
                    "internalType": "uint256",
                    "name": "",
                    "type": "uint256"
                }
            ],
            "stateMutability": "nonpayable",
            "type": "function"
        },
        {
            "inputs": [
                {
                    "internalType": "uint256",
                    "name": "_tokenId",
                    "type": "uint256"
                }
            ],
            "name": "getTokenURI",
            "outputs": [
                {
                    "internalType": "string",
                    "name": "",
                    "type": "string"
                }
            ],
            "stateMutability": "view",
            "type": "function",
            "constant": true
        }
    ],
    "bytecode": "0x60806040523480156200001157600080fd5b506040518060400160405280600e81526020017f53616c6f6e4465735265667573650000000000000000000000000000000000008152506040518060400160405280600381526020017f5344520000000000000000000000000000000000000000000000000000000000815250816000908051906020019062000096929190620001a6565b508060019080519060200190620000af929190620001a6565b505050620000d2620000c6620000d860201b60201c565b620000e060201b60201c565b620002bb565b600033905090565b6000600660009054906101000a900473ffffffffffffffffffffffffffffffffffffffff16905081600660006101000a81548173ffffffffffffffffffffffffffffffffffffffff021916908373ffffffffffffffffffffffffffffffffffffffff1602179055508173ffffffffffffffffffffffffffffffffffffffff168173ffffffffffffffffffffffffffffffffffffffff167f8be0079c531659141344cd1fd0a4f28419497f9722a3daafe3b4186f6b6457e060405160405180910390a35050565b828054620001b49062000256565b90600052602060002090601f016020900481019282620001d8576000855562000224565b82601f10620001f357805160ff191683800117855562000224565b8280016001018555821562000224579182015b828111156200022357825182559160200191906001019062000206565b5b50905062000233919062000237565b5090565b5b808211156200025257600081600090555060010162000238565b5090565b600060028204905060018216806200026f57607f821691505b602082108114156200028657620002856200028c565b5b50919050565b7f4e487b7100000000000000000000000000000000000000000000000000000000600052602260045260246000fd5b612d9880620002cb6000396000f3fe608060405234801561001057600080fd5b50600436106101165760003560e01c8063715018a6116100a2578063a561403311610071578063a5614033146102df578063b88d4fde1461030f578063c87b56dd1461032b578063e985e9c51461035b578063f2fde38b1461038b57610116565b8063715018a61461027d5780638da5cb5b1461028757806395d89b41146102a5578063a22cb465146102c357610116565b806323b872dd116100e957806323b872dd146101b55780633bb3a24d146101d157806342842e0e146102015780636352211e1461021d57806370a082311461024d57610116565b806301ffc9a71461011b57806306fdde031461014b578063081812fc14610169578063095ea7b314610199575b600080fd5b61013560048036038101906101309190611e1c565b6103a7565b604051610142919061222e565b60405180910390f35b610153610489565b6040516101609190612249565b60405180910390f35b610183600480360381019061017e9190611e76565b61051b565b60405161019091906121c7565b60405180910390f35b6101b360048036038101906101ae9190611ddc565b6105a0565b005b6101cf60048036038101906101ca9190611c6a565b6106b8565b005b6101eb60048036038101906101e69190611e76565b610718565b6040516101f89190612249565b60405180910390f35b61021b60048036038101906102169190611c6a565b6107bd565b005b61023760048036038101906102329190611e76565b6107dd565b60405161024491906121c7565b60405180910390f35b61026760048036038101906102629190611bfd565b61088f565b604051610274919061246b565b60405180910390f35b610285610947565b005b61028f6109cf565b60405161029c91906121c7565b60405180910390f35b6102ad6109f9565b6040516102ba9190612249565b60405180910390f35b6102dd60048036038101906102d89190611d40565b610a8b565b005b6102f960048036038101906102f49190611d80565b610c0c565b604051610306919061246b565b60405180910390f35b61032960048036038101906103249190611cbd565b610c44565b005b61034560048036038101906103409190611e76565b610ca6565b6040516103529190612249565b60405180910390f35b61037560048036038101906103709190611c2a565b610d4d565b604051610382919061222e565b60405180910390f35b6103a560048036038101906103a09190611bfd565b610de1565b005b60007f80ac58cd000000000000000000000000000000000000000000000000000000007bffffffffffffffffffffffffffffffffffffffffffffffffffffffff1916827bffffffffffffffffffffffffffffffffffffffffffffffffffffffff1916148061047257507f5b5e139f000000000000000000000000000000000000000000000000000000007bffffffffffffffffffffffffffffffffffffffffffffffffffffffff1916827bffffffffffffffffffffffffffffffffffffffffffffffffffffffff1916145b80610482575061048182610ed9565b5b9050919050565b606060008054610498906126c1565b80601f01602080910402602001604051908101604052809291908181526020018280546104c4906126c1565b80156105115780601f106104e657610100808354040283529160200191610511565b820191906000526020600020905b8154815290600101906020018083116104f457829003601f168201915b5050505050905090565b600061052682610f43565b610565576040517f08c379a000000000000000000000000000000000000000000000000000000000815260040161055c906123ab565b60405180910390fd5b6004600083815260200190815260200160002060009054906101000a900473ffffffffffffffffffffffffffffffffffffffff169050919050565b60006105ab826107dd565b90508073ffffffffffffffffffffffffffffffffffffffff168373ffffffffffffffffffffffffffffffffffffffff16141561061c576040517f08c379a00000000000000000000000000000000000000000000000000000000081526004016106139061242b565b60405180910390fd5b8073ffffffffffffffffffffffffffffffffffffffff1661063b610faf565b73ffffffffffffffffffffffffffffffffffffffff16148061066a575061066981610664610faf565b610d4d565b5b6106a9576040517f08c379a00000000000000000000000000000000000000000000000000000000081526004016106a09061232b565b60405180910390fd5b6106b38383610fb7565b505050565b6106c96106c3610faf565b82611070565b610708576040517f08c379a00000000000000000000000000000000000000000000000000000000081526004016106ff9061244b565b60405180910390fd5b61071383838361114e565b505050565b6060600860008381526020019081526020016000208054610738906126c1565b80601f0160208091040260200160405190810160405280929190818152602001828054610764906126c1565b80156107b15780601f10610786576101008083540402835291602001916107b1565b820191906000526020600020905b81548152906001019060200180831161079457829003601f168201915b50505050509050919050565b6107d883838360405180602001604052806000815250610c44565b505050565b6000806002600084815260200190815260200160002060009054906101000a900473ffffffffffffffffffffffffffffffffffffffff169050600073ffffffffffffffffffffffffffffffffffffffff168173ffffffffffffffffffffffffffffffffffffffff161415610886576040517f08c379a000000000000000000000000000000000000000000000000000000000815260040161087d9061236b565b60405180910390fd5b80915050919050565b60008073ffffffffffffffffffffffffffffffffffffffff168273ffffffffffffffffffffffffffffffffffffffff161415610900576040517f08c379a00000000000000000000000000000000000000000000000000000000081526004016108f79061234b565b60405180910390fd5b600360008373ffffffffffffffffffffffffffffffffffffffff1673ffffffffffffffffffffffffffffffffffffffff168152602001908152602001600020549050919050565b61094f610faf565b73ffffffffffffffffffffffffffffffffffffffff1661096d6109cf565b73ffffffffffffffffffffffffffffffffffffffff16146109c3576040517f08c379a00000000000000000000000000000000000000000000000000000000081526004016109ba906123cb565b60405180910390fd5b6109cd60006113aa565b565b6000600660009054906101000a900473ffffffffffffffffffffffffffffffffffffffff16905090565b606060018054610a08906126c1565b80601f0160208091040260200160405190810160405280929190818152602001828054610a34906126c1565b8015610a815780601f10610a5657610100808354040283529160200191610a81565b820191906000526020600020905b815481529060010190602001808311610a6457829003601f168201915b5050505050905090565b610a93610faf565b73ffffffffffffffffffffffffffffffffffffffff168273ffffffffffffffffffffffffffffffffffffffff161415610b01576040517f08c379a0000000000000000000000000000000000000000000000000000000008152600401610af8906122eb565b60405180910390fd5b8060056000610b0e610faf565b73ffffffffffffffffffffffffffffffffffffffff1673ffffffffffffffffffffffffffffffffffffffff16815260200190815260200160002060008473ffffffffffffffffffffffffffffffffffffffff1673ffffffffffffffffffffffffffffffffffffffff16815260200190815260200160002060006101000a81548160ff0219169083151502179055508173ffffffffffffffffffffffffffffffffffffffff16610bbb610faf565b73ffffffffffffffffffffffffffffffffffffffff167f17307eab39ab6107e8899845ad3d59bd9653f200f220920489ca2b5937696c3183604051610c00919061222e565b60405180910390a35050565b6000610c186007611470565b6000610c246007611486565b9050610c308482611494565b610c3a8184611662565b8091505092915050565b610c55610c4f610faf565b83611070565b610c94576040517f08c379a0000000000000000000000000000000000000000000000000000000008152600401610c8b9061244b565b60405180910390fd5b610ca08484848461168e565b50505050565b6060610cb182610f43565b610cf0576040517f08c379a0000000000000000000000000000000000000000000000000000000008152600401610ce79061240b565b60405180910390fd5b6000610cfa6116ea565b90506000815111610d1a5760405180602001604052806000815250610d45565b80610d2484611701565b604051602001610d359291906121a3565b6040516020818303038152906040525b915050919050565b6000600560008473ffffffffffffffffffffffffffffffffffffffff1673ffffffffffffffffffffffffffffffffffffffff16815260200190815260200160002060008373ffffffffffffffffffffffffffffffffffffffff1673ffffffffffffffffffffffffffffffffffffffff16815260200190815260200160002060009054906101000a900460ff16905092915050565b610de9610faf565b73ffffffffffffffffffffffffffffffffffffffff16610e076109cf565b73ffffffffffffffffffffffffffffffffffffffff1614610e5d576040517f08c379a0000000000000000000000000000000000000000000000000000000008152600401610e54906123cb565b60405180910390fd5b600073ffffffffffffffffffffffffffffffffffffffff168173ffffffffffffffffffffffffffffffffffffffff161415610ecd576040517f08c379a0000000000000000000000000000000000000000000000000000000008152600401610ec49061228b565b60405180910390fd5b610ed6816113aa565b50565b60007f01ffc9a7000000000000000000000000000000000000000000000000000000007bffffffffffffffffffffffffffffffffffffffffffffffffffffffff1916827bffffffffffffffffffffffffffffffffffffffffffffffffffffffff1916149050919050565b60008073ffffffffffffffffffffffffffffffffffffffff166002600084815260200190815260200160002060009054906101000a900473ffffffffffffffffffffffffffffffffffffffff1673ffffffffffffffffffffffffffffffffffffffff1614159050919050565b600033905090565b816004600083815260200190815260200160002060006101000a81548173ffffffffffffffffffffffffffffffffffffffff021916908373ffffffffffffffffffffffffffffffffffffffff160217905550808273ffffffffffffffffffffffffffffffffffffffff1661102a836107dd565b73ffffffffffffffffffffffffffffffffffffffff167f8c5be1e5ebec7d5bd14f71427d1e84f3dd0314c0f7b2291e5b200ac8c7c3b92560405160405180910390a45050565b600061107b82610f43565b6110ba576040517f08c379a00000000000000000000000000000000000000000000000000000000081526004016110b19061230b565b60405180910390fd5b60006110c5836107dd565b90508073ffffffffffffffffffffffffffffffffffffffff168473ffffffffffffffffffffffffffffffffffffffff16148061113457508373ffffffffffffffffffffffffffffffffffffffff1661111c8461051b565b73ffffffffffffffffffffffffffffffffffffffff16145b8061114557506111448185610d4d565b5b91505092915050565b8273ffffffffffffffffffffffffffffffffffffffff1661116e826107dd565b73ffffffffffffffffffffffffffffffffffffffff16146111c4576040517f08c379a00000000000000000000000000000000000000000000000000000000081526004016111bb906123eb565b60405180910390fd5b600073ffffffffffffffffffffffffffffffffffffffff168273ffffffffffffffffffffffffffffffffffffffff161415611234576040517f08c379a000000000000000000000000000000000000000000000000000000000815260040161122b906122cb565b60405180910390fd5b61123f838383611862565b61124a600082610fb7565b6001600360008573ffffffffffffffffffffffffffffffffffffffff1673ffffffffffffffffffffffffffffffffffffffff168152602001908152602001600020600082825461129a91906125d7565b925050819055506001600360008473ffffffffffffffffffffffffffffffffffffffff1673ffffffffffffffffffffffffffffffffffffffff16815260200190815260200160002060008282546112f19190612550565b92505081905550816002600083815260200190815260200160002060006101000a81548173ffffffffffffffffffffffffffffffffffffffff021916908373ffffffffffffffffffffffffffffffffffffffff160217905550808273ffffffffffffffffffffffffffffffffffffffff168473ffffffffffffffffffffffffffffffffffffffff167fddf252ad1be2c89b69c2b068fc378daa952ba7f163c4a11628f55a4df523b3ef60405160405180910390a4505050565b6000600660009054906101000a900473ffffffffffffffffffffffffffffffffffffffff16905081600660006101000a81548173ffffffffffffffffffffffffffffffffffffffff021916908373ffffffffffffffffffffffffffffffffffffffff1602179055508173ffffffffffffffffffffffffffffffffffffffff168173ffffffffffffffffffffffffffffffffffffffff167f8be0079c531659141344cd1fd0a4f28419497f9722a3daafe3b4186f6b6457e060405160405180910390a35050565b6001816000016000828254019250508190555050565b600081600001549050919050565b600073ffffffffffffffffffffffffffffffffffffffff168273ffffffffffffffffffffffffffffffffffffffff161415611504576040517f08c379a00000000000000000000000000000000000000000000000000000000081526004016114fb9061238b565b60405180910390fd5b61150d81610f43565b1561154d576040517f08c379a0000000000000000000000000000000000000000000000000000000008152600401611544906122ab565b60405180910390fd5b61155960008383611862565b6001600360008473ffffffffffffffffffffffffffffffffffffffff1673ffffffffffffffffffffffffffffffffffffffff16815260200190815260200160002060008282546115a99190612550565b92505081905550816002600083815260200190815260200160002060006101000a81548173ffffffffffffffffffffffffffffffffffffffff021916908373ffffffffffffffffffffffffffffffffffffffff160217905550808273ffffffffffffffffffffffffffffffffffffffff16600073ffffffffffffffffffffffffffffffffffffffff167fddf252ad1be2c89b69c2b068fc378daa952ba7f163c4a11628f55a4df523b3ef60405160405180910390a45050565b80600860008481526020019081526020016000209080519060200190611689929190611a11565b505050565b61169984848461114e565b6116a584848484611867565b6116e4576040517f08c379a00000000000000000000000000000000000000000000000000000000081526004016116db9061226b565b60405180910390fd5b50505050565b606060405180602001604052806000815250905090565b60606000821415611749576040518060400160405280600181526020017f3000000000000000000000000000000000000000000000000000000000000000815250905061185d565b600082905060005b6000821461177b57808061176490612724565b915050600a8261177491906125a6565b9150611751565b60008167ffffffffffffffff8111156117975761179661285a565b5b6040519080825280601f01601f1916602001820160405280156117c95781602001600182028036833780820191505090505b5090505b60008514611856576001826117e291906125d7565b9150600a856117f1919061276d565b60306117fd9190612550565b60f81b8183815181106118135761181261282b565b5b60200101907effffffffffffffffffffffffffffffffffffffffffffffffffffffffffffff1916908160001a905350600a8561184f91906125a6565b94506117cd565b8093505050505b919050565b505050565b60006118888473ffffffffffffffffffffffffffffffffffffffff166119fe565b156119f1578373ffffffffffffffffffffffffffffffffffffffff1663150b7a026118b1610faf565b8786866040518563ffffffff1660e01b81526004016118d394939291906121e2565b602060405180830381600087803b1580156118ed57600080fd5b505af192505050801561191e57506040513d601f19601f8201168201806040525081019061191b9190611e49565b60015b6119a1573d806000811461194e576040519150601f19603f3d011682016040523d82523d6000602084013e611953565b606091505b50600081511415611999576040517f08c379a00000000000000000000000000000000000000000000000000000000081526004016119909061226b565b60405180910390fd5b805181602001fd5b63150b7a0260e01b7bffffffffffffffffffffffffffffffffffffffffffffffffffffffff1916817bffffffffffffffffffffffffffffffffffffffffffffffffffffffff1916149150506119f6565b600190505b949350505050565b600080823b905060008111915050919050565b828054611a1d906126c1565b90600052602060002090601f016020900481019282611a3f5760008555611a86565b82601f10611a5857805160ff1916838001178555611a86565b82800160010185558215611a86579182015b82811115611a85578251825591602001919060010190611a6a565b5b509050611a939190611a97565b5090565b5b80821115611ab0576000816000905550600101611a98565b5090565b6000611ac7611ac2846124ab565b612486565b905082815260208101848484011115611ae357611ae261288e565b5b611aee84828561267f565b509392505050565b6000611b09611b04846124dc565b612486565b905082815260208101848484011115611b2557611b2461288e565b5b611b3084828561267f565b509392505050565b600081359050611b4781612d06565b92915050565b600081359050611b5c81612d1d565b92915050565b600081359050611b7181612d34565b92915050565b600081519050611b8681612d34565b92915050565b600082601f830112611ba157611ba0612889565b5b8135611bb1848260208601611ab4565b91505092915050565b600082601f830112611bcf57611bce612889565b5b8135611bdf848260208601611af6565b91505092915050565b600081359050611bf781612d4b565b92915050565b600060208284031215611c1357611c12612898565b5b6000611c2184828501611b38565b91505092915050565b60008060408385031215611c4157611c40612898565b5b6000611c4f85828601611b38565b9250506020611c6085828601611b38565b9150509250929050565b600080600060608486031215611c8357611c82612898565b5b6000611c9186828701611b38565b9350506020611ca286828701611b38565b9250506040611cb386828701611be8565b9150509250925092565b60008060008060808587031215611cd757611cd6612898565b5b6000611ce587828801611b38565b9450506020611cf687828801611b38565b9350506040611d0787828801611be8565b925050606085013567ffffffffffffffff811115611d2857611d27612893565b5b611d3487828801611b8c565b91505092959194509250565b60008060408385031215611d5757611d56612898565b5b6000611d6585828601611b38565b9250506020611d7685828601611b4d565b9150509250929050565b60008060408385031215611d9757611d96612898565b5b6000611da585828601611b38565b925050602083013567ffffffffffffffff811115611dc657611dc5612893565b5b611dd285828601611bba565b9150509250929050565b60008060408385031215611df357611df2612898565b5b6000611e0185828601611b38565b9250506020611e1285828601611be8565b9150509250929050565b600060208284031215611e3257611e31612898565b5b6000611e4084828501611b62565b91505092915050565b600060208284031215611e5f57611e5e612898565b5b6000611e6d84828501611b77565b91505092915050565b600060208284031215611e8c57611e8b612898565b5b6000611e9a84828501611be8565b91505092915050565b611eac8161260b565b82525050565b611ebb8161261d565b82525050565b6000611ecc8261250d565b611ed68185612523565b9350611ee681856020860161268e565b611eef8161289d565b840191505092915050565b6000611f0582612518565b611f0f8185612534565b9350611f1f81856020860161268e565b611f288161289d565b840191505092915050565b6000611f3e82612518565b611f488185612545565b9350611f5881856020860161268e565b80840191505092915050565b6000611f71603283612534565b9150611f7c826128ae565b604082019050919050565b6000611f94602683612534565b9150611f9f826128fd565b604082019050919050565b6000611fb7601c83612534565b9150611fc28261294c565b602082019050919050565b6000611fda602483612534565b9150611fe582612975565b604082019050919050565b6000611ffd601983612534565b9150612008826129c4565b602082019050919050565b6000612020602c83612534565b915061202b826129ed565b604082019050919050565b6000612043603883612534565b915061204e82612a3c565b604082019050919050565b6000612066602a83612534565b915061207182612a8b565b604082019050919050565b6000612089602983612534565b915061209482612ada565b604082019050919050565b60006120ac602083612534565b91506120b782612b29565b602082019050919050565b60006120cf602c83612534565b91506120da82612b52565b604082019050919050565b60006120f2602083612534565b91506120fd82612ba1565b602082019050919050565b6000612115602983612534565b915061212082612bca565b604082019050919050565b6000612138602f83612534565b915061214382612c19565b604082019050919050565b600061215b602183612534565b915061216682612c68565b604082019050919050565b600061217e603183612534565b915061218982612cb7565b604082019050919050565b61219d81612675565b82525050565b60006121af8285611f33565b91506121bb8284611f33565b91508190509392505050565b60006020820190506121dc6000830184611ea3565b92915050565b60006080820190506121f76000830187611ea3565b6122046020830186611ea3565b6122116040830185612194565b81810360608301526122238184611ec1565b905095945050505050565b60006020820190506122436000830184611eb2565b92915050565b600060208201905081810360008301526122638184611efa565b905092915050565b6000602082019050818103600083015261228481611f64565b9050919050565b600060208201905081810360008301526122a481611f87565b9050919050565b600060208201905081810360008301526122c481611faa565b9050919050565b600060208201905081810360008301526122e481611fcd565b9050919050565b6000602082019050818103600083015261230481611ff0565b9050919050565b6000602082019050818103600083015261232481612013565b9050919050565b6000602082019050818103600083015261234481612036565b9050919050565b6000602082019050818103600083015261236481612059565b9050919050565b600060208201905081810360008301526123848161207c565b9050919050565b600060208201905081810360008301526123a48161209f565b9050919050565b600060208201905081810360008301526123c4816120c2565b9050919050565b600060208201905081810360008301526123e4816120e5565b9050919050565b6000602082019050818103600083015261240481612108565b9050919050565b600060208201905081810360008301526124248161212b565b9050919050565b600060208201905081810360008301526124448161214e565b9050919050565b6000602082019050818103600083015261246481612171565b9050919050565b60006020820190506124806000830184612194565b92915050565b60006124906124a1565b905061249c82826126f3565b919050565b6000604051905090565b600067ffffffffffffffff8211156124c6576124c561285a565b5b6124cf8261289d565b9050602081019050919050565b600067ffffffffffffffff8211156124f7576124f661285a565b5b6125008261289d565b9050602081019050919050565b600081519050919050565b600081519050919050565b600082825260208201905092915050565b600082825260208201905092915050565b600081905092915050565b600061255b82612675565b915061256683612675565b9250827fffffffffffffffffffffffffffffffffffffffffffffffffffffffffffffffff0382111561259b5761259a61279e565b5b828201905092915050565b60006125b182612675565b91506125bc83612675565b9250826125cc576125cb6127cd565b5b828204905092915050565b60006125e282612675565b91506125ed83612675565b925082821015612600576125ff61279e565b5b828203905092915050565b600061261682612655565b9050919050565b60008115159050919050565b60007fffffffff0000000000000000000000000000000000000000000000000000000082169050919050565b600073ffffffffffffffffffffffffffffffffffffffff82169050919050565b6000819050919050565b82818337600083830152505050565b60005b838110156126ac578082015181840152602081019050612691565b838111156126bb576000848401525b50505050565b600060028204905060018216806126d957607f821691505b602082108114156126ed576126ec6127fc565b5b50919050565b6126fc8261289d565b810181811067ffffffffffffffff8211171561271b5761271a61285a565b5b80604052505050565b600061272f82612675565b91507fffffffffffffffffffffffffffffffffffffffffffffffffffffffffffffffff8214156127625761276161279e565b5b600182019050919050565b600061277882612675565b915061278383612675565b925082612793576127926127cd565b5b828206905092915050565b7f4e487b7100000000000000000000000000000000000000000000000000000000600052601160045260246000fd5b7f4e487b7100000000000000000000000000000000000000000000000000000000600052601260045260246000fd5b7f4e487b7100000000000000000000000000000000000000000000000000000000600052602260045260246000fd5b7f4e487b7100000000000000000000000000000000000000000000000000000000600052603260045260246000fd5b7f4e487b7100000000000000000000000000000000000000000000000000000000600052604160045260246000fd5b600080fd5b600080fd5b600080fd5b600080fd5b6000601f19601f8301169050919050565b7f4552433732313a207472616e7366657220746f206e6f6e20455243373231526560008201527f63656976657220696d706c656d656e7465720000000000000000000000000000602082015250565b7f4f776e61626c653a206e6577206f776e657220697320746865207a65726f206160008201527f6464726573730000000000000000000000000000000000000000000000000000602082015250565b7f4552433732313a20746f6b656e20616c7265616479206d696e74656400000000600082015250565b7f4552433732313a207472616e7366657220746f20746865207a65726f2061646460008201527f7265737300000000000000000000000000000000000000000000000000000000602082015250565b7f4552433732313a20617070726f766520746f2063616c6c657200000000000000600082015250565b7f4552433732313a206f70657261746f7220717565727920666f72206e6f6e657860008201527f697374656e7420746f6b656e0000000000000000000000000000000000000000602082015250565b7f4552433732313a20617070726f76652063616c6c6572206973206e6f74206f7760008201527f6e6572206e6f7220617070726f76656420666f7220616c6c0000000000000000602082015250565b7f4552433732313a2062616c616e636520717565727920666f7220746865207a6560008201527f726f206164647265737300000000000000000000000000000000000000000000602082015250565b7f4552433732313a206f776e657220717565727920666f72206e6f6e657869737460008201527f656e7420746f6b656e0000000000000000000000000000000000000000000000602082015250565b7f4552433732313a206d696e7420746f20746865207a65726f2061646472657373600082015250565b7f4552433732313a20617070726f76656420717565727920666f72206e6f6e657860008201527f697374656e7420746f6b656e0000000000000000000000000000000000000000602082015250565b7f4f776e61626c653a2063616c6c6572206973206e6f7420746865206f776e6572600082015250565b7f4552433732313a207472616e73666572206f6620746f6b656e2074686174206960008201527f73206e6f74206f776e0000000000000000000000000000000000000000000000602082015250565b7f4552433732314d657461646174613a2055524920717565727920666f72206e6f60008201527f6e6578697374656e7420746f6b656e0000000000000000000000000000000000602082015250565b7f4552433732313a20617070726f76616c20746f2063757272656e74206f776e6560008201527f7200000000000000000000000000000000000000000000000000000000000000602082015250565b7f4552433732313a207472616e736665722063616c6c6572206973206e6f74206f60008201527f776e6572206e6f7220617070726f766564000000000000000000000000000000602082015250565b612d0f8161260b565b8114612d1a57600080fd5b50565b612d268161261d565b8114612d3157600080fd5b50565b612d3d81612629565b8114612d4857600080fd5b50565b612d5481612675565b8114612d5f57600080fd5b5056fea2646970667358221220ab8f7640b62492c3f733a8e3f4603769cd00c0cdc6c7e280033aa12485af75db64736f6c63430008060033",
    "immutableReferences": {},
    "source": "// SPDX-License-Identifier: MIT\npragma solidity ^0.8.0;\n\nimport \"@openzeppelin/contracts/token/ERC721/ERC721.sol\";\nimport \"@openzeppelin/contracts/utils/Counters.sol\";\nimport \"@openzeppelin/contracts/access/Ownable.sol\";\n\ncontract SalonDesRefuse is ERC721, Ownable {\n    using Counters for Counters.Counter;\n    Counters.Counter private _tokenIds;\n\n    mapping(uint => string) tokenURIMap;\n    // mapping(tokenId => address) buyerAddress;\n\n    constructor() ERC721(\"SalonDesRefuse\", \"SDR\") public {\n    }\n\n    function _setTokenURI(uint newItemId, string memory tokenURI) private {\n        tokenURIMap[newItemId] = tokenURI;\n    }\n\n    function createNFT(address receiver, string memory tokenURI) public returns (uint256){\n        _tokenIds.increment();\n\n        uint256 newItemId = _tokenIds.current();\n        _mint(receiver, newItemId);\n        _setTokenURI(newItemId, tokenURI);\n\n        return newItemId;\n    }\n    \n    function getTokenURI(uint _tokenId) public view returns (string memory) {\n        return tokenURIMap[_tokenId];\n    }\n    \n    //     .\n//     function buyToken(uint _tokenId) external payable {\n//         require(buyerAddress[_tokenId])\n//   }\n}",
    "sourcePath": "/Users/jeongjunlee/Projects/web14-salondesrefuses/nft/contracts/SalonDesRefuse.sol",
    "compiler": {
        "name": "solc",
        "version": "0.8.6+commit.11564f7e.Emscripten.clang"
    },
    "schemaVersion": "3.4.3",
    "updatedAt": "2021-11-16T06:26:36.111Z",
    "networkType": "ethereum",
    "devdoc": {
        "kind": "dev",
        "methods": {
            "approve(address,uint256)": {
                "details": "See {IERC721-approve}."
            },
            "balanceOf(address)": {
                "details": "See {IERC721-balanceOf}."
            },
            "getApproved(uint256)": {
                "details": "See {IERC721-getApproved}."
            },
            "isApprovedForAll(address,address)": {
                "details": "See {IERC721-isApprovedForAll}."
            },
            "name()": {
                "details": "See {IERC721Metadata-name}."
            },
            "owner()": {
                "details": "Returns the address of the current owner."
            },
            "ownerOf(uint256)": {
                "details": "See {IERC721-ownerOf}."
            },
            "renounceOwnership()": {
                "details": "Leaves the contract without owner. It will not be possible to call `onlyOwner` functions anymore. Can only be called by the current owner. NOTE: Renouncing ownership will leave the contract without an owner, thereby removing any functionality that is only available to the owner."
            },
            "safeTransferFrom(address,address,uint256)": {
                "details": "See {IERC721-safeTransferFrom}."
            },
            "safeTransferFrom(address,address,uint256,bytes)": {
                "details": "See {IERC721-safeTransferFrom}."
            },
            "setApprovalForAll(address,bool)": {
                "details": "See {IERC721-setApprovalForAll}."
            },
            "supportsInterface(bytes4)": {
                "details": "See {IERC165-supportsInterface}."
            },
            "symbol()": {
                "details": "See {IERC721Metadata-symbol}."
            },
            "tokenURI(uint256)": {
                "details": "See {IERC721Metadata-tokenURI}."
            },
            "transferFrom(address,address,uint256)": {
                "details": "See {IERC721-transferFrom}."
            },
            "transferOwnership(address)": {
                "details": "Transfers ownership of the contract to a new account (`newOwner`). Can only be called by the current owner."
            }
        },
        "version": 1
    },
    "userdoc": {
        "kind": "user",
        "methods": {},
        "version": 1
    }
}