{
    "contractName": "SalonDesRefuse",
    "abi": [
        {
            "inputs": [],
            "stateMutability": "nonpayable",
            "type": "constructor"
        },
        {
            "anonymous": false,
            "inputs": [
                {
                    "indexed": true,
                    "internalType": "address",
                    "name": "owner",
                    "type": "address"
                },
                {
                    "indexed": true,
                    "internalType": "address",
                    "name": "approved",
                    "type": "address"
                },
                {
                    "indexed": true,
                    "internalType": "uint256",
                    "name": "tokenId",
                    "type": "uint256"
                }
            ],
            "name": "Approval",
            "type": "event"
        },
        {
            "anonymous": false,
            "inputs": [
                {
                    "indexed": true,
                    "internalType": "address",
                    "name": "owner",
                    "type": "address"
                },
                {
                    "indexed": true,
                    "internalType": "address",
                    "name": "operator",
                    "type": "address"
                },
                {
                    "indexed": false,
                    "internalType": "bool",
                    "name": "approved",
                    "type": "bool"
                }
            ],
            "name": "ApprovalForAll",
            "type": "event"
        },
        {
            "anonymous": false,
            "inputs": [
                {
                    "indexed": true,
                    "internalType": "address",
                    "name": "previousOwner",
                    "type": "address"
                },
                {
                    "indexed": true,
                    "internalType": "address",
                    "name": "newOwner",
                    "type": "address"
                }
            ],
            "name": "OwnershipTransferred",
            "type": "event"
        },
        {
            "anonymous": false,
            "inputs": [
                {
                    "indexed": true,
                    "internalType": "address",
                    "name": "from",
                    "type": "address"
                },
                {
                    "indexed": true,
                    "internalType": "address",
                    "name": "to",
                    "type": "address"
                },
                {
                    "indexed": true,
                    "internalType": "uint256",
                    "name": "tokenId",
                    "type": "uint256"
                }
            ],
            "name": "Transfer",
            "type": "event"
        },
        {
            "inputs": [
                {
                    "internalType": "address",
                    "name": "to",
                    "type": "address"
                },
                {
                    "internalType": "uint256",
                    "name": "tokenId",
                    "type": "uint256"
                }
            ],
            "name": "approve",
            "outputs": [],
            "stateMutability": "nonpayable",
            "type": "function"
        },
        {
            "inputs": [
                {
                    "internalType": "address",
                    "name": "owner",
                    "type": "address"
                }
            ],
            "name": "balanceOf",
            "outputs": [
                {
                    "internalType": "uint256",
                    "name": "",
                    "type": "uint256"
                }
            ],
            "stateMutability": "view",
            "type": "function",
            "constant": true
        },
        {
            "inputs": [
                {
                    "internalType": "uint256",
                    "name": "tokenId",
                    "type": "uint256"
                }
            ],
            "name": "getApproved",
            "outputs": [
                {
                    "internalType": "address",
                    "name": "",
                    "type": "address"
                }
            ],
            "stateMutability": "view",
            "type": "function",
            "constant": true
        },
        {
            "inputs": [
                {
                    "internalType": "address",
                    "name": "owner",
                    "type": "address"
                },
                {
                    "internalType": "address",
                    "name": "operator",
                    "type": "address"
                }
            ],
            "name": "isApprovedForAll",
            "outputs": [
                {
                    "internalType": "bool",
                    "name": "",
                    "type": "bool"
                }
            ],
            "stateMutability": "view",
            "type": "function",
            "constant": true
        },
        {
            "inputs": [],
            "name": "name",
            "outputs": [
                {
                    "internalType": "string",
                    "name": "",
                    "type": "string"
                }
            ],
            "stateMutability": "view",
            "type": "function",
            "constant": true
        },
        {
            "inputs": [],
            "name": "owner",
            "outputs": [
                {
                    "internalType": "address",
                    "name": "",
                    "type": "address"
                }
            ],
            "stateMutability": "view",
            "type": "function",
            "constant": true
        },
        {
            "inputs": [
                {
                    "internalType": "uint256",
                    "name": "tokenId",
                    "type": "uint256"
                }
            ],
            "name": "ownerOf",
            "outputs": [
                {
                    "internalType": "address",
                    "name": "",
                    "type": "address"
                }
            ],
            "stateMutability": "view",
            "type": "function",
            "constant": true
        },
        {
            "inputs": [],
            "name": "renounceOwnership",
            "outputs": [],
            "stateMutability": "nonpayable",
            "type": "function"
        },
        {
            "inputs": [
                {
                    "internalType": "address",
                    "name": "from",
                    "type": "address"
                },
                {
                    "internalType": "address",
                    "name": "to",
                    "type": "address"
                },
                {
                    "internalType": "uint256",
                    "name": "tokenId",
                    "type": "uint256"
                }
            ],
            "name": "safeTransferFrom",
            "outputs": [],
            "stateMutability": "nonpayable",
            "type": "function"
        },
        {
            "inputs": [
                {
                    "internalType": "address",
                    "name": "from",
                    "type": "address"
                },
                {
                    "internalType": "address",
                    "name": "to",
                    "type": "address"
                },
                {
                    "internalType": "uint256",
                    "name": "tokenId",
                    "type": "uint256"
                },
                {
                    "internalType": "bytes",
                    "name": "_data",
                    "type": "bytes"
                }
            ],
            "name": "safeTransferFrom",
            "outputs": [],
            "stateMutability": "nonpayable",
            "type": "function"
        },
        {
            "inputs": [
                {
                    "internalType": "address",
                    "name": "operator",
                    "type": "address"
                },
                {
                    "internalType": "bool",
                    "name": "approved",
                    "type": "bool"
                }
            ],
            "name": "setApprovalForAll",
            "outputs": [],
            "stateMutability": "nonpayable",
            "type": "function"
        },
        {
            "inputs": [
                {
                    "internalType": "bytes4",
                    "name": "interfaceId",
                    "type": "bytes4"
                }
            ],
            "name": "supportsInterface",
            "outputs": [
                {
                    "internalType": "bool",
                    "name": "",
                    "type": "bool"
                }
            ],
            "stateMutability": "view",
            "type": "function",
            "constant": true
        },
        {
            "inputs": [],
            "name": "symbol",
            "outputs": [
                {
                    "internalType": "string",
                    "name": "",
                    "type": "string"
                }
            ],
            "stateMutability": "view",
            "type": "function",
            "constant": true
        },
        {
            "inputs": [
                {
                    "internalType": "uint256",
                    "name": "tokenId",
                    "type": "uint256"
                }
            ],
            "name": "tokenURI",
            "outputs": [
                {
                    "internalType": "string",
                    "name": "",
                    "type": "string"
                }
            ],
            "stateMutability": "view",
            "type": "function",
            "constant": true
        },
        {
            "inputs": [
                {
                    "internalType": "address",
                    "name": "from",
                    "type": "address"
                },
                {
                    "internalType": "address",
                    "name": "to",
                    "type": "address"
                },
                {
                    "internalType": "uint256",
                    "name": "tokenId",
                    "type": "uint256"
                }
            ],
            "name": "transferFrom",
            "outputs": [],
            "stateMutability": "nonpayable",
            "type": "function"
        },
        {
            "inputs": [
                {
                    "internalType": "address",
                    "name": "newOwner",
                    "type": "address"
                }
            ],
            "name": "transferOwnership",
            "outputs": [],
            "stateMutability": "nonpayable",
            "type": "function"
        },
        {
            "inputs": [
                {
                    "internalType": "address",
                    "name": "receiver",
                    "type": "address"
                },
                {
                    "internalType": "string",
                    "name": "tokenURI",
                    "type": "string"
                }
            ],
            "name": "createNFT",
            "outputs": [
                {
                    "internalType": "uint256",
                    "name": "",
                    "type": "uint256"
                }
            ],
            "stateMutability": "nonpayable",
            "type": "function"
        },
        {
            "inputs": [
                {
                    "internalType": "uint256",
                    "name": "_tokenId",
                    "type": "uint256"
                }
            ],
            "name": "getTokenURI",
            "outputs": [
                {
                    "internalType": "string",
                    "name": "",
                    "type": "string"
                }
            ],
            "stateMutability": "view",
            "type": "function",
            "constant": true
        },
        {
            "inputs": [
                {
                    "internalType": "uint256",
                    "name": "_tokenId",
                    "type": "uint256"
                }
            ],
            "name": "buyToken",
            "outputs": [],
            "stateMutability": "payable",
            "type": "function",
            "payable": true
        },
        {
            "inputs": [
                {
                    "internalType": "uint256",
                    "name": "_tokenId",
                    "type": "uint256"
                }
            ],
            "name": "getPrice",
            "outputs": [
                {
                    "internalType": "uint256",
                    "name": "",
                    "type": "uint256"
                }
            ],
            "stateMutability": "view",
            "type": "function",
            "constant": true
        },
        {
            "inputs": [
                {
                    "internalType": "address payable",
                    "name": "from",
                    "type": "address"
                },
                {
                    "internalType": "address",
                    "name": "to",
                    "type": "address"
                },
                {
                    "internalType": "uint256",
                    "name": "_tokenId",
                    "type": "uint256"
                }
            ],
            "name": "transferToken",
            "outputs": [],
            "stateMutability": "nonpayable",
            "type": "function"
        }
    ],
    "bytecode": "0x60806040523480156200001157600080fd5b506040518060400160405280600e81526020017f53616c6f6e4465735265667573650000000000000000000000000000000000008152506040518060400160405280600381526020017f5344520000000000000000000000000000000000000000000000000000000000815250816000908051906020019062000096929190620001a6565b508060019080519060200190620000af929190620001a6565b505050620000d2620000c6620000d860201b60201c565b620000e060201b60201c565b620002bb565b600033905090565b6000600660009054906101000a900473ffffffffffffffffffffffffffffffffffffffff16905081600660006101000a81548173ffffffffffffffffffffffffffffffffffffffff021916908373ffffffffffffffffffffffffffffffffffffffff1602179055508173ffffffffffffffffffffffffffffffffffffffff168173ffffffffffffffffffffffffffffffffffffffff167f8be0079c531659141344cd1fd0a4f28419497f9722a3daafe3b4186f6b6457e060405160405180910390a35050565b828054620001b49062000256565b90600052602060002090601f016020900481019282620001d8576000855562000224565b82601f10620001f357805160ff191683800117855562000224565b8280016001018555821562000224579182015b828111156200022357825182559160200191906001019062000206565b5b50905062000233919062000237565b5090565b5b808211156200025257600081600090555060010162000238565b5090565b600060028204905060018216806200026f57607f821691505b602082108114156200028657620002856200028c565b5b50919050565b7f4e487b7100000000000000000000000000000000000000000000000000000000600052602260045260246000fd5b6130cb80620002cb6000396000f3fe60806040526004361061012a5760003560e01c8063715018a6116100ab578063b88d4fde1161006f578063b88d4fde146103f5578063c87b56dd1461041e578063e75722301461045b578063e985e9c514610498578063f2fde38b146104d5578063f5537ede146104fe5761012a565b8063715018a6146103225780638da5cb5b1461033957806395d89b4114610364578063a22cb4651461038f578063a5614033146103b85761012a565b80632d296bf1116100f25780632d296bf1146102265780633bb3a24d1461024257806342842e0e1461027f5780636352211e146102a857806370a08231146102e55761012a565b806301ffc9a71461012f57806306fdde031461016c578063081812fc14610197578063095ea7b3146101d457806323b872dd146101fd575b600080fd5b34801561013b57600080fd5b5061015660048036038101906101519190612126565b610527565b6040516101639190612538565b60405180910390f35b34801561017857600080fd5b50610181610609565b60405161018e9190612553565b60405180910390f35b3480156101a357600080fd5b506101be60048036038101906101b99190612180565b61069b565b6040516101cb91906124d1565b60405180910390f35b3480156101e057600080fd5b506101fb60048036038101906101f691906120e6565b610720565b005b34801561020957600080fd5b50610224600480360381019061021f9190611f74565b610838565b005b610240600480360381019061023b9190612180565b610898565b005b34801561024e57600080fd5b5061026960048036038101906102649190612180565b6108b3565b6040516102769190612553565b60405180910390f35b34801561028b57600080fd5b506102a660048036038101906102a19190611f74565b610958565b005b3480156102b457600080fd5b506102cf60048036038101906102ca9190612180565b610978565b6040516102dc91906124d1565b60405180910390f35b3480156102f157600080fd5b5061030c60048036038101906103079190611eb4565b610a2a565b6040516103199190612775565b60405180910390f35b34801561032e57600080fd5b50610337610ae2565b005b34801561034557600080fd5b5061034e610b6a565b60405161035b91906124d1565b60405180910390f35b34801561037057600080fd5b50610379610b94565b6040516103869190612553565b60405180910390f35b34801561039b57600080fd5b506103b660048036038101906103b1919061204a565b610c26565b005b3480156103c457600080fd5b506103df60048036038101906103da919061208a565b610da7565b6040516103ec9190612775565b60405180910390f35b34801561040157600080fd5b5061041c60048036038101906104179190611fc7565b610ddf565b005b34801561042a57600080fd5b5061044560048036038101906104409190612180565b610e41565b6040516104529190612553565b60405180910390f35b34801561046757600080fd5b50610482600480360381019061047d9190612180565b610ee8565b60405161048f9190612775565b60405180910390f35b3480156104a457600080fd5b506104bf60048036038101906104ba9190611f34565b610f45565b6040516104cc9190612538565b60405180910390f35b3480156104e157600080fd5b506104fc60048036038101906104f79190611eb4565b610fd9565b005b34801561050a57600080fd5b5061052560048036038101906105209190611ee1565b6110d1565b005b60007f80ac58cd000000000000000000000000000000000000000000000000000000007bffffffffffffffffffffffffffffffffffffffffffffffffffffffff1916827bffffffffffffffffffffffffffffffffffffffffffffffffffffffff191614806105f257507f5b5e139f000000000000000000000000000000000000000000000000000000007bffffffffffffffffffffffffffffffffffffffffffffffffffffffff1916827bffffffffffffffffffffffffffffffffffffffffffffffffffffffff1916145b8061060257506106018261117b565b5b9050919050565b606060008054610618906129dd565b80601f0160208091040260200160405190810160405280929190818152602001828054610644906129dd565b80156106915780601f1061066657610100808354040283529160200191610691565b820191906000526020600020905b81548152906001019060200180831161067457829003601f168201915b5050505050905090565b60006106a6826111e5565b6106e5576040517f08c379a00000000000000000000000000000000000000000000000000000000081526004016106dc906126b5565b60405180910390fd5b6004600083815260200190815260200160002060009054906101000a900473ffffffffffffffffffffffffffffffffffffffff169050919050565b600061072b82610978565b90508073ffffffffffffffffffffffffffffffffffffffff168373ffffffffffffffffffffffffffffffffffffffff16141561079c576040517f08c379a000000000000000000000000000000000000000000000000000000000815260040161079390612735565b60405180910390fd5b8073ffffffffffffffffffffffffffffffffffffffff166107bb611251565b73ffffffffffffffffffffffffffffffffffffffff1614806107ea57506107e9816107e4611251565b610f45565b5b610829576040517f08c379a000000000000000000000000000000000000000000000000000000000815260040161082090612635565b60405180910390fd5b6108338383611259565b505050565b610849610843611251565b82611312565b610888576040517f08c379a000000000000000000000000000000000000000000000000000000000815260040161087f90612755565b60405180910390fd5b6108938383836113f0565b505050565b34600960008381526020019081526020016000208190555050565b60606008600083815260200190815260200160002080546108d3906129dd565b80601f01602080910402602001604051908101604052809291908181526020018280546108ff906129dd565b801561094c5780601f106109215761010080835404028352916020019161094c565b820191906000526020600020905b81548152906001019060200180831161092f57829003601f168201915b50505050509050919050565b61097383838360405180602001604052806000815250610ddf565b505050565b6000806002600084815260200190815260200160002060009054906101000a900473ffffffffffffffffffffffffffffffffffffffff169050600073ffffffffffffffffffffffffffffffffffffffff168173ffffffffffffffffffffffffffffffffffffffff161415610a21576040517f08c379a0000000000000000000000000000000000000000000000000000000008152600401610a1890612675565b60405180910390fd5b80915050919050565b60008073ffffffffffffffffffffffffffffffffffffffff168273ffffffffffffffffffffffffffffffffffffffff161415610a9b576040517f08c379a0000000000000000000000000000000000000000000000000000000008152600401610a9290612655565b60405180910390fd5b600360008373ffffffffffffffffffffffffffffffffffffffff1673ffffffffffffffffffffffffffffffffffffffff168152602001908152602001600020549050919050565b610aea611251565b73ffffffffffffffffffffffffffffffffffffffff16610b08610b6a565b73ffffffffffffffffffffffffffffffffffffffff1614610b5e576040517f08c379a0000000000000000000000000000000000000000000000000000000008152600401610b55906126d5565b60405180910390fd5b610b68600061164c565b565b6000600660009054906101000a900473ffffffffffffffffffffffffffffffffffffffff16905090565b606060018054610ba3906129dd565b80601f0160208091040260200160405190810160405280929190818152602001828054610bcf906129dd565b8015610c1c5780601f10610bf157610100808354040283529160200191610c1c565b820191906000526020600020905b815481529060010190602001808311610bff57829003601f168201915b5050505050905090565b610c2e611251565b73ffffffffffffffffffffffffffffffffffffffff168273ffffffffffffffffffffffffffffffffffffffff161415610c9c576040517f08c379a0000000000000000000000000000000000000000000000000000000008152600401610c93906125f5565b60405180910390fd5b8060056000610ca9611251565b73ffffffffffffffffffffffffffffffffffffffff1673ffffffffffffffffffffffffffffffffffffffff16815260200190815260200160002060008473ffffffffffffffffffffffffffffffffffffffff1673ffffffffffffffffffffffffffffffffffffffff16815260200190815260200160002060006101000a81548160ff0219169083151502179055508173ffffffffffffffffffffffffffffffffffffffff16610d56611251565b73ffffffffffffffffffffffffffffffffffffffff167f17307eab39ab6107e8899845ad3d59bd9653f200f220920489ca2b5937696c3183604051610d9b9190612538565b60405180910390a35050565b6000610db36007611712565b6000610dbf6007611728565b9050610dcb8482611736565b610dd58184611904565b8091505092915050565b610df0610dea611251565b83611312565b610e2f576040517f08c379a0000000000000000000000000000000000000000000000000000000008152600401610e2690612755565b60405180910390fd5b610e3b84848484611930565b50505050565b6060610e4c826111e5565b610e8b576040517f08c379a0000000000000000000000000000000000000000000000000000000008152600401610e8290612715565b60405180910390fd5b6000610e9561198c565b90506000815111610eb55760405180602001604052806000815250610ee0565b80610ebf846119a3565b604051602001610ed09291906124ad565b6040516020818303038152906040525b915050919050565b60003373ffffffffffffffffffffffffffffffffffffffff16610f0a83610978565b73ffffffffffffffffffffffffffffffffffffffff1614610f2a57600080fd5b60096000838152602001908152602001600020549050919050565b6000600560008473ffffffffffffffffffffffffffffffffffffffff1673ffffffffffffffffffffffffffffffffffffffff16815260200190815260200160002060008373ffffffffffffffffffffffffffffffffffffffff1673ffffffffffffffffffffffffffffffffffffffff16815260200190815260200160002060009054906101000a900460ff16905092915050565b610fe1611251565b73ffffffffffffffffffffffffffffffffffffffff16610fff610b6a565b73ffffffffffffffffffffffffffffffffffffffff1614611055576040517f08c379a000000000000000000000000000000000000000000000000000000000815260040161104c906126d5565b60405180910390fd5b600073ffffffffffffffffffffffffffffffffffffffff168173ffffffffffffffffffffffffffffffffffffffff1614156110c5576040517f08c379a00000000000000000000000000000000000000000000000000000000081526004016110bc90612595565b60405180910390fd5b6110ce8161164c565b50565b3373ffffffffffffffffffffffffffffffffffffffff166110f182610978565b73ffffffffffffffffffffffffffffffffffffffff161461111157600080fd5b8273ffffffffffffffffffffffffffffffffffffffff166108fc60096000848152602001908152602001600020549081150290604051600060405180830381858888f1935050505015801561116a573d6000803e3d6000fd5b50611176338383610958565b505050565b60007f01ffc9a7000000000000000000000000000000000000000000000000000000007bffffffffffffffffffffffffffffffffffffffffffffffffffffffff1916827bffffffffffffffffffffffffffffffffffffffffffffffffffffffff1916149050919050565b60008073ffffffffffffffffffffffffffffffffffffffff166002600084815260200190815260200160002060009054906101000a900473ffffffffffffffffffffffffffffffffffffffff1673ffffffffffffffffffffffffffffffffffffffff1614159050919050565b600033905090565b816004600083815260200190815260200160002060006101000a81548173ffffffffffffffffffffffffffffffffffffffff021916908373ffffffffffffffffffffffffffffffffffffffff160217905550808273ffffffffffffffffffffffffffffffffffffffff166112cc83610978565b73ffffffffffffffffffffffffffffffffffffffff167f8c5be1e5ebec7d5bd14f71427d1e84f3dd0314c0f7b2291e5b200ac8c7c3b92560405160405180910390a45050565b600061131d826111e5565b61135c576040517f08c379a000000000000000000000000000000000000000000000000000000000815260040161135390612615565b60405180910390fd5b600061136783610978565b90508073ffffffffffffffffffffffffffffffffffffffff168473ffffffffffffffffffffffffffffffffffffffff1614806113d657508373ffffffffffffffffffffffffffffffffffffffff166113be8461069b565b73ffffffffffffffffffffffffffffffffffffffff16145b806113e757506113e68185610f45565b5b91505092915050565b8273ffffffffffffffffffffffffffffffffffffffff1661141082610978565b73ffffffffffffffffffffffffffffffffffffffff1614611466576040517f08c379a000000000000000000000000000000000000000000000000000000000815260040161145d906126f5565b60405180910390fd5b600073ffffffffffffffffffffffffffffffffffffffff168273ffffffffffffffffffffffffffffffffffffffff1614156114d6576040517f08c379a00000000000000000000000000000000000000000000000000000000081526004016114cd906125d5565b60405180910390fd5b6114e1838383611b04565b6114ec600082611259565b6001600360008573ffffffffffffffffffffffffffffffffffffffff1673ffffffffffffffffffffffffffffffffffffffff168152602001908152602001600020600082825461153c91906128e1565b925050819055506001600360008473ffffffffffffffffffffffffffffffffffffffff1673ffffffffffffffffffffffffffffffffffffffff1681526020019081526020016000206000828254611593919061285a565b92505081905550816002600083815260200190815260200160002060006101000a81548173ffffffffffffffffffffffffffffffffffffffff021916908373ffffffffffffffffffffffffffffffffffffffff160217905550808273ffffffffffffffffffffffffffffffffffffffff168473ffffffffffffffffffffffffffffffffffffffff167fddf252ad1be2c89b69c2b068fc378daa952ba7f163c4a11628f55a4df523b3ef60405160405180910390a4505050565b6000600660009054906101000a900473ffffffffffffffffffffffffffffffffffffffff16905081600660006101000a81548173ffffffffffffffffffffffffffffffffffffffff021916908373ffffffffffffffffffffffffffffffffffffffff1602179055508173ffffffffffffffffffffffffffffffffffffffff168173ffffffffffffffffffffffffffffffffffffffff167f8be0079c531659141344cd1fd0a4f28419497f9722a3daafe3b4186f6b6457e060405160405180910390a35050565b6001816000016000828254019250508190555050565b600081600001549050919050565b600073ffffffffffffffffffffffffffffffffffffffff168273ffffffffffffffffffffffffffffffffffffffff1614156117a6576040517f08c379a000000000000000000000000000000000000000000000000000000000815260040161179d90612695565b60405180910390fd5b6117af816111e5565b156117ef576040517f08c379a00000000000000000000000000000000000000000000000000000000081526004016117e6906125b5565b60405180910390fd5b6117fb60008383611b04565b6001600360008473ffffffffffffffffffffffffffffffffffffffff1673ffffffffffffffffffffffffffffffffffffffff168152602001908152602001600020600082825461184b919061285a565b92505081905550816002600083815260200190815260200160002060006101000a81548173ffffffffffffffffffffffffffffffffffffffff021916908373ffffffffffffffffffffffffffffffffffffffff160217905550808273ffffffffffffffffffffffffffffffffffffffff16600073ffffffffffffffffffffffffffffffffffffffff167fddf252ad1be2c89b69c2b068fc378daa952ba7f163c4a11628f55a4df523b3ef60405160405180910390a45050565b8060086000848152602001908152602001600020908051906020019061192b929190611cb3565b505050565b61193b8484846113f0565b61194784848484611b09565b611986576040517f08c379a000000000000000000000000000000000000000000000000000000000815260040161197d90612575565b60405180910390fd5b50505050565b606060405180602001604052806000815250905090565b606060008214156119eb576040518060400160405280600181526020017f30000000000000000000000000000000000000000000000000000000000000008152509050611aff565b600082905060005b60008214611a1d578080611a0690612a40565b915050600a82611a1691906128b0565b91506119f3565b60008167ffffffffffffffff811115611a3957611a38612b76565b5b6040519080825280601f01601f191660200182016040528015611a6b5781602001600182028036833780820191505090505b5090505b60008514611af857600182611a8491906128e1565b9150600a85611a939190612a89565b6030611a9f919061285a565b60f81b818381518110611ab557611ab4612b47565b5b60200101907effffffffffffffffffffffffffffffffffffffffffffffffffffffffffffff1916908160001a905350600a85611af191906128b0565b9450611a6f565b8093505050505b919050565b505050565b6000611b2a8473ffffffffffffffffffffffffffffffffffffffff16611ca0565b15611c93578373ffffffffffffffffffffffffffffffffffffffff1663150b7a02611b53611251565b8786866040518563ffffffff1660e01b8152600401611b7594939291906124ec565b602060405180830381600087803b158015611b8f57600080fd5b505af1925050508015611bc057506040513d601f19601f82011682018060405250810190611bbd9190612153565b60015b611c43573d8060008114611bf0576040519150601f19603f3d011682016040523d82523d6000602084013e611bf5565b606091505b50600081511415611c3b576040517f08c379a0000000000000000000000000000000000000000000000000000000008152600401611c3290612575565b60405180910390fd5b805181602001fd5b63150b7a0260e01b7bffffffffffffffffffffffffffffffffffffffffffffffffffffffff1916817bffffffffffffffffffffffffffffffffffffffffffffffffffffffff191614915050611c98565b600190505b949350505050565b600080823b905060008111915050919050565b828054611cbf906129dd565b90600052602060002090601f016020900481019282611ce15760008555611d28565b82601f10611cfa57805160ff1916838001178555611d28565b82800160010185558215611d28579182015b82811115611d27578251825591602001919060010190611d0c565b5b509050611d359190611d39565b5090565b5b80821115611d52576000816000905550600101611d3a565b5090565b6000611d69611d64846127b5565b612790565b905082815260208101848484011115611d8557611d84612baa565b5b611d9084828561299b565b509392505050565b6000611dab611da6846127e6565b612790565b905082815260208101848484011115611dc757611dc6612baa565b5b611dd284828561299b565b509392505050565b600081359050611de981613022565b92915050565b600081359050611dfe81613039565b92915050565b600081359050611e1381613050565b92915050565b600081359050611e2881613067565b92915050565b600081519050611e3d81613067565b92915050565b600082601f830112611e5857611e57612ba5565b5b8135611e68848260208601611d56565b91505092915050565b600082601f830112611e8657611e85612ba5565b5b8135611e96848260208601611d98565b91505092915050565b600081359050611eae8161307e565b92915050565b600060208284031215611eca57611ec9612bb4565b5b6000611ed884828501611dda565b91505092915050565b600080600060608486031215611efa57611ef9612bb4565b5b6000611f0886828701611def565b9350506020611f1986828701611dda565b9250506040611f2a86828701611e9f565b9150509250925092565b60008060408385031215611f4b57611f4a612bb4565b5b6000611f5985828601611dda565b9250506020611f6a85828601611dda565b9150509250929050565b600080600060608486031215611f8d57611f8c612bb4565b5b6000611f9b86828701611dda565b9350506020611fac86828701611dda565b9250506040611fbd86828701611e9f565b9150509250925092565b60008060008060808587031215611fe157611fe0612bb4565b5b6000611fef87828801611dda565b945050602061200087828801611dda565b935050604061201187828801611e9f565b925050606085013567ffffffffffffffff81111561203257612031612baf565b5b61203e87828801611e43565b91505092959194509250565b6000806040838503121561206157612060612bb4565b5b600061206f85828601611dda565b925050602061208085828601611e04565b9150509250929050565b600080604083850312156120a1576120a0612bb4565b5b60006120af85828601611dda565b925050602083013567ffffffffffffffff8111156120d0576120cf612baf565b5b6120dc85828601611e71565b9150509250929050565b600080604083850312156120fd576120fc612bb4565b5b600061210b85828601611dda565b925050602061211c85828601611e9f565b9150509250929050565b60006020828403121561213c5761213b612bb4565b5b600061214a84828501611e19565b91505092915050565b60006020828403121561216957612168612bb4565b5b600061217784828501611e2e565b91505092915050565b60006020828403121561219657612195612bb4565b5b60006121a484828501611e9f565b91505092915050565b6121b681612915565b82525050565b6121c581612939565b82525050565b60006121d682612817565b6121e0818561282d565b93506121f08185602086016129aa565b6121f981612bb9565b840191505092915050565b600061220f82612822565b612219818561283e565b93506122298185602086016129aa565b61223281612bb9565b840191505092915050565b600061224882612822565b612252818561284f565b93506122628185602086016129aa565b80840191505092915050565b600061227b60328361283e565b915061228682612bca565b604082019050919050565b600061229e60268361283e565b91506122a982612c19565b604082019050919050565b60006122c1601c8361283e565b91506122cc82612c68565b602082019050919050565b60006122e460248361283e565b91506122ef82612c91565b604082019050919050565b600061230760198361283e565b915061231282612ce0565b602082019050919050565b600061232a602c8361283e565b915061233582612d09565b604082019050919050565b600061234d60388361283e565b915061235882612d58565b604082019050919050565b6000612370602a8361283e565b915061237b82612da7565b604082019050919050565b600061239360298361283e565b915061239e82612df6565b604082019050919050565b60006123b660208361283e565b91506123c182612e45565b602082019050919050565b60006123d9602c8361283e565b91506123e482612e6e565b604082019050919050565b60006123fc60208361283e565b915061240782612ebd565b602082019050919050565b600061241f60298361283e565b915061242a82612ee6565b604082019050919050565b6000612442602f8361283e565b915061244d82612f35565b604082019050919050565b600061246560218361283e565b915061247082612f84565b604082019050919050565b600061248860318361283e565b915061249382612fd3565b604082019050919050565b6124a781612991565b82525050565b60006124b9828561223d565b91506124c5828461223d565b91508190509392505050565b60006020820190506124e660008301846121ad565b92915050565b600060808201905061250160008301876121ad565b61250e60208301866121ad565b61251b604083018561249e565b818103606083015261252d81846121cb565b905095945050505050565b600060208201905061254d60008301846121bc565b92915050565b6000602082019050818103600083015261256d8184612204565b905092915050565b6000602082019050818103600083015261258e8161226e565b9050919050565b600060208201905081810360008301526125ae81612291565b9050919050565b600060208201905081810360008301526125ce816122b4565b9050919050565b600060208201905081810360008301526125ee816122d7565b9050919050565b6000602082019050818103600083015261260e816122fa565b9050919050565b6000602082019050818103600083015261262e8161231d565b9050919050565b6000602082019050818103600083015261264e81612340565b9050919050565b6000602082019050818103600083015261266e81612363565b9050919050565b6000602082019050818103600083015261268e81612386565b9050919050565b600060208201905081810360008301526126ae816123a9565b9050919050565b600060208201905081810360008301526126ce816123cc565b9050919050565b600060208201905081810360008301526126ee816123ef565b9050919050565b6000602082019050818103600083015261270e81612412565b9050919050565b6000602082019050818103600083015261272e81612435565b9050919050565b6000602082019050818103600083015261274e81612458565b9050919050565b6000602082019050818103600083015261276e8161247b565b9050919050565b600060208201905061278a600083018461249e565b92915050565b600061279a6127ab565b90506127a68282612a0f565b919050565b6000604051905090565b600067ffffffffffffffff8211156127d0576127cf612b76565b5b6127d982612bb9565b9050602081019050919050565b600067ffffffffffffffff82111561280157612800612b76565b5b61280a82612bb9565b9050602081019050919050565b600081519050919050565b600081519050919050565b600082825260208201905092915050565b600082825260208201905092915050565b600081905092915050565b600061286582612991565b915061287083612991565b9250827fffffffffffffffffffffffffffffffffffffffffffffffffffffffffffffffff038211156128a5576128a4612aba565b5b828201905092915050565b60006128bb82612991565b91506128c683612991565b9250826128d6576128d5612ae9565b5b828204905092915050565b60006128ec82612991565b91506128f783612991565b92508282101561290a57612909612aba565b5b828203905092915050565b600061292082612971565b9050919050565b600061293282612971565b9050919050565b60008115159050919050565b60007fffffffff0000000000000000000000000000000000000000000000000000000082169050919050565b600073ffffffffffffffffffffffffffffffffffffffff82169050919050565b6000819050919050565b82818337600083830152505050565b60005b838110156129c85780820151818401526020810190506129ad565b838111156129d7576000848401525b50505050565b600060028204905060018216806129f557607f821691505b60208210811415612a0957612a08612b18565b5b50919050565b612a1882612bb9565b810181811067ffffffffffffffff82111715612a3757612a36612b76565b5b80604052505050565b6000612a4b82612991565b91507fffffffffffffffffffffffffffffffffffffffffffffffffffffffffffffffff821415612a7e57612a7d612aba565b5b600182019050919050565b6000612a9482612991565b9150612a9f83612991565b925082612aaf57612aae612ae9565b5b828206905092915050565b7f4e487b7100000000000000000000000000000000000000000000000000000000600052601160045260246000fd5b7f4e487b7100000000000000000000000000000000000000000000000000000000600052601260045260246000fd5b7f4e487b7100000000000000000000000000000000000000000000000000000000600052602260045260246000fd5b7f4e487b7100000000000000000000000000000000000000000000000000000000600052603260045260246000fd5b7f4e487b7100000000000000000000000000000000000000000000000000000000600052604160045260246000fd5b600080fd5b600080fd5b600080fd5b600080fd5b6000601f19601f8301169050919050565b7f4552433732313a207472616e7366657220746f206e6f6e20455243373231526560008201527f63656976657220696d706c656d656e7465720000000000000000000000000000602082015250565b7f4f776e61626c653a206e6577206f776e657220697320746865207a65726f206160008201527f6464726573730000000000000000000000000000000000000000000000000000602082015250565b7f4552433732313a20746f6b656e20616c7265616479206d696e74656400000000600082015250565b7f4552433732313a207472616e7366657220746f20746865207a65726f2061646460008201527f7265737300000000000000000000000000000000000000000000000000000000602082015250565b7f4552433732313a20617070726f766520746f2063616c6c657200000000000000600082015250565b7f4552433732313a206f70657261746f7220717565727920666f72206e6f6e657860008201527f697374656e7420746f6b656e0000000000000000000000000000000000000000602082015250565b7f4552433732313a20617070726f76652063616c6c6572206973206e6f74206f7760008201527f6e6572206e6f7220617070726f76656420666f7220616c6c0000000000000000602082015250565b7f4552433732313a2062616c616e636520717565727920666f7220746865207a6560008201527f726f206164647265737300000000000000000000000000000000000000000000602082015250565b7f4552433732313a206f776e657220717565727920666f72206e6f6e657869737460008201527f656e7420746f6b656e0000000000000000000000000000000000000000000000602082015250565b7f4552433732313a206d696e7420746f20746865207a65726f2061646472657373600082015250565b7f4552433732313a20617070726f76656420717565727920666f72206e6f6e657860008201527f697374656e7420746f6b656e0000000000000000000000000000000000000000602082015250565b7f4f776e61626c653a2063616c6c6572206973206e6f7420746865206f776e6572600082015250565b7f4552433732313a207472616e73666572206f6620746f6b656e2074686174206960008201527f73206e6f74206f776e0000000000000000000000000000000000000000000000602082015250565b7f4552433732314d657461646174613a2055524920717565727920666f72206e6f60008201527f6e6578697374656e7420746f6b656e0000000000000000000000000000000000602082015250565b7f4552433732313a20617070726f76616c20746f2063757272656e74206f776e6560008201527f7200000000000000000000000000000000000000000000000000000000000000602082015250565b7f4552433732313a207472616e736665722063616c6c6572206973206e6f74206f60008201527f776e6572206e6f7220617070726f766564000000000000000000000000000000602082015250565b61302b81612915565b811461303657600080fd5b50565b61304281612927565b811461304d57600080fd5b50565b61305981612939565b811461306457600080fd5b50565b61307081612945565b811461307b57600080fd5b50565b61308781612991565b811461309257600080fd5b5056fea264697066735822122060532822c960e0b926ece2b45a4fd736c231f349448009e119c6795f6e28aec964736f6c63430008060033",
    "immutableReferences": {},
    "source": "// SPDX-License-Identifier: MIT\npragma solidity ^0.8.0;\n\nimport \"@openzeppelin/contracts/token/ERC721/ERC721.sol\";\nimport \"@openzeppelin/contracts/utils/Counters.sol\";\nimport \"@openzeppelin/contracts/access/Ownable.sol\";\n\ncontract SalonDesRefuse is ERC721, Ownable {\n    using Counters for Counters.Counter;\n    Counters.Counter private _tokenIds;\n\n    mapping(uint => string) tokenURIMap;\n    mapping(uint => uint) tokenPrice;\n\n    constructor() ERC721(\"SalonDesRefuse\", \"SDR\") public {\n    }\n\n    function _setTokenURI(uint newItemId, string memory tokenURI) private {\n        tokenURIMap[newItemId] = tokenURI;\n    }\n\n    function createNFT(address receiver, string memory tokenURI) public returns (uint256){\n        _tokenIds.increment();\n\n        uint256 newItemId = _tokenIds.current();\n        _mint(receiver, newItemId);\n        _setTokenURI(newItemId, tokenURI);\n\n        return newItemId;\n    }\n    \n    function getTokenURI(uint _tokenId) public view returns (string memory) {\n        return tokenURIMap[_tokenId];\n    }\n    \n    //     .\n    function buyToken(uint _tokenId) external payable {\n        tokenPrice[_tokenId] = msg.value;\n    }\n\n    function getPrice(uint _tokenId) external view returns(uint){\n        require(ownerOf(_tokenId) == msg.sender);\n        return tokenPrice[_tokenId];\n    }\n\n    function transferToken(address payable from, address to, uint _tokenId) public {\n        require(ownerOf(_tokenId) == msg.sender);\n        from.transfer(tokenPrice[_tokenId]);\n        safeTransferFrom(msg.sender, to, _tokenId);\n    }\n}",
    "sourcePath": "/Users/munsanghyeog/Desktop/web14-salondesrefuses/nft/contracts/SalonDesRefuse.sol",
    "compiler": {
        "name": "solc",
        "version": "0.8.6+commit.11564f7e.Emscripten.clang"
    },
    "schemaVersion": "3.4.3",
    "updatedAt": "2021-11-17T12:46:17.647Z",
    "networkType": "ethereum",
    "devdoc": {
        "kind": "dev",
        "methods": {
            "approve(address,uint256)": {
                "details": "See {IERC721-approve}."
            },
            "balanceOf(address)": {
                "details": "See {IERC721-balanceOf}."
            },
            "getApproved(uint256)": {
                "details": "See {IERC721-getApproved}."
            },
            "isApprovedForAll(address,address)": {
                "details": "See {IERC721-isApprovedForAll}."
            },
            "name()": {
                "details": "See {IERC721Metadata-name}."
            },
            "owner()": {
                "details": "Returns the address of the current owner."
            },
            "ownerOf(uint256)": {
                "details": "See {IERC721-ownerOf}."
            },
            "renounceOwnership()": {
                "details": "Leaves the contract without owner. It will not be possible to call `onlyOwner` functions anymore. Can only be called by the current owner. NOTE: Renouncing ownership will leave the contract without an owner, thereby removing any functionality that is only available to the owner."
            },
            "safeTransferFrom(address,address,uint256)": {
                "details": "See {IERC721-safeTransferFrom}."
            },
            "safeTransferFrom(address,address,uint256,bytes)": {
                "details": "See {IERC721-safeTransferFrom}."
            },
            "setApprovalForAll(address,bool)": {
                "details": "See {IERC721-setApprovalForAll}."
            },
            "supportsInterface(bytes4)": {
                "details": "See {IERC165-supportsInterface}."
            },
            "symbol()": {
                "details": "See {IERC721Metadata-symbol}."
            },
            "tokenURI(uint256)": {
                "details": "See {IERC721Metadata-tokenURI}."
            },
            "transferFrom(address,address,uint256)": {
                "details": "See {IERC721-transferFrom}."
            },
            "transferOwnership(address)": {
                "details": "Transfers ownership of the contract to a new account (`newOwner`). Can only be called by the current owner."
            }
        },
        "version": 1
    },
    "userdoc": {
        "kind": "user",
        "methods": {},
        "version": 1
    }
}