{
    "contractName": "SalonDesRefuse",
    "abi": [
        {
            "inputs": [],
            "stateMutability": "nonpayable",
            "type": "constructor"
        },
        {
            "anonymous": false,
            "inputs": [
                {
                    "indexed": true,
                    "internalType": "address",
                    "name": "owner",
                    "type": "address"
                },
                {
                    "indexed": true,
                    "internalType": "address",
                    "name": "approved",
                    "type": "address"
                },
                {
                    "indexed": true,
                    "internalType": "uint256",
                    "name": "tokenId",
                    "type": "uint256"
                }
            ],
            "name": "Approval",
            "type": "event"
        },
        {
            "anonymous": false,
            "inputs": [
                {
                    "indexed": true,
                    "internalType": "address",
                    "name": "owner",
                    "type": "address"
                },
                {
                    "indexed": true,
                    "internalType": "address",
                    "name": "operator",
                    "type": "address"
                },
                {
                    "indexed": false,
                    "internalType": "bool",
                    "name": "approved",
                    "type": "bool"
                }
            ],
            "name": "ApprovalForAll",
            "type": "event"
        },
        {
            "anonymous": false,
            "inputs": [
                {
                    "indexed": true,
                    "internalType": "address",
                    "name": "previousOwner",
                    "type": "address"
                },
                {
                    "indexed": true,
                    "internalType": "address",
                    "name": "newOwner",
                    "type": "address"
                }
            ],
            "name": "OwnershipTransferred",
            "type": "event"
        },
        {
            "anonymous": false,
            "inputs": [
                {
                    "indexed": true,
                    "internalType": "address",
                    "name": "from",
                    "type": "address"
                },
                {
                    "indexed": true,
                    "internalType": "address",
                    "name": "to",
                    "type": "address"
                },
                {
                    "indexed": true,
                    "internalType": "uint256",
                    "name": "tokenId",
                    "type": "uint256"
                }
            ],
            "name": "Transfer",
            "type": "event"
        },
        {
            "inputs": [
                {
                    "internalType": "address",
                    "name": "to",
                    "type": "address"
                },
                {
                    "internalType": "uint256",
                    "name": "tokenId",
                    "type": "uint256"
                }
            ],
            "name": "approve",
            "outputs": [],
            "stateMutability": "nonpayable",
            "type": "function"
        },
        {
            "inputs": [
                {
                    "internalType": "address",
                    "name": "owner",
                    "type": "address"
                }
            ],
            "name": "balanceOf",
            "outputs": [
                {
                    "internalType": "uint256",
                    "name": "",
                    "type": "uint256"
                }
            ],
            "stateMutability": "view",
            "type": "function",
            "constant": true
        },
        {
            "inputs": [],
            "name": "contractOwner",
            "outputs": [
                {
                    "internalType": "address",
                    "name": "",
                    "type": "address"
                }
            ],
            "stateMutability": "view",
            "type": "function",
            "constant": true
        },
        {
            "inputs": [
                {
                    "internalType": "uint256",
                    "name": "tokenId",
                    "type": "uint256"
                }
            ],
            "name": "getApproved",
            "outputs": [
                {
                    "internalType": "address",
                    "name": "",
                    "type": "address"
                }
            ],
            "stateMutability": "view",
            "type": "function",
            "constant": true
        },
        {
            "inputs": [
                {
                    "internalType": "address",
                    "name": "owner",
                    "type": "address"
                },
                {
                    "internalType": "address",
                    "name": "operator",
                    "type": "address"
                }
            ],
            "name": "isApprovedForAll",
            "outputs": [
                {
                    "internalType": "bool",
                    "name": "",
                    "type": "bool"
                }
            ],
            "stateMutability": "view",
            "type": "function",
            "constant": true
        },
        {
            "inputs": [],
            "name": "name",
            "outputs": [
                {
                    "internalType": "string",
                    "name": "",
                    "type": "string"
                }
            ],
            "stateMutability": "view",
            "type": "function",
            "constant": true
        },
        {
            "inputs": [],
            "name": "owner",
            "outputs": [
                {
                    "internalType": "address",
                    "name": "",
                    "type": "address"
                }
            ],
            "stateMutability": "view",
            "type": "function",
            "constant": true
        },
        {
            "inputs": [
                {
                    "internalType": "uint256",
                    "name": "tokenId",
                    "type": "uint256"
                }
            ],
            "name": "ownerOf",
            "outputs": [
                {
                    "internalType": "address",
                    "name": "",
                    "type": "address"
                }
            ],
            "stateMutability": "view",
            "type": "function",
            "constant": true
        },
        {
            "inputs": [],
            "name": "renounceOwnership",
            "outputs": [],
            "stateMutability": "nonpayable",
            "type": "function"
        },
        {
            "inputs": [
                {
                    "internalType": "address",
                    "name": "from",
                    "type": "address"
                },
                {
                    "internalType": "address",
                    "name": "to",
                    "type": "address"
                },
                {
                    "internalType": "uint256",
                    "name": "tokenId",
                    "type": "uint256"
                }
            ],
            "name": "safeTransferFrom",
            "outputs": [],
            "stateMutability": "nonpayable",
            "type": "function"
        },
        {
            "inputs": [
                {
                    "internalType": "address",
                    "name": "from",
                    "type": "address"
                },
                {
                    "internalType": "address",
                    "name": "to",
                    "type": "address"
                },
                {
                    "internalType": "uint256",
                    "name": "tokenId",
                    "type": "uint256"
                },
                {
                    "internalType": "bytes",
                    "name": "_data",
                    "type": "bytes"
                }
            ],
            "name": "safeTransferFrom",
            "outputs": [],
            "stateMutability": "nonpayable",
            "type": "function"
        },
        {
            "inputs": [
                {
                    "internalType": "address",
                    "name": "operator",
                    "type": "address"
                },
                {
                    "internalType": "bool",
                    "name": "approved",
                    "type": "bool"
                }
            ],
            "name": "setApprovalForAll",
            "outputs": [],
            "stateMutability": "nonpayable",
            "type": "function"
        },
        {
            "inputs": [
                {
                    "internalType": "bytes4",
                    "name": "interfaceId",
                    "type": "bytes4"
                }
            ],
            "name": "supportsInterface",
            "outputs": [
                {
                    "internalType": "bool",
                    "name": "",
                    "type": "bool"
                }
            ],
            "stateMutability": "view",
            "type": "function",
            "constant": true
        },
        {
            "inputs": [],
            "name": "symbol",
            "outputs": [
                {
                    "internalType": "string",
                    "name": "",
                    "type": "string"
                }
            ],
            "stateMutability": "view",
            "type": "function",
            "constant": true
        },
        {
            "inputs": [
                {
                    "internalType": "uint256",
                    "name": "tokenId",
                    "type": "uint256"
                }
            ],
            "name": "tokenURI",
            "outputs": [
                {
                    "internalType": "string",
                    "name": "",
                    "type": "string"
                }
            ],
            "stateMutability": "view",
            "type": "function",
            "constant": true
        },
        {
            "inputs": [
                {
                    "internalType": "address",
                    "name": "from",
                    "type": "address"
                },
                {
                    "internalType": "address",
                    "name": "to",
                    "type": "address"
                },
                {
                    "internalType": "uint256",
                    "name": "tokenId",
                    "type": "uint256"
                }
            ],
            "name": "transferFrom",
            "outputs": [],
            "stateMutability": "nonpayable",
            "type": "function"
        },
        {
            "inputs": [
                {
                    "internalType": "address",
                    "name": "newOwner",
                    "type": "address"
                }
            ],
            "name": "transferOwnership",
            "outputs": [],
            "stateMutability": "nonpayable",
            "type": "function"
        },
        {
            "inputs": [
                {
                    "internalType": "address",
                    "name": "receiver",
                    "type": "address"
                },
                {
                    "internalType": "string",
                    "name": "tokenURI",
                    "type": "string"
                }
            ],
            "name": "createNFT",
            "outputs": [
                {
                    "internalType": "uint256",
                    "name": "",
                    "type": "uint256"
                }
            ],
            "stateMutability": "nonpayable",
            "type": "function"
        },
        {
            "inputs": [
                {
                    "internalType": "uint256",
                    "name": "_tokenId",
                    "type": "uint256"
                }
            ],
            "name": "registerAuction",
            "outputs": [],
            "stateMutability": "nonpayable",
            "type": "function"
        },
        {
            "inputs": [
                {
                    "internalType": "uint256",
                    "name": "_tokenId",
                    "type": "uint256"
                }
            ],
            "name": "bid",
            "outputs": [
                {
                    "internalType": "bool",
                    "name": "",
                    "type": "bool"
                }
            ],
            "stateMutability": "payable",
            "type": "function",
            "payable": true
        },
        {
            "inputs": [
                {
                    "internalType": "uint256",
                    "name": "_tokenId",
                    "type": "uint256"
                }
            ],
            "name": "complete",
            "outputs": [],
            "stateMutability": "nonpayable",
            "type": "function"
        }
    ],
    "bytecode": "0x60806040523480156200001157600080fd5b506040518060400160405280600e81526020017f53616c6f6e4465735265667573650000000000000000000000000000000000008152506040518060400160405280600381526020017f5344520000000000000000000000000000000000000000000000000000000000815250816000908051906020019062000096929190620001e7565b508060019080519060200190620000af929190620001e7565b505050620000d2620000c66200011960201b60201c565b6200012160201b60201c565b33600960006101000a81548173ffffffffffffffffffffffffffffffffffffffff021916908373ffffffffffffffffffffffffffffffffffffffff160217905550620002fc565b600033905090565b6000600760009054906101000a900473ffffffffffffffffffffffffffffffffffffffff16905081600760006101000a81548173ffffffffffffffffffffffffffffffffffffffff021916908373ffffffffffffffffffffffffffffffffffffffff1602179055508173ffffffffffffffffffffffffffffffffffffffff168173ffffffffffffffffffffffffffffffffffffffff167f8be0079c531659141344cd1fd0a4f28419497f9722a3daafe3b4186f6b6457e060405160405180910390a35050565b828054620001f59062000297565b90600052602060002090601f01602090048101928262000219576000855562000265565b82601f106200023457805160ff191683800117855562000265565b8280016001018555821562000265579182015b828111156200026457825182559160200191906001019062000247565b5b50905062000274919062000278565b5090565b5b808211156200029357600081600090555060010162000279565b5090565b60006002820490506001821680620002b057607f821691505b60208210811415620002c757620002c6620002cd565b5b50919050565b7f4e487b7100000000000000000000000000000000000000000000000000000000600052602260045260246000fd5b6134df806200030c6000396000f3fe60806040526004361061012a5760003560e01c80638da5cb5b116100ab578063afe0026a1161006f578063afe0026a146103f5578063b88d4fde1461041e578063c87b56dd14610447578063ce606ee014610484578063e985e9c5146104af578063f2fde38b146104ec5761012a565b80638da5cb5b1461031057806395d89b411461033b578063971d852f14610366578063a22cb4651461038f578063a5614033146103b85761012a565b806342842e0e116100f257806342842e0e14610226578063454a2ab31461024f5780636352211e1461027f57806370a08231146102bc578063715018a6146102f95761012a565b806301ffc9a71461012f57806306fdde031461016c578063081812fc14610197578063095ea7b3146101d457806323b872dd146101fd575b600080fd5b34801561013b57600080fd5b506101566004803603810190610151919061243f565b610515565b6040516101639190612897565b60405180910390f35b34801561017857600080fd5b506101816105f7565b60405161018e91906128b2565b60405180910390f35b3480156101a357600080fd5b506101be60048036038101906101b99190612499565b610689565b6040516101cb9190612830565b60405180910390f35b3480156101e057600080fd5b506101fb60048036038101906101f691906123ff565b61070e565b005b34801561020957600080fd5b50610224600480360381019061021f919061228d565b610826565b005b34801561023257600080fd5b5061024d6004803603810190610248919061228d565b610886565b005b61026960048036038101906102649190612499565b6108a6565b6040516102769190612897565b60405180910390f35b34801561028b57600080fd5b506102a660048036038101906102a19190612499565b610a3f565b6040516102b39190612830565b60405180910390f35b3480156102c857600080fd5b506102e360048036038101906102de9190612220565b610af1565b6040516102f09190612b14565b60405180910390f35b34801561030557600080fd5b5061030e610ba9565b005b34801561031c57600080fd5b50610325610c31565b6040516103329190612830565b60405180910390f35b34801561034757600080fd5b50610350610c5b565b60405161035d91906128b2565b60405180910390f35b34801561037257600080fd5b5061038d60048036038101906103889190612499565b610ced565b005b34801561039b57600080fd5b506103b660048036038101906103b19190612363565b610ebf565b005b3480156103c457600080fd5b506103df60048036038101906103da91906123a3565b611040565b6040516103ec9190612b14565b60405180910390f35b34801561040157600080fd5b5061041c60048036038101906104179190612499565b611078565b005b34801561042a57600080fd5b50610445600480360381019061044091906122e0565b6110a7565b005b34801561045357600080fd5b5061046e60048036038101906104699190612499565b611109565b60405161047b91906128b2565b60405180910390f35b34801561049057600080fd5b5061049961125b565b6040516104a69190612830565b60405180910390f35b3480156104bb57600080fd5b506104d660048036038101906104d1919061224d565b611281565b6040516104e39190612897565b60405180910390f35b3480156104f857600080fd5b50610513600480360381019061050e9190612220565b611315565b005b60007f80ac58cd000000000000000000000000000000000000000000000000000000007bffffffffffffffffffffffffffffffffffffffffffffffffffffffff1916827bffffffffffffffffffffffffffffffffffffffffffffffffffffffff191614806105e057507f5b5e139f000000000000000000000000000000000000000000000000000000007bffffffffffffffffffffffffffffffffffffffffffffffffffffffff1916827bffffffffffffffffffffffffffffffffffffffffffffffffffffffff1916145b806105f057506105ef8261140d565b5b9050919050565b60606000805461060690612d6a565b80601f016020809104026020016040519081016040528092919081815260200182805461063290612d6a565b801561067f5780601f106106545761010080835404028352916020019161067f565b820191906000526020600020905b81548152906001019060200180831161066257829003601f168201915b5050505050905090565b600061069482611477565b6106d3576040517f08c379a00000000000000000000000000000000000000000000000000000000081526004016106ca90612a54565b60405180910390fd5b6004600083815260200190815260200160002060009054906101000a900473ffffffffffffffffffffffffffffffffffffffff169050919050565b600061071982610a3f565b90508073ffffffffffffffffffffffffffffffffffffffff168373ffffffffffffffffffffffffffffffffffffffff16141561078a576040517f08c379a000000000000000000000000000000000000000000000000000000000815260040161078190612ad4565b60405180910390fd5b8073ffffffffffffffffffffffffffffffffffffffff166107a96114e3565b73ffffffffffffffffffffffffffffffffffffffff1614806107d857506107d7816107d26114e3565b611281565b5b610817576040517f08c379a000000000000000000000000000000000000000000000000000000000815260040161080e90612994565b60405180910390fd5b61082183836114eb565b505050565b6108376108316114e3565b826115a4565b610876576040517f08c379a000000000000000000000000000000000000000000000000000000000815260040161086d90612af4565b60405180910390fd5b610881838383611682565b505050565b6108a1838383604051806020016040528060008152506110a7565b505050565b60003373ffffffffffffffffffffffffffffffffffffffff166108c883610a3f565b73ffffffffffffffffffffffffffffffffffffffff1614156108e957600080fd5b34600b6000848152602001908152602001600020600001541061090b57600080fd5b6000600b600084815260200190815260200160002060010160009054906101000a900473ffffffffffffffffffffffffffffffffffffffff1690508073ffffffffffffffffffffffffffffffffffffffff166108fc600b6000868152602001908152602001600020600001549081150290604051600060405180830381858888f193505050501580156109a2573d6000803e3d6000fd5b5060405180604001604052803481526020013373ffffffffffffffffffffffffffffffffffffffff16815250600b60008581526020019081526020016000206000820151816000015560208201518160010160006101000a81548173ffffffffffffffffffffffffffffffffffffffff021916908373ffffffffffffffffffffffffffffffffffffffff1602179055509050506001915050919050565b6000806002600084815260200190815260200160002060009054906101000a900473ffffffffffffffffffffffffffffffffffffffff169050600073ffffffffffffffffffffffffffffffffffffffff168173ffffffffffffffffffffffffffffffffffffffff161415610ae8576040517f08c379a0000000000000000000000000000000000000000000000000000000008152600401610adf906129d4565b60405180910390fd5b80915050919050565b60008073ffffffffffffffffffffffffffffffffffffffff168273ffffffffffffffffffffffffffffffffffffffff161415610b62576040517f08c379a0000000000000000000000000000000000000000000000000000000008152600401610b59906129b4565b60405180910390fd5b600360008373ffffffffffffffffffffffffffffffffffffffff1673ffffffffffffffffffffffffffffffffffffffff168152602001908152602001600020549050919050565b610bb16114e3565b73ffffffffffffffffffffffffffffffffffffffff16610bcf610c31565b73ffffffffffffffffffffffffffffffffffffffff1614610c25576040517f08c379a0000000000000000000000000000000000000000000000000000000008152600401610c1c90612a74565b60405180910390fd5b610c2f60006118de565b565b6000600760009054906101000a900473ffffffffffffffffffffffffffffffffffffffff16905090565b606060018054610c6a90612d6a565b80601f0160208091040260200160405190810160405280929190818152602001828054610c9690612d6a565b8015610ce35780601f10610cb857610100808354040283529160200191610ce3565b820191906000526020600020905b815481529060010190602001808311610cc657829003601f168201915b5050505050905090565b610cf56114e3565b73ffffffffffffffffffffffffffffffffffffffff16610d13610c31565b73ffffffffffffffffffffffffffffffffffffffff1614610d69576040517f08c379a0000000000000000000000000000000000000000000000000000000008152600401610d6090612a74565b60405180910390fd5b6000610d7482610a3f565b9050600960009054906101000a900473ffffffffffffffffffffffffffffffffffffffff1673ffffffffffffffffffffffffffffffffffffffff16610db883610689565b73ffffffffffffffffffffffffffffffffffffffff1614610dd857600080fd5b8073ffffffffffffffffffffffffffffffffffffffff166108fc600b6000858152602001908152602001600020600001549081150290604051600060405180830381858888f19350505050158015610e34573d6000803e3d6000fd5b50610e7681600b600085815260200190815260200160002060010160009054906101000a900473ffffffffffffffffffffffffffffffffffffffff1684610886565b600b60008381526020019081526020016000206000808201600090556001820160006101000a81549073ffffffffffffffffffffffffffffffffffffffff021916905550505050565b610ec76114e3565b73ffffffffffffffffffffffffffffffffffffffff168273ffffffffffffffffffffffffffffffffffffffff161415610f35576040517f08c379a0000000000000000000000000000000000000000000000000000000008152600401610f2c90612954565b60405180910390fd5b8060056000610f426114e3565b73ffffffffffffffffffffffffffffffffffffffff1673ffffffffffffffffffffffffffffffffffffffff16815260200190815260200160002060008473ffffffffffffffffffffffffffffffffffffffff1673ffffffffffffffffffffffffffffffffffffffff16815260200190815260200160002060006101000a81548160ff0219169083151502179055508173ffffffffffffffffffffffffffffffffffffffff16610fef6114e3565b73ffffffffffffffffffffffffffffffffffffffff167f17307eab39ab6107e8899845ad3d59bd9653f200f220920489ca2b5937696c31836040516110349190612897565b60405180910390a35050565b600061104c60086119a4565b600061105860086119ba565b905061106484826119c8565b61106e8184611b96565b8091505092915050565b6110a4600960009054906101000a900473ffffffffffffffffffffffffffffffffffffffff168261070e565b50565b6110b86110b26114e3565b836115a4565b6110f7576040517f08c379a00000000000000000000000000000000000000000000000000000000081526004016110ee90612af4565b60405180910390fd5b61110384848484611c0a565b50505050565b606061111482611477565b611153576040517f08c379a000000000000000000000000000000000000000000000000000000000815260040161114a90612a34565b60405180910390fd5b600060066000848152602001908152602001600020805461117390612d6a565b80601f016020809104026020016040519081016040528092919081815260200182805461119f90612d6a565b80156111ec5780601f106111c1576101008083540402835291602001916111ec565b820191906000526020600020905b8154815290600101906020018083116111cf57829003601f168201915b5050505050905060006111fd611c66565b9050600081511415611213578192505050611256565b60008251111561124857808260405160200161123092919061280c565b60405160208183030381529060405292505050611256565b61125184611c7d565b925050505b919050565b600960009054906101000a900473ffffffffffffffffffffffffffffffffffffffff1681565b6000600560008473ffffffffffffffffffffffffffffffffffffffff1673ffffffffffffffffffffffffffffffffffffffff16815260200190815260200160002060008373ffffffffffffffffffffffffffffffffffffffff1673ffffffffffffffffffffffffffffffffffffffff16815260200190815260200160002060009054906101000a900460ff16905092915050565b61131d6114e3565b73ffffffffffffffffffffffffffffffffffffffff1661133b610c31565b73ffffffffffffffffffffffffffffffffffffffff1614611391576040517f08c379a000000000000000000000000000000000000000000000000000000000815260040161138890612a74565b60405180910390fd5b600073ffffffffffffffffffffffffffffffffffffffff168173ffffffffffffffffffffffffffffffffffffffff161415611401576040517f08c379a00000000000000000000000000000000000000000000000000000000081526004016113f8906128f4565b60405180910390fd5b61140a816118de565b50565b60007f01ffc9a7000000000000000000000000000000000000000000000000000000007bffffffffffffffffffffffffffffffffffffffffffffffffffffffff1916827bffffffffffffffffffffffffffffffffffffffffffffffffffffffff1916149050919050565b60008073ffffffffffffffffffffffffffffffffffffffff166002600084815260200190815260200160002060009054906101000a900473ffffffffffffffffffffffffffffffffffffffff1673ffffffffffffffffffffffffffffffffffffffff1614159050919050565b600033905090565b816004600083815260200190815260200160002060006101000a81548173ffffffffffffffffffffffffffffffffffffffff021916908373ffffffffffffffffffffffffffffffffffffffff160217905550808273ffffffffffffffffffffffffffffffffffffffff1661155e83610a3f565b73ffffffffffffffffffffffffffffffffffffffff167f8c5be1e5ebec7d5bd14f71427d1e84f3dd0314c0f7b2291e5b200ac8c7c3b92560405160405180910390a45050565b60006115af82611477565b6115ee576040517f08c379a00000000000000000000000000000000000000000000000000000000081526004016115e590612974565b60405180910390fd5b60006115f983610a3f565b90508073ffffffffffffffffffffffffffffffffffffffff168473ffffffffffffffffffffffffffffffffffffffff16148061166857508373ffffffffffffffffffffffffffffffffffffffff1661165084610689565b73ffffffffffffffffffffffffffffffffffffffff16145b8061167957506116788185611281565b5b91505092915050565b8273ffffffffffffffffffffffffffffffffffffffff166116a282610a3f565b73ffffffffffffffffffffffffffffffffffffffff16146116f8576040517f08c379a00000000000000000000000000000000000000000000000000000000081526004016116ef90612a94565b60405180910390fd5b600073ffffffffffffffffffffffffffffffffffffffff168273ffffffffffffffffffffffffffffffffffffffff161415611768576040517f08c379a000000000000000000000000000000000000000000000000000000000815260040161175f90612934565b60405180910390fd5b611773838383611d24565b61177e6000826114eb565b6001600360008573ffffffffffffffffffffffffffffffffffffffff1673ffffffffffffffffffffffffffffffffffffffff16815260200190815260200160002060008282546117ce9190612c80565b925050819055506001600360008473ffffffffffffffffffffffffffffffffffffffff1673ffffffffffffffffffffffffffffffffffffffff16815260200190815260200160002060008282546118259190612bf9565b92505081905550816002600083815260200190815260200160002060006101000a81548173ffffffffffffffffffffffffffffffffffffffff021916908373ffffffffffffffffffffffffffffffffffffffff160217905550808273ffffffffffffffffffffffffffffffffffffffff168473ffffffffffffffffffffffffffffffffffffffff167fddf252ad1be2c89b69c2b068fc378daa952ba7f163c4a11628f55a4df523b3ef60405160405180910390a4505050565b6000600760009054906101000a900473ffffffffffffffffffffffffffffffffffffffff16905081600760006101000a81548173ffffffffffffffffffffffffffffffffffffffff021916908373ffffffffffffffffffffffffffffffffffffffff1602179055508173ffffffffffffffffffffffffffffffffffffffff168173ffffffffffffffffffffffffffffffffffffffff167f8be0079c531659141344cd1fd0a4f28419497f9722a3daafe3b4186f6b6457e060405160405180910390a35050565b6001816000016000828254019250508190555050565b600081600001549050919050565b600073ffffffffffffffffffffffffffffffffffffffff168273ffffffffffffffffffffffffffffffffffffffff161415611a38576040517f08c379a0000000000000000000000000000000000000000000000000000000008152600401611a2f90612a14565b60405180910390fd5b611a4181611477565b15611a81576040517f08c379a0000000000000000000000000000000000000000000000000000000008152600401611a7890612914565b60405180910390fd5b611a8d60008383611d24565b6001600360008473ffffffffffffffffffffffffffffffffffffffff1673ffffffffffffffffffffffffffffffffffffffff1681526020019081526020016000206000828254611add9190612bf9565b92505081905550816002600083815260200190815260200160002060006101000a81548173ffffffffffffffffffffffffffffffffffffffff021916908373ffffffffffffffffffffffffffffffffffffffff160217905550808273ffffffffffffffffffffffffffffffffffffffff16600073ffffffffffffffffffffffffffffffffffffffff167fddf252ad1be2c89b69c2b068fc378daa952ba7f163c4a11628f55a4df523b3ef60405160405180910390a45050565b611b9f82611477565b611bde576040517f08c379a0000000000000000000000000000000000000000000000000000000008152600401611bd5906129f4565b60405180910390fd5b80600660008481526020019081526020016000209080519060200190611c05929190612034565b505050565b611c15848484611682565b611c2184848484611d29565b611c60576040517f08c379a0000000000000000000000000000000000000000000000000000000008152600401611c57906128d4565b60405180910390fd5b50505050565b606060405180602001604052806000815250905090565b6060611c8882611477565b611cc7576040517f08c379a0000000000000000000000000000000000000000000000000000000008152600401611cbe90612ab4565b60405180910390fd5b6000611cd1611c66565b90506000815111611cf15760405180602001604052806000815250611d1c565b80611cfb84611ec0565b604051602001611d0c92919061280c565b6040516020818303038152906040525b915050919050565b505050565b6000611d4a8473ffffffffffffffffffffffffffffffffffffffff16612021565b15611eb3578373ffffffffffffffffffffffffffffffffffffffff1663150b7a02611d736114e3565b8786866040518563ffffffff1660e01b8152600401611d95949392919061284b565b602060405180830381600087803b158015611daf57600080fd5b505af1925050508015611de057506040513d601f19601f82011682018060405250810190611ddd919061246c565b60015b611e63573d8060008114611e10576040519150601f19603f3d011682016040523d82523d6000602084013e611e15565b606091505b50600081511415611e5b576040517f08c379a0000000000000000000000000000000000000000000000000000000008152600401611e52906128d4565b60405180910390fd5b805181602001fd5b63150b7a0260e01b7bffffffffffffffffffffffffffffffffffffffffffffffffffffffff1916817bffffffffffffffffffffffffffffffffffffffffffffffffffffffff191614915050611eb8565b600190505b949350505050565b60606000821415611f08576040518060400160405280600181526020017f3000000000000000000000000000000000000000000000000000000000000000815250905061201c565b600082905060005b60008214611f3a578080611f2390612dcd565b915050600a82611f339190612c4f565b9150611f10565b60008167ffffffffffffffff811115611f5657611f55612f03565b5b6040519080825280601f01601f191660200182016040528015611f885781602001600182028036833780820191505090505b5090505b6000851461201557600182611fa19190612c80565b9150600a85611fb09190612e16565b6030611fbc9190612bf9565b60f81b818381518110611fd257611fd1612ed4565b5b60200101907effffffffffffffffffffffffffffffffffffffffffffffffffffffffffffff1916908160001a905350600a8561200e9190612c4f565b9450611f8c565b8093505050505b919050565b600080823b905060008111915050919050565b82805461204090612d6a565b90600052602060002090601f01602090048101928261206257600085556120a9565b82601f1061207b57805160ff19168380011785556120a9565b828001600101855582156120a9579182015b828111156120a857825182559160200191906001019061208d565b5b5090506120b691906120ba565b5090565b5b808211156120d35760008160009055506001016120bb565b5090565b60006120ea6120e584612b54565b612b2f565b90508281526020810184848401111561210657612105612f37565b5b612111848285612d28565b509392505050565b600061212c61212784612b85565b612b2f565b90508281526020810184848401111561214857612147612f37565b5b612153848285612d28565b509392505050565b60008135905061216a8161344d565b92915050565b60008135905061217f81613464565b92915050565b6000813590506121948161347b565b92915050565b6000815190506121a98161347b565b92915050565b600082601f8301126121c4576121c3612f32565b5b81356121d48482602086016120d7565b91505092915050565b600082601f8301126121f2576121f1612f32565b5b8135612202848260208601612119565b91505092915050565b60008135905061221a81613492565b92915050565b60006020828403121561223657612235612f41565b5b60006122448482850161215b565b91505092915050565b6000806040838503121561226457612263612f41565b5b60006122728582860161215b565b92505060206122838582860161215b565b9150509250929050565b6000806000606084860312156122a6576122a5612f41565b5b60006122b48682870161215b565b93505060206122c58682870161215b565b92505060406122d68682870161220b565b9150509250925092565b600080600080608085870312156122fa576122f9612f41565b5b60006123088782880161215b565b94505060206123198782880161215b565b935050604061232a8782880161220b565b925050606085013567ffffffffffffffff81111561234b5761234a612f3c565b5b612357878288016121af565b91505092959194509250565b6000806040838503121561237a57612379612f41565b5b60006123888582860161215b565b925050602061239985828601612170565b9150509250929050565b600080604083850312156123ba576123b9612f41565b5b60006123c88582860161215b565b925050602083013567ffffffffffffffff8111156123e9576123e8612f3c565b5b6123f5858286016121dd565b9150509250929050565b6000806040838503121561241657612415612f41565b5b60006124248582860161215b565b92505060206124358582860161220b565b9150509250929050565b60006020828403121561245557612454612f41565b5b600061246384828501612185565b91505092915050565b60006020828403121561248257612481612f41565b5b60006124908482850161219a565b91505092915050565b6000602082840312156124af576124ae612f41565b5b60006124bd8482850161220b565b91505092915050565b6124cf81612cb4565b82525050565b6124de81612cc6565b82525050565b60006124ef82612bb6565b6124f98185612bcc565b9350612509818560208601612d37565b61251281612f46565b840191505092915050565b600061252882612bc1565b6125328185612bdd565b9350612542818560208601612d37565b61254b81612f46565b840191505092915050565b600061256182612bc1565b61256b8185612bee565b935061257b818560208601612d37565b80840191505092915050565b6000612594603283612bdd565b915061259f82612f57565b604082019050919050565b60006125b7602683612bdd565b91506125c282612fa6565b604082019050919050565b60006125da601c83612bdd565b91506125e582612ff5565b602082019050919050565b60006125fd602483612bdd565b91506126088261301e565b604082019050919050565b6000612620601983612bdd565b915061262b8261306d565b602082019050919050565b6000612643602c83612bdd565b915061264e82613096565b604082019050919050565b6000612666603883612bdd565b9150612671826130e5565b604082019050919050565b6000612689602a83612bdd565b915061269482613134565b604082019050919050565b60006126ac602983612bdd565b91506126b782613183565b604082019050919050565b60006126cf602e83612bdd565b91506126da826131d2565b604082019050919050565b60006126f2602083612bdd565b91506126fd82613221565b602082019050919050565b6000612715603183612bdd565b91506127208261324a565b604082019050919050565b6000612738602c83612bdd565b915061274382613299565b604082019050919050565b600061275b602083612bdd565b9150612766826132e8565b602082019050919050565b600061277e602983612bdd565b915061278982613311565b604082019050919050565b60006127a1602f83612bdd565b91506127ac82613360565b604082019050919050565b60006127c4602183612bdd565b91506127cf826133af565b604082019050919050565b60006127e7603183612bdd565b91506127f2826133fe565b604082019050919050565b61280681612d1e565b82525050565b60006128188285612556565b91506128248284612556565b91508190509392505050565b600060208201905061284560008301846124c6565b92915050565b600060808201905061286060008301876124c6565b61286d60208301866124c6565b61287a60408301856127fd565b818103606083015261288c81846124e4565b905095945050505050565b60006020820190506128ac60008301846124d5565b92915050565b600060208201905081810360008301526128cc818461251d565b905092915050565b600060208201905081810360008301526128ed81612587565b9050919050565b6000602082019050818103600083015261290d816125aa565b9050919050565b6000602082019050818103600083015261292d816125cd565b9050919050565b6000602082019050818103600083015261294d816125f0565b9050919050565b6000602082019050818103600083015261296d81612613565b9050919050565b6000602082019050818103600083015261298d81612636565b9050919050565b600060208201905081810360008301526129ad81612659565b9050919050565b600060208201905081810360008301526129cd8161267c565b9050919050565b600060208201905081810360008301526129ed8161269f565b9050919050565b60006020820190508181036000830152612a0d816126c2565b9050919050565b60006020820190508181036000830152612a2d816126e5565b9050919050565b60006020820190508181036000830152612a4d81612708565b9050919050565b60006020820190508181036000830152612a6d8161272b565b9050919050565b60006020820190508181036000830152612a8d8161274e565b9050919050565b60006020820190508181036000830152612aad81612771565b9050919050565b60006020820190508181036000830152612acd81612794565b9050919050565b60006020820190508181036000830152612aed816127b7565b9050919050565b60006020820190508181036000830152612b0d816127da565b9050919050565b6000602082019050612b2960008301846127fd565b92915050565b6000612b39612b4a565b9050612b458282612d9c565b919050565b6000604051905090565b600067ffffffffffffffff821115612b6f57612b6e612f03565b5b612b7882612f46565b9050602081019050919050565b600067ffffffffffffffff821115612ba057612b9f612f03565b5b612ba982612f46565b9050602081019050919050565b600081519050919050565b600081519050919050565b600082825260208201905092915050565b600082825260208201905092915050565b600081905092915050565b6000612c0482612d1e565b9150612c0f83612d1e565b9250827fffffffffffffffffffffffffffffffffffffffffffffffffffffffffffffffff03821115612c4457612c43612e47565b5b828201905092915050565b6000612c5a82612d1e565b9150612c6583612d1e565b925082612c7557612c74612e76565b5b828204905092915050565b6000612c8b82612d1e565b9150612c9683612d1e565b925082821015612ca957612ca8612e47565b5b828203905092915050565b6000612cbf82612cfe565b9050919050565b60008115159050919050565b60007fffffffff0000000000000000000000000000000000000000000000000000000082169050919050565b600073ffffffffffffffffffffffffffffffffffffffff82169050919050565b6000819050919050565b82818337600083830152505050565b60005b83811015612d55578082015181840152602081019050612d3a565b83811115612d64576000848401525b50505050565b60006002820490506001821680612d8257607f821691505b60208210811415612d9657612d95612ea5565b5b50919050565b612da582612f46565b810181811067ffffffffffffffff82111715612dc457612dc3612f03565b5b80604052505050565b6000612dd882612d1e565b91507fffffffffffffffffffffffffffffffffffffffffffffffffffffffffffffffff821415612e0b57612e0a612e47565b5b600182019050919050565b6000612e2182612d1e565b9150612e2c83612d1e565b925082612e3c57612e3b612e76565b5b828206905092915050565b7f4e487b7100000000000000000000000000000000000000000000000000000000600052601160045260246000fd5b7f4e487b7100000000000000000000000000000000000000000000000000000000600052601260045260246000fd5b7f4e487b7100000000000000000000000000000000000000000000000000000000600052602260045260246000fd5b7f4e487b7100000000000000000000000000000000000000000000000000000000600052603260045260246000fd5b7f4e487b7100000000000000000000000000000000000000000000000000000000600052604160045260246000fd5b600080fd5b600080fd5b600080fd5b600080fd5b6000601f19601f8301169050919050565b7f4552433732313a207472616e7366657220746f206e6f6e20455243373231526560008201527f63656976657220696d706c656d656e7465720000000000000000000000000000602082015250565b7f4f776e61626c653a206e6577206f776e657220697320746865207a65726f206160008201527f6464726573730000000000000000000000000000000000000000000000000000602082015250565b7f4552433732313a20746f6b656e20616c7265616479206d696e74656400000000600082015250565b7f4552433732313a207472616e7366657220746f20746865207a65726f2061646460008201527f7265737300000000000000000000000000000000000000000000000000000000602082015250565b7f4552433732313a20617070726f766520746f2063616c6c657200000000000000600082015250565b7f4552433732313a206f70657261746f7220717565727920666f72206e6f6e657860008201527f697374656e7420746f6b656e0000000000000000000000000000000000000000602082015250565b7f4552433732313a20617070726f76652063616c6c6572206973206e6f74206f7760008201527f6e6572206e6f7220617070726f76656420666f7220616c6c0000000000000000602082015250565b7f4552433732313a2062616c616e636520717565727920666f7220746865207a6560008201527f726f206164647265737300000000000000000000000000000000000000000000602082015250565b7f4552433732313a206f776e657220717565727920666f72206e6f6e657869737460008201527f656e7420746f6b656e0000000000000000000000000000000000000000000000602082015250565b7f45524337323155524953746f726167653a2055524920736574206f66206e6f6e60008201527f6578697374656e7420746f6b656e000000000000000000000000000000000000602082015250565b7f4552433732313a206d696e7420746f20746865207a65726f2061646472657373600082015250565b7f45524337323155524953746f726167653a2055524920717565727920666f722060008201527f6e6f6e6578697374656e7420746f6b656e000000000000000000000000000000602082015250565b7f4552433732313a20617070726f76656420717565727920666f72206e6f6e657860008201527f697374656e7420746f6b656e0000000000000000000000000000000000000000602082015250565b7f4f776e61626c653a2063616c6c6572206973206e6f7420746865206f776e6572600082015250565b7f4552433732313a207472616e73666572206f6620746f6b656e2074686174206960008201527f73206e6f74206f776e0000000000000000000000000000000000000000000000602082015250565b7f4552433732314d657461646174613a2055524920717565727920666f72206e6f60008201527f6e6578697374656e7420746f6b656e0000000000000000000000000000000000602082015250565b7f4552433732313a20617070726f76616c20746f2063757272656e74206f776e6560008201527f7200000000000000000000000000000000000000000000000000000000000000602082015250565b7f4552433732313a207472616e736665722063616c6c6572206973206e6f74206f60008201527f776e6572206e6f7220617070726f766564000000000000000000000000000000602082015250565b61345681612cb4565b811461346157600080fd5b50565b61346d81612cc6565b811461347857600080fd5b50565b61348481612cd2565b811461348f57600080fd5b50565b61349b81612d1e565b81146134a657600080fd5b5056fea264697066735822122052dadd28e659bc1d0321a67dbb1cb42c18822962459402da377d9c5f7952108d64736f6c63430008060033",
    "immutableReferences": {},
    "source": "// SPDX-License-Identifier: MIT\npragma solidity ^0.8.0;\n\nimport \"@openzeppelin/contracts/token/ERC721/extensions/ERC721URIStorage.sol\";\nimport \"@openzeppelin/contracts/utils/Counters.sol\";\nimport \"@openzeppelin/contracts/access/Ownable.sol\";\n\ncontract SalonDesRefuse is ERC721URIStorage, Ownable {\n    using Counters for Counters.Counter;\n    Counters.Counter private _tokenIds;\n    address public contractOwner;\n\n    mapping(uint => uint) tokenPrice;\n    mapping(uint => Bid) lastBid;\n\n    struct Bid {\n        uint price;\n        address bidder;\n    }\n\n    constructor() ERC721(\"SalonDesRefuse\", \"SDR\") public {\n        contractOwner = msg.sender;\n    }\n\n    function createNFT(address receiver, string memory tokenURI) public returns (uint256){\n        _tokenIds.increment();\n\n        uint256 newItemId = _tokenIds.current();\n        _mint(receiver, newItemId);\n        _setTokenURI(newItemId, tokenURI);\n\n        return newItemId;\n    }\n\n    function registerAuction(uint _tokenId) public {\n        approve(contractOwner, _tokenId);\n    }\n\n    function bid(uint _tokenId) public payable returns (bool) {\n        require(ownerOf(_tokenId) != msg.sender);\n        require(lastBid[_tokenId].price < msg.value);\n\n        address prevBidder = lastBid[_tokenId].bidder;\n        payable(prevBidder).transfer(lastBid[_tokenId].price);\n        lastBid[_tokenId] = Bid(msg.value, msg.sender);\n\n        return true;\n    }\n\n    function complete(uint _tokenId) public onlyOwner {\n        address tokenOwner = ownerOf(_tokenId);\n\n        require(getApproved(_tokenId) == contractOwner);\n\n        payable(tokenOwner).transfer(lastBid[_tokenId].price);\n        safeTransferFrom(tokenOwner, lastBid[_tokenId].bidder, _tokenId);\n        delete lastBid[_tokenId];\n    }\n}\n",
    "sourcePath": "/Users/George_Kim/Desktop/boostcamp_membership/web14-salondesrefuses/nft/contracts/SalonDesRefuse.sol",
    "compiler": {
        "name": "solc",
        "version": "0.8.6+commit.11564f7e.Emscripten.clang"
    },
    "schemaVersion": "3.4.3",
    "updatedAt": "2021-11-22T08:40:17.657Z",
    "networkType": "ethereum",
    "devdoc": {
        "kind": "dev",
        "methods": {
            "approve(address,uint256)": {
                "details": "See {IERC721-approve}."
            },
            "balanceOf(address)": {
                "details": "See {IERC721-balanceOf}."
            },
            "getApproved(uint256)": {
                "details": "See {IERC721-getApproved}."
            },
            "isApprovedForAll(address,address)": {
                "details": "See {IERC721-isApprovedForAll}."
            },
            "name()": {
                "details": "See {IERC721Metadata-name}."
            },
            "owner()": {
                "details": "Returns the address of the current owner."
            },
            "ownerOf(uint256)": {
                "details": "See {IERC721-ownerOf}."
            },
            "renounceOwnership()": {
                "details": "Leaves the contract without owner. It will not be possible to call `onlyOwner` functions anymore. Can only be called by the current owner. NOTE: Renouncing ownership will leave the contract without an owner, thereby removing any functionality that is only available to the owner."
            },
            "safeTransferFrom(address,address,uint256)": {
                "details": "See {IERC721-safeTransferFrom}."
            },
            "safeTransferFrom(address,address,uint256,bytes)": {
                "details": "See {IERC721-safeTransferFrom}."
            },
            "setApprovalForAll(address,bool)": {
                "details": "See {IERC721-setApprovalForAll}."
            },
            "supportsInterface(bytes4)": {
                "details": "See {IERC165-supportsInterface}."
            },
            "symbol()": {
                "details": "See {IERC721Metadata-symbol}."
            },
            "tokenURI(uint256)": {
                "details": "See {IERC721Metadata-tokenURI}."
            },
            "transferFrom(address,address,uint256)": {
                "details": "See {IERC721-transferFrom}."
            },
            "transferOwnership(address)": {
                "details": "Transfers ownership of the contract to a new account (`newOwner`). Can only be called by the current owner."
            }
        },
        "version": 1
    },
    "userdoc": {
        "kind": "user",
        "methods": {},
        "version": 1
    }
}